:400000000010002011000000110F0000110F000080B500AF00F080FF80B584B000AF021CFB1D1A70224A3B1C0B3312781A70214A3B1C0A3312781A701F4B1B68013BFB6068
:400040001AE01E4B1868391C0B31FA68131C5B009B18C31801331B780B70184B1868391C0A31FA68131C5B009B18C31802331B780B70FB68013BFB60FB68002B0ADB0F4B59
:400080001968FA68131C5B009B185B5CFA1D12789A42D6D90A4B3A1C0B3212781A60094B3A1C0A3212781A60BD4604B080BDC046CCF1FF0FCDF1FF0FE8790000CC00002089
:4000C0001CFF0B4020FF0B4080B500AF194B194A12688021C9020A431A601820FFF79CFF154B19221A60052001F06AF8134B144A1278D2B21A60052001F046F90D4B0D4A3A
:400100001168104A0A401A600F4B20221A600F4B10221A600E4B802212061A600D4B802212061A600C4B0D4A1A600D4B0D4A1A60BD4680BD00010B402CFF0B4028FF0B402E
:40014000E5F1FF0FFFFFFBFF080202400C02024008010B4004010B40000002400E00008040000240CF00008080B582B000AF72B6FB1D00221A7023E0FB1D1A78131C5B0089
:400180009B185B002F4A9B183B603B681A78597809020A43997809040A43DB781B0613431A1C3B6819795B791B020B439BB2101C191C00F035FFFB1DFA1D127801321A70E5
:4001C000FB1D1B78012BD7D91F4BEE2212041A601E4BEE2212021A601D4B99221A601D4B30221A601C4B1D4A1A601D4BD82212011A601C4B02221A601B4B31221A601B4BC1
:4002000002221A601A4B992212041A60194B992212041A60184B184A1278D2B202210A43D2B21A70144B144A1278D2B206210A43D2B21A70FFF748FF00F002FFBD4602B040
:4002400080BDC046DC790000000001400C000140100001400000044008000440804D02000803044000040440080404401804044000500F4030500F4000700F4010B5064C1D
:400280002378002B07D10548002802D0044800E000BF0121217010BD8801002000000000C478000008B5084B002B03D00748084900E000BF07480168002903D0064A002A8E
:4002C00000D0904708BDC04600000000C47800008C010020C80000200000000000000000B0B58CB004AF00F0C5FEEB4B181C01F093F8EA4B181C00F049FF62B601F0FCF830
:4003000000F064FB00F06CFB00F07AFB031C002B01D0E34B00E0E34B181C00F037FFE24B181C00F033FF00F00FFA00E0C046DF48DF49E04AE04BE14C0094E14C0194E14C4B
:40034000029400F095FBDA4B1B881BB2181C03F05FFA021CDC4B1B68101C191C03F05EF8031C181C8D21C90502F036FD031C1A1CD64B1A60CD4B1B881BB2181C03F048FA0B
:40038000021CD34B1B68101C191C03F047F8031C181C8D21C90502F01FFD031C1A1CCD4B1A60C44B1B881BB2181C03F031FA041CC94B1B68181C8D21C90503F02FF8031CB6
:4003C000201C191C03F02AF8031C181C8D21C90502F002FD031C1A1CC04B1A60B64B1B881BB2181C03F014FA021CBD4B1B68101C191C03F013F8031C181C04F0FBFF031CCF
:400400000C1C181C211CA14B9F4A03F005FE031C0C1C181C211C05F041F8021CB14B1A60A64B1B881BB2181C03F0F2F9021CAE4B1B68101C191C02F0F1FF031C181C04F047
:40044000D9FF031C0C1C181C211C904B8E4A03F0E3FD031C0C1C181C211C05F01FF8021CA24B1A60964B1B881BB2181C03F0D0F9021C9F4B1B68101C191C02F0CFFF031C11
:40048000181C04F0B7FF031C0C1C181C211C7F4B7D4A03F0C1FD031C0C1C181C211C04F0FDFF021C934B1A608A4B1A688B4B1B68101C191C01F080FE031C181C8E4902F0AA
:4004C0007DFE031C181C04F095FF031C0C1C181C211C6F4A6F4B03F09FFD031C0C1C181C211C04F0DBFF021C844B1A60774B1B6880221206151C5D40764B1A68754B1B68AC
:40050000101C191C02F05AFE031C1C1C734B1A68724B1B68101C191C02F050FE031C201C191C02F083FA031C181C04F063FF031C0C1C181C211C01F0DFFD031C0C1C181CF0
:40054000211C04F0ABFF031C281C191C01F034FE031C181C684902F031FE031C181C04F049FF031C0C1C181C211C494A494B03F053FD031C0C1C181C211C04F08FFF021CB7
:400580005F4B1A60514B1B68181C04F033FF041C0D1C504B1B68181C04F02CFF386179614E4B1B68181C04F025FF38607960554855493A697B69009201933A687B68029297
:4005C0000393221C2B1C05F067F8464B1B68181C04F010FF041C0D1C444B1B68181C04F009FFB860F960434B1B68181C04F002FF3860796045484449BA68FB6800920193D5
:400600003A687B6802920393221C2B1C05F044F83A4B1B68181C04F0EDFE041C0D1C384B1B68181C04F0E6FE021C0B1C3848394900920193221C2B1C05F02EF8364B1B78BE
:40064000012B00D072E6344B00221A7000F07CFD031CDAB23B1C1F331A703B1C1F331B78DBB2612B04D1274B181C00F08FFD5FE03B1C1F331B78DBB2672B4FD1234B181C0C
:4006800000F084FD54E0C0460AD7A3703D626040182D4454FB2109409D090000C8780000DC780000FC7800001C790000C8010020A402002054050020B4020020A80300200E
:4006C000D00100209C030020740400208004002098030020D8010020CC010020A0030020AC0200207C040020A4030020D401002050050020B002002000003443A8020020F8
:4007000084040020DC0100204C79000088040020B802002058790000A40100203B1C1F331B78DBB2722B03D1064B181C00F02EFD00F064FE031C5A425341DBB2181C00F007
:4007400037FEF3E5B8020020F0B54F464646C0B485B004AF7F4B00221A6079E07E487F497F4A804B804C0094804C0194804C029400F07EF9784B1B881BB2181C03F048F86B
:40078000021C7C4B1B68101C191C02F04FF9031C1A1C784B1A60714B1B881BB2181C03F037F8021C744B1B68101C191C02F03EF9031C1A1C704B1A60694B1B881BB2181C56
:4007C00003F026F8021C6D4B1B68101C191C02F02DF9031C1A1C694B1A60624B1B881BB2181C03F015F8021C654B1B68101C191C02F01CF9031C1A1C614B1A605A4B1B88C6
:400800001BB2181C03F004F8021C5E4B1B68101C191C02F00BF9031C1A1C5A4B1A60534B1B881BB2181C02F0F3FF021C564B1B68101C191C02F0FAF8031C1A1C524B1A609A
:40084000192000F07DFD434B1B685A1C414B1A60404B1B68632B00DC80E7464B1B68181C4A4902F0B9FA031C1A1C424B1A60424B1B68181C454902F0AFFA031C1A1C3E4B42
:400880001A603E4B1B68181C404902F0A5FA031C1A1C3A4B1A603A4B1B68181C3B4902F09BFA031C1A1C364B1A60364B1B68181C364902F091FA031C1A1C324B1A60324B7C
:4008C0001B68181C314902F087FA031C1A1C2E4B1A602F4B181C00F059FC264B1B68181C02F076FF051C244B1B68181C02F070FF041C224B1B68181C02F06AFF8146204B11
:400900001B68181C02F064FF80461E4B1B68181C02F05EFF061C1C4B1B68181C02F058FF011C1C4A1C4B484600904046019002960391101C191C2A1C231C04F0ADFE154BBD
:40094000181C00F023FCBD4601B00CBC90469946F0BDC046A8010020A4020020C801002054050020B4020020A8030020D00100209C0300207404002098030020CC010020CE
:40098000AC020020A4030020500500200000C84264790000AC0300209879000080B582B000AF00237B60064B01221A70054B1B687B60054B7A681A60BD4602B080BDC04602
:4009C000A4010020CC0F0640C00F064080B500AF024B68221A70BD4680BDC0467804002080B500AF012000F0B3F8002000F014F8002000F027F8002000F096F8BD4680BD0C
:400A000080B500AF00F0BAF8031C343B5A425341DBB2181CBD4680BD80B584B002AF021CFB1D1A70064B1B78FA1D12780092181C1B210422022300F0AFF9BD4602B080BD3B
:400A40007804002080B584B002AF021CFB1D1A70064B1B78FA1D12780092181C1C210422022300F099F9BD4602B080BD7804002080B584B000AFF860B9607A603B60284BAC
:400A80001A78284B101C3B210E2200F08DF8254B1B781B029AB2234B5B7813439AB2FB681A80204B9B781B029AB21E4BDB7813439AB2BB681A801B4B1B791B029AB2194BEF
:400AC0005B7913439AB27B681A80164B9B791B029AB2144BDB7913439AB23B6A1A80114B1B7A1B029AB20F4B5B7A13439AB23B681A800C4B9B7A1B029AB20A4BDB7A134354
:400B00009AB2BB691A80074B1B7B1B029AB2054B5B7B13439AB2FB691A80BD4604B080BD780400208003002080B582B000AF021CFB1D1A70054B1A78FB1D1B78101C6B2146
:400B4000062200F095F9BD4602B080BD7804002080B584B002AF021CFB1D1A70064B1B78FA1D12780092181C6B210222032300F013F9BD4602B080BD7804002080B582B055
:400B800002AF074B1B78074A0092181C75210622062300F06BF8034B1B78181CBD4680BD780400208003002080B584B000AF3B60FB1D1870BB1D19707B1D1A703B1C0F334B
:400BC00000221A70FB1D1B78181C002100F026FDBB1D1B78181C00F08BFEFB1D1B78181C012100F0A3FD09E0002000F0E7FE031CDAB23B681A703B6801333B603B1C0F33CC
:400C000019787B1D1B785A1E0123914200DB0023DBB23A1C0F32391C0F31097801311170002BE1D1012000F0C9FE031CDAB23B681A7000F0FFFDBD4604B080BD80B582B0CA
:400C400000AF3A60FB1D021C1A70BB1D0A1C1A70FB1D1978BB1D1A783B68081C111C0122FFF7A2FFBD4602B080BDC04690B585B000AF041C081C111C1A1CFB1D1C70BB1DDE
:400C800018707B1D19703B1D1A703B1D1B780122111C99400B1C5A1E7B1D19783B1D1B78CB1A01339A403B1C0F331A70FB1D1978BB1D1A783B6A081C111C1A1CFFF7BEFFDA
:400CC0003B6A1B783A1C0F3212781340DAB23B6A1A703B6A1B781A1C7B1D19783B1D1B78CB1A0133111C19410B1CDAB23B6A1A70BD4605B090BDC04680B584B000AF3B60CB
:400D0000FB1D1870BB1D19707B1D1A703B1C0F3300221A70FB1D1B78181C002100F07EFCBB1D1B78181C00F0E3FD07E03B681B783A6801323A60181C00F0DAFD3A1C0F3254
:400D40007B1D12781B789A429B415B42DBB23A1C0F32391C0F31097801311170002BE5D100F068FDBD4604B080BDC04680B582B000AFFB1D1870BB1D19707B1D1A70FB1DFB
:400D80001978BB1D1A787B1D081C111C0122FFF7B3FFBD4602B080BD90B585B000AF041C081C111C1A1CFB1D1C70BB1D18707B1D19703B1D1A703B1D1B780122111C9940A7
:400DC0000B1C5A1E7B1D19783B1D1B78CB1A01339A403B1C0F331A70FB1D1978BB1D1A783B1C0E33081C111C1A1CFFF727FF3B1C20331A787B1D19783B1D1B78CB1A013373
:400E00009A403B1C20331A703B1C20333A1C2032391C0F31127809780A401A703B1C0F331B78DB43DBB23A1C0E321278D2B21340DBB2DAB23B1C0E331A703B1C0E331A78AB
:400E40003B1C20331B781343DAB23B1C0E331A703B1C0E331B78FA1D1178BA1D1278081C111C1A1CFFF782FFBD4605B090BDC04690B585B000AF041C081C111C1A1CFB1D14
:400E80001C70BB1D18707B1D19703B1D1A70FB1D1978BB1D1A783B1C0F33081C111C1A1CFFF7CCFE3B1D1B78002B0ED07B1D1B780122111C99400B1CDAB23B1C0F331B7829
:400EC000DBB21343DBB2DBB20FE07B1D1B780122111C99400B1CDBB2DB43DBB23A1C0F321278D2B21340DBB2DBB23A1C0F3213703B1C0F331B78FA1D1178BA1D1278081CD6
:400F0000111C1A1CFFF732FFBD4605B090BDC04680B500AFFEE7C04680B586B000AF254B7B61254B3B61234B7B61234B3B6132E03B691B68FB603B695B68BB603B699B68CA
:400F40003B6000237B600CE0FB681A68BB681A60BB680433BB60FB680433FB607B6804337B607A683B689A42EED13B69DB683B6000237B6008E0BB6800221A60BB6804336A
:400F8000BB607B6804337B607A683B689A42F2D13B6910333B617B695A1E9341DBB27A69013A7A61002BC3D104F03EFBFFF798F9FEE7C04601000000947C000080B582B0EE
:400FC00000AF00237B600FE07B68032B04D8104B7A689200D35800E00E4B0F4A796889008B507B6801337B607B682F2BECD9FFF7BBF80A4B00221A608023DB058022D2050D
:40100000126801210A431A60BD4602B080BDC04600000000110F000000000020C000002080B582B000AF786039607A683B68101C00211A1C04F027FBBD4602B080BDC04698
:4010400080B500AFBD4680BD80B500AF00F028F8BD4680BD80B500AF054B054A1268802109060A431A6000F017F8BD4680BDC0460000064080B500AF064B1B78002B04D151
:40108000FFF7E2FF034B01221A70FFF7E3FFBD4680BDC046AC01002080B500AFBD4680BD80B500AF174B184A1A60184B00221A60174B01221A60174B174A1A60174B072267
:4010C0001A60174B00221A60164B01221A60164B114A1A60154B00221A60154B00221A60144B00221A60144B00221A60134B00221A60134B04221A60124B00221A60BD4662
:4011000080BDC046000006400B000002400006404800064000030640070000800403064010030640440006400002064004020640880E0640C80E0640480F0640080F06407F
:40114000C80F0640880F064080B582B000AF00237B6000F035FD031C002B03D000F020FD031C7B60084B1A68D8239B00134005D000237B60044BD82292001A607B68181C1E
:40118000BD4602B080BDC046C00F064080B584B000AF78600023FB6009E07A68FB68D3181B78181C00F01CFDFB680133FB607A68FB68D3181B78002BEFD1BD4604B080BD37
:4011C0000230800804D0C0460138FDD1C046C0467047EFF3108072B6704780F31088704780B584B000AF021C3960FB1D1A7080239B05FB60FB1D1B781F2B02D9002000F08F
:4012000095F8FB1D1B7810339B00FA68D3181B68BB60FB1D1B7810339B00FA68D3183A681A60BB68181CBD4604B080BD90B587B000AF0A1CFB1D011C1970BB1D1A70BB1D27
:401240001B78032B02D9002000F070F8FB1D1B781F2B02D9002000F069F8FB1D1A7803231340DB0006337B613C1C1334FFF7B1FF031C2370FB1D1B789B08DBB29B0014493C
:401280005B181B68FB607B690322111C99400B1CDA43FB681340FB60BB1D1A787B69111C99400B1CFA681343FB60FB1D1B789B08DBB29B00064A9B18FA681A603B1C1333F9
:4012C0001B78181CFFF789FFBD4607B090BDC04600E400E080B582B000AF021CFB1D1A70064BFA1D11781F220A400121081C9040021C1A60BD4602B080BDC04600E100E01F
:4013000080B582B000AF021CFB1D1A70064BFA1D11781F220A400121081C9040021C1A60BD4602B080BDC04680E100E080B582B000AF021CFB1D1A7001BEBD4602B080BDED
:4013400080B582B000AF786008E00C4B1B68181CFFF736FF7B680A4A9B187B607A6880231B029A42F1D8074B1B687A685343181CFFF726FFBD4602B080BDC046DC000020C2
:401380000080FFFFD400002080B582B000AF021CBB1D1A80BB1D1B88044A12785343181CFFF70EFFBD4602B080BDC046D800002080B584B000AF021CFB1D1A700E4B1B6851
:4013C000DAB23B1C0F3308218A431A70FB1D1B78DB00DAB208231340D9B23B1C0F333A1C0F3212780A431A70034B3A1C0F3212781A60BD4604B080BD0000044080B500AF97
:40140000044B1A6808231340DB08DBB2181CBD4680BDC0460400044080B582B000AF786000F04AF87B68181C00F008F8032000F011F800F037F8BD4602B080BD80B582B070
:4014400000AF7860024B7A689A66BD4602B080BD0000002090B585B000AF021CFB1D1A701623FB603C1C0B34FFF7B3FE031C23700A4B0A4A11680A4A1140FA1D1078FA686F
:40148000041C9440221C0A431A603B1C0B331B78181CFFF7A2FEBD4605B090BD08E400E0FFFF3FFF80B500AF024B8022D2001A60BD4680BD00E100E080B500AF024B802241
:4014C000D2001A60BD4680BD80E100E080B500AF00F02CF8BD4680BD80B500AF054B054A1268802109060A431A6000F017F8BD4680BDC0460000074080B500AF064B1B781F
:40150000002B04D1FFF7E2FF034B01221A70FFF7E3FFBD4680BDC046B401002080B500AF0B20FFF7D7FEBD4680BDC04680B500AF234B00221A60234B234A1A60234B234AA8
:4015400012680C210A431A60214B224A1A60224B00221A60214B00221A60214B214A1A60214B00221A600B20FFF7CAFE0B200321FFF75CFE1D4B0B20191CFFF731FE1C4B65
:4015800000221A601B4B00221A601B4B00221A601A4B1B4A1A601B4B00221A601A4B00221A601A4B10221A70194B00221A80194B00221A60184B00221A60BD4680BDC046BE
:4015C00000000740600007407708008070000740000307400703008004030740100307400002074007010080040207400D1C0000C80E0740880E0740480F0740080F07408E
:4016000013010000C80F0740880F074056050020740500205C0500206805002080B584B000AF786039600023FB600423BB60374B1B78DBB2102B64D1354B1A6801231340A4
:4016400002D00823BB605CE00B20FFF759FE7B685A00FF2313407B603B68002B03D12B4B24221A7006E0294B25221A707B68012213437B60274B7A681A60274B274A1A609C
:40168000274B02221A60C046234B1A68254B1340FAD0214B1A680423134002D00023BB601CE01D4B1A680223134002D00223BB6014E0194B1A680123134007D0134B1022F7
:4016C0001A700123BB600123FB6007E00F4B10221A7080235B00BB600123FB600E4B114A1A60FB68002B0CD00F4B0F4A1268520052081A600C4B0C4A1268802109060A43FE
:401700001A60BB68181CBD4604B080BD560500206400074040020740000F07401703000068000740070100000000074080B584B000AF786039600023FB600423BB60364BFD
:401740001B78DAB220231340DBB2002B5ED07B685A00FF2313407B603B68002B03D12E4B24221A7006E02C4B25221A707B68012213437B60294B2A4A1A6000F075F9C0462B
:40178000284B1A6801231340FAD1274B7A681A60C046224B1A68254B1340FAD01F4B1A680423134002D00023BB601CE01B4B1A680223134002D00223BB6014E0174B1A68E6
:4017C0000123134007D0144B10221A700123BB600123FB6007E0104B10221A7080235B00BB600123FB600D4B104A1A60FB68002B0CD00F4B0E4A1268520052081A600C4BED
:401800000B4A1268802109060A431A60BB68181CBD4604B080BDC04656050020000F0740170300006800074040020740070100000000074080B582B000AF00237B60042364
:401840003B60254B1B78DAB220231340DBB2002B3CD0224B224A116820220A4001D0182200E010221A60C0461E4B1A681E4B1340FAD01C4B1A681023134002D000233B60F9
:401880000EE0184B1A680123134004D001233B6001237B6004E080235B003B6001237B60104B114A1A600C4B10221A707B68002B0CD00E4B0D4A1268520052081A600B4BFD
:4018C0000A4A1268802109060A431A603B68181CBD4602B080BDC046560500206800074064000740000F0740110100000000074080B584B000AF78600023FB600423BB60A0
:40190000294B1B78DAB220231340DBB2002B46D0264B7A681A60C046254B1A68254B1340FAD0234B1A680423134005D01E4B60221A700023BB601FE01D4B1A68022313400B
:4019400005D0194B60221A700223BB6014E0184B1A680123134007D0134B10221A700123BB600123FB6007E00F4B10221A7080235B00BB600123FB600D4B0E4A1A60FB68C1
:40198000002B0CD00C4B0C4A1268520052081A60094B094A1268802109060A431A60BB68181CBD4604B080BD5605002040020740000F0740070100000000074080B584B0DE
:4019C00000AF786001235B42FB601F4B1B78DAB220231340DBB2002B30D0C0461B4B1A680423134004D11A4B1A681A4B1340F5D0164B1A680423134010D0174B1B68FB604F
:401A0000124B04221A607B68002B03D1134B04221A6013E00C4B60221A700FE00C4B104A1A60104B0F4A1268520052081A600D4B0C4A1268802109060A431A60FB68181CCF
:401A4000BD4604B080BDC04656050020C00F0740000F0740010100004003074068000740170300000000074080B582B000AF264B1B687B60C04600F051F8031C002BFAD0B1
:401A8000002000F059F8214B204A1168204A0A401A60204B1F4A1268520052081A607A682023134011D0002000F046F80A20FFF76BFC012000F040F8C04600F063F8031CED
:401AC000002BFAD00A20FFF75FFC002000F034F80A20FFF759FC104B01221A600D4B0D4A1268802109060A431A60084B074A1168074A0A40E02109030A431A60012000F090
:401B00001BF8BD4602B080BD6400074000000140FFFFF0FF000007406800074080B500AF044B1A68202313405B09DBB2181CBD4680BDC0460400044080B584B000AF021C9D
:401B4000FB1D1A700E4B1B68DAB23B1C0F3310218A431A70FB1D1B781B01DAB210231340D9B23B1C0F333A1C0F3212780A431A70034B3A1C0F3212781A60BD4604B080BD68
:401B80000000044080B500AF044B1A68102313401B09DBB2181CBD4680BDC0460400044080B582B000AF00237B60044B1B687B607B68181CBD4602B080BDC04640030640DA
:401BC00080B582B000AF054B1A680F2313407B607B68181CBD4602B080BDC0460803064080B582B000AF7860C046064B1A680F231340082BF9D0044B7A681A60BD4602B095
:401C000080BDC046080206404002064080B582B000AF00233B60C24B1B68002B02D0C04B1B689847BF4B1A680123134002D0BE4B00221A60BD4B1B78DAB220231340DBB2F7
:401C4000002B3CD0BA4B1A6880235B0013400AD0B84B1B889BB2C022920013439AB2B54B1A8001233B60B24B1A68012313400AD0B04B1B889BB29022920013439AB2AD4B80
:401C80001A8001233B603B68002B18D0A74B1B78DAB201231340DBB2002B01D0012300E00223A44A128892B291B21A1C0B1C13439BB29AB29F4B1A809C4B00221A709B4B83
:401CC0001B78DAB220231340DBB2002B00D1AAE1974B1A68102313401CD0974B10221A60924B1B78DAB201231340DBB2002B01D0012300E002238F4A128892B291B21A1C62
:401D00000B1C13439BB29AB28A4B1A80874B10221A70BEE1854B1B78DAB208231340DBB2002B29D0824B1A68022313400ED0824B02221A607F4B1B889BB288229200134377
:401D40009AB27C4B1A8001233B6015E0774B1B78DAB201231340DBB2002B03D0734B25221A7009E0714B24221A70744B1B68002B02D0734B10221A606C4B1B78DAB2042375
:401D80001340DBB2002B00D111E1684B1B78DAB201231340DBB2002B5BD06A4B1A680823134033D0684B1A68684B19680F231940674B1B68CB18D31A7B607B68082B02D9AC
:401DC00008237B601EE07B68002B1BD1614B614A1168614A0A401A6008237B6001233B6010E05E4B1A685A4B1B68D2185C4B1B68DBB21370564B1B685A1C554B1A607B68E3
:401E0000013B7B607B68002BEBD11EE04D4B1A680423134019D0514B1A684D4B1B68D2184F4B1B68DBB21370494B1B685A1C484B1A60474B1A68444B1B689A4203D2494BF1
:401E400004221A6001E001233B60474B474A1A60ADE0374B1A680223134032D0364B02221A60434B1A68434B19680F231940414B186880231B02034001D0012300E00023AA
:401E8000CB18D21A3A4B1A60394B1A683A4B1A60284B1B889BB28422920013439AB2254B1A80364B354A1268802149020A431A60324B324A1168324A0A401A6001233B606A
:401EC00075E0304B1A681023134065D013E0284B1A681A4B1B689A4214D22B4B2B4A1168234A12688A181278D2B21A60204B1B685A1C1F4B1A601F4B1A680F231340082BE2
:401F0000E5D100E0C0461A4B1A680C4B1B689A4202D10B4B40221A601D4B1E4A1A6046E0B80100208C0E0740880E0740560500200C0F074074050020000F0740600500200B
:401F4000880F0740CC0F074070050020080307405C05002060000740FFFEFFFF780500204003074068000740C00F0740ED0F000058050020080207406805002004020740C7
:401F8000FFFFFEFF8C0F0740400207406C050020800F0740F30700003F4B1A684023134005D03E4B1A683E4B1A6001233B603B68002B6ED03B4B3B4A11683B4A0A401A601D
:401FC0003A4B00221A603A4B00221A60394B1B78DAB202231340DBB2002B19D0364B1B78DAB201231340DBB2002B01D0092300E00A23324A128892B291B21A1C0B1C1343BA
:402000009BB29AB22D4B1A802B4B60221A7040E02B4B2C4A116820220A4001D0182200E010221A6035E0244B1B78DAB210231340DBB2002B2DD1244B234A126852005208EA
:402040001A601D4B10221A70164B164A11681F4A0A401A60134B134A11681D4A0A401A60124B00221A60124B00221A60194B1A4A1A601A4B1A4A1A601A4B1B4A1A601B4BDB
:402080001B4A1A60104B104A1268802109060A431A60BD4602B080BD8C0F0740580500206805002060000740FFFEFFFFC80F0740880F074064050020560500207405002082
:4020C000680007406400074000000740FF5FFFFFFFFCFFFF800F0740ED0F0000C00F0740F3070000400F0740FF0F0000000F07401703000000000000F0B5474680B48AB054
:40210000041C0D1C00F05CF8294A0023061CD0560F1C9046431C0DD0201C291C00F0FAF9002807D0201C291C204B1F4A00F01CFC002805D1301C391C0AB004BC9046F0BD9B
:40214000049405950294039544461A4E257801210027009101960897002D0ED1134B124A06920793684600F00DFA00280FD00898002811D1069E079FDCE70C490A48021C40
:402180000B1C01F049FF06900791022DEAD103F045FA21230360EAE703F040FA08990160E8E7C046C046C0460000000000000000E0000020EC79000008B500F019F908BD04
:4021C000F0B55F4656464D464446F0B40D1C854F2E1C83B0041C021C3E40BE4200D1DEE0002D00DCB7E00F1500D1C0E07E4B0903FC1880270D0B7B032B43E00700D59CE072
:40220000D10F64105D0080206B18A446520016270026002180030C189C4202DC21181B1B3618D50F5B0040085B190C185200013F9C4202DC21181B1B3618D50F5C00013F40
:40224000631952004008002FE5D1802500242027280601940097002480461BE08B4200D198E05B00009D99464008D30F4B44013D271852000095B9468B4224DC21D0009FAE
:402280005B009946013FD30F4B44520040080097002F2BD02718B9468B42DFDD4D46EF0F2C188A46FD07454539D0591A4A459B415F42CB1B01994D460F18521B0197514680
:4022C000CFE79742DBD84D46EF0F2C188A46FD0745452BD0591A4A459B415D424B1B01994F460D18D21B01955146C8E7134329D1019C63083D4F7010C219F50702D58026B6
:40230000340623436146080585181C1C201C291C03B03CBC90469946A246AB46F0BDE70FFF077D427D41AA468A44BEE7E70FFD076F426F41BA468A44CCE7D00F5E003318CD
:4023400052005DE7019A511C38D0019D012129404B195B08CEE769004B082343D6D00027002D32D1D10A153F52050029FAD080246503294225D10023490001332942FBD037
:4023800001242025E61AE81ABF19161CC64031439A402BE7974200D880E7191C61E7221C2B1C201C291C02F031FA021C0B1C201C291C01F081FA041C0D1CA7E70136002326
:4023C00098E7202001260023DEE7221C2B1C201C291C02F08DFC021C0B1C01F01DFE041C0D1C93E70000F07F01FCFFFF0000E03FF8B54F4646464C00FF23C0B46408DB05F5
:402400009C4216DC450081466D089D4211DCFE27BE05B1423CD08F1702263E40C70F3743B846002D0BD1022F30D0032F03D1304801E000F0FBFA0CBC90469946F8BD002C22
:402440001DD09C4227D09D4219D02C1BE3153C2B1ADC002937DB00F0BFFC00F0BBF900F093F8414601292AD0022920D00029E2D0204900F0DBFA204900F0D0FFDBE74C46E6
:40248000002C12DB1D48D6E71C48EAE71A48D2E700F07AF8CFE7A54219D0022FF6D0032FC5D0012F1BD00020C5E71548C3E7114900F0BCFA011C104800F0B0FFBBE78022A5
:4024C00015064019B7E73C33C5DA0020C9E7022F0CD0032F08D0012F04D00A48ABE780263006A8E70848A6E70848A4E70848A2E7DB0F49C02EBDBB33DB0F4940DB0FC93FC0
:40250000DB0FC9BFDB0F493FDB0F49BFE4CB16C0E4CB16400B1C011C30B519430222002901D1101C30BD80242506AB421ED0114A11499C1804228C42F3D9104D5C198C420B
:40254000EFD90F4903228B42EBD9802215060C495C1903228C42E4D9084A934203D0054D0022AB42DDD142424241DAE70028D8D0EBE7C0460000F0FFFFFFDF7F0000F07F1B
:40258000FFFF0F0000207047F0B57B4B4746450080B4041C061C6F089F420CDDFF20C205974200DD76E0002C00DCA4E0734C201C04BC9046F0BD724887427DDC714A974217
:4025C0006EDD012359428846211C201C00F0F6FD071C391C00F0F2FD6B49051C00F0EEFD6A4900F023FA291C00F0E8FD684900F01DFA291C00F0E2FD664900F017FA291C05
:4026000000F0DCFD644900F011FA291C00F0D6FD624900F00BFA391C00F0D0FD6049071C281C00F0CBFD5F4900F0F8FE291C00F0C5FD5D4900F0F2FE291C00F0BFFD5B4907
:4026400000F0ECFE291C00F0B9FD594900F0E6FE291C00F0B3FD011C4046431C4DD08500381C00F0E3F9211C00F0A8FD514BE95800F0D4FE211C00F0D1FE4F4C011C2859D0
:4026800000F0CCFE041C002E00DB90E78026310644188CE7201C211C00F0C8F9041C86E74649201CFE2500F0C1F9A90500F0AAF9002800D07BE784E7201C00F08BF8404987
:4026C000041C8F4225DC3F498F4243DC211C00F0ADF9FE21890500F0A1FE071C201C8024E10500F0A3F9011C381C00F075FB041C0020804668E7344C59E7381C00F096F933
:40270000211C00F05BFD011C201C00F087FE041C4DE72E4A974215DCFF27B90500F07EFEFF239905051C201CFE2400F047FDA10500F07CF9011C281C00F04EFB041C022006
:40274000804641E7211C224800F046FB0325041CA84639E7FE22910500F060FEFE25071CA905201C00F062F9011C381C00F034FB0123041C984627E7FFFF7F50DB0FC93F3F
:40278000FFFFDF3EFFFFFF30D769853C59DA4B3D356B883D6E2EBA3D2549123EABAAAA3E21A215BD6BF16E3D95879D3D388EE33DCDCC4C3EF4790000047A0000CAF2497126
:4027C000FFFF973FFFFF2F3FDB0FC9BFFFFF1B40000080BF400040087047C046002934D00123002210B488422CD301242407A14204D2814202D209011B01F8E7E400A142DE
:4028000004D2814202D249005B00F8E7884201D3401A1A434C08A04202D3001B5C0822438C08A04202D3001B9C082243CC08A04202D3001BDC082243002803D01B0901D016
:402840000909E3E7101C10BC7047002801D00020C04307B4024802A14018029003BDC046D90000000029F0D003B5FFF7B9FF0EBC4243891A1847C046002941D010B4041CBC
:402880004C40A44601230022002900D54942002800D5404288422CD301242407A14204D2814202D209011B01F8E7E400A14204D2814202D249005B00F8E7884201D3401A37
:4028C0001A434C08A04202D3001B5C0822438C08A04202D3001B9C082243CC08A04202D3001BDC082243002803D01B0901D00909E3E7101C6446002C00D5404210BC704786
:40290000002806D003DB0020C043400801E08020000607B4024802A14018029003BDC046190000000029EBD003B5FFF7A7FF0EBC4243891A1847C0467047C0468446101C16
:4029400062468C46191C634600E0C0461FB501F0F1FE002801D40021C8421FBD10B501F037FE4042013010BD10B501F0E3FE002801DB002010BD012010BDC04610B501F0C4
:40298000D9FE002801DD002010BD012010BDC04610B501F05BFE002801DC002010BD012010BDC04610B501F051FE002801DA002010BD012010BDC0468446081C6146FFE700
:4029C0001FB500F0B3FB002801D40021C8421FBD10B500F03BFB4042013010BD10B500F0A5FB002801DB002010BD012010BDC04610B500F09BFB002801DD002010BD01205D
:402A000010BDC04610B500F049FB002801DC002010BD012010BDC04610B500F03FFB002801DA002010BD012010BDC046F8B5430242004F024C00C00F9B09120E061C9C46A9
:402A4000240EC90FBF09884257D0151B002D00DC7EE0002C41D1002F64D0013D002D00D0ABE0DB1B141C061C590144D59A019509281C02F0B5FD05388540844200DD79E0BB
:402A8000001B1F242B1C411C221ACB4095401F1C2B1C5D1EAB413B43012500240F201840042800D004338021CF0401221F401640002F05D0FF2D5AD0B34C23402C1C013507
:402AC000EDB2DA08012D3BDD53025A0AE4B2E4052243F607101C3043F8BDFF2A2BD08021CC04274301231B2D49DD6746FB1A141C061C5901BAD4651CD0E7151B002D4FDDD3
:402B0000002C13D0FF2A5AD08024E1040F4301231B2D00DCB0E06344141C590155D4651C061CBBE7551C141C061CB7E7002F7CD1551C141CB2E7802763467D00FF24ADE746
:402B4000002AC3D0002C28D08020C1030A43BBE7002D47D1501CC3B2012B00DC96E06446E51B680158D53D1B0E1C141C80E7FF240022ACE7844B241A2B40651C8EE73E1C84
:402B80002021EE404D1BAF403B1C5F1EBB4133436746FB1A141C061CABE757027A0A96E7002D7FD1541CE1B2012953DDFF2C00D19BE0FB185B08951C70E7FF2A92D1061C8C
:402BC000802063464500FF2468E7671CFF2F3CD06D4A01261E4013405B083343A51C061C3C1C5BE76842002A25D0FF2C70D08022D6041D1C3543AC4601261B2809DC6246E9
:402C00002025C2402B1A60469840061C701E86411643BB1B0E1C27E7141C002D00D027E700260125042300244AE7013D002D08D1FB18141C71E7002B50D1651C3B1C0E1C7C
:402C40002CE7FF2A00D062E7B9E780235D00FF24042335E7002A7CD1002B00D1A1E0002F00D1AFE0FB18590100D4B0E0464E022533400124061C11E73C1C2023EC405D1BF9
:402C8000AF403B1C5F1EBB41234344E7002A12D16546002D41D1002FC2D03B1C0E1C01250024FBE66D42002A23D1002B66D1651C3B1C061CF2E66246002A38D1002F07D17D
:402CC000802200265500314BFF24F9E6FF2C93D13B1C80270E1C7D00FF24DFE601380028F4D16646BB1B0E1CBEE680277D000423E6E6FF2C5CD08022D1040B439C4601236E
:402D00001B2D08DC20216246EA4063464D1BAB40591E8B411343DB19FFE6002F38D0EB1B5A014BD57B1B0E1C01250024B6E6002F00D100E78020D308C403234204D0FF081F
:402D4000274201D13B1C0E1C8021DB004D00FF24A4E6002B20D0002F00D1ECE68022DE08D503311C2E4203D0F908294200D0311C061C8020CB004500FF248FE6013D002DE6
:402D800014D1FB18C9E6C046FFFFFFFBFCFFFF0363460125002481E6802465003B1CFF247CE63B1C061C0125002477E6FF2CA6D13B1C8027061C7D00FF246FE6002B00D15F
:402DC0002EE769E66346061C0125002466E6061C0125002462E6C046F0B55F4656464D464446F0B44502440083B00E1C6D0A240EC70F002C07D1002D00D091E0042101228C
:402E00008846924609E0FF2C55D08023180400210543ED007F3C88468A46331C58007602D90F760A000E8B464CD101229446002E00D081E05B467B406246414601930A43FA
:402E40000F2A50D9201A690181467501A94200D3B3E00122534299441B2400260127621E381C10404B007600002900DAA9E09D4200D8A6E0013C002C00DCABE000280CD01A
:402E8000191C76005B00002901DB9D4201D85B1B3E43013C002C00DC9CE059007200002B01DB8D4201D8491B3A43013C4B0056000029EADAEBE7002D2DD108200221804663
:402EC0008A46AAE7FF2820D08022130400211E438C465B467B4062464146F6007F3801930A430F2AAED8564992008A589746019BFF260025F0052843DE07304303B03CBC3C
:402F000090469946A246AB46F0BD331C5A1E934102339C468EE70C22032390469A467CE7281C02F05DFB7622441F5342A5401C1A00208046824670E7301C02F051FB762361
:402F4000411F8E405A420021101A8C4672E700233C4DFF26CEE75F46351C01976346022BC5D0032B63D0012B43D049467F31002935DD0F272F40042F00D004352B0103D593
:402F8000314A494615408031FE29B0DCA801450ACEB2019BAEE700260025ABE78020C1030D4211D00E420FD10E4373025D0AFF265B469FE701975346D1E7491B1A240126D9
:402FC0004CE75B1B3E4355E70D436A02550A3B1CFF268FE71D1C6B1E9D413543C5E77E2467424A46B91A1B2908DD019B0026002580E7019D00262B4000257BE74E469E3657
:40300000281CB5402B1C5D1EAB41C84003430F251D40042D00D004335A0103D5019B0126002567E79C01650A019B002662E78027FC0325436E02750A019BFF265AE7C0460D
:40304000147A0000FFFF7F00FFFFFFF74302420070B55C0AC60F130E48024A00450A120EC90FFF2B05D0FF2A08D0012093420BD070BD0120002CFBD1FF2AF6D10120002D19
:40308000F6D101209342F3D1AC42F1D18E4203D0002BEDD1002CEBD10020E9E7F0B5430242004F00C60F48025C0A450A130EC90F3A0EFF2B26D0FF2A29D0002B0CD16042FF
:4030C00060418446002A0AD0002816D18E4221D0002E14D1012014E0002AF7D194466F426F416046002805D1002FEFD00120002E07D004E00020002F03D10029EAD1012177
:403100004842F0BD002CD6D002225042F9E7002DD3D0F9E79342DBDC04DBAC42D8D80020AC42EED2002EEAD00120EAE7F0B5430242004F00C60F48025C0A450A130EC90F47
:403140003A0EFF2B26D0FF2A28D0002B0FD0002A14D194466F426F416046002814D00020002F03D100290DD101214842F0BD604260418446002AEDD00028F3D18E4211D0AC
:40318000002EF1D10120F1E7002FF7D00120002EECD0E9E70220002CE8D1D4E70220002DE4D1D2E79342EBDC04DBAC42E8D80020AC42DBD2002ED7D00120D7E7F0B55F46F4
:4031C00056464D464446F0B44502460083B00F1C6D0A360EC40F002E06D1002D70D1042101228846924609E0FF2E43D08023180400210543ED007F3E88468A46381C430068
:403200007F02C10F7F0A1B0E8B463AD10121002F62D158466040424601900A430F2A3FD92C04F018260C3B041A0C311C51433F0C2D0C7E436A438146080C36182C1CB31858
:403240007C439A4200D99AE009041D04080C2E18B5011B0C691E8D41B20EE7181543BC0125432B014BD50120284001216D088944054344E0002D1ED10820022180468A46C8
:40328000BCE7FF2B12D08022100407435846002160404246FF007F3B01900A430F2ABFD890005B4A8446624410688746391C4A1E91410231ADE70C22032390469A469DE743
:4032C000281C02F08DF97622461F5342B5401E1A00208046824691E7381C02F081F97621431F4A429F400021131A92E70194514602292CD0032900D180E0012948D04E46BC
:403300007F36002E51DD0F242C40042C00D004352A0103D53F494E460D408036FE2E3DDD019B01241C40FF210025C805E2072843104303B03CBC90469946A246AB46F0BD80
:403340000024354DFF21F0E751460229D2D1019D01242C40FF210025E7E75E463D1C0196C6E73D1CC4E78026F3031D420BD01F4209D11F437A02550A5C46FF21D5E7802256
:403380005702E41960E71D436F027D0AFF21CCE7019B00251940CCB20021C6E70198AD0101246D0AF1B20440BFE77E2673424A469F1A1B2F05DD019D01242C40002100252C
:4033C000B3E749469E312C1C8D402E1CFC40751EAE4126430F203040042800D00436700105D5019F01243C40012100259DE7019AB30101245D0A1440002196E78022D003E1
:4034000005436C020199650A01240C40FF218CE7547A0000FFFFFFF7FFFF7F00F8B5430245004F024C00C20F980984462D0E200EC90FBF09FF2854D0012671408A423BD077
:403440002C1A002C00DC89E0002825D1002F4BD16E1C2C1C6346151C0F221A40042A00D004338027F904012219402A40002906D0FF2E00D181E0B14D341C2B400136F6B240
:40348000DD08012E62DD6B025D0AE4B2E4052543281CD2071043F8BDFF2D51D08021CB041F4301261B2C70DD67462C1CBB1B151C580122D4661CCFE72E1A002E76DD00288B
:4034C00032D0FF2D3CD08024E1040F4301231B2E00DCD1E063442C1C58017AD4661C151CBAE7002FAAD1A7E7013C002C6DD163462C1CDB1B151C5801DCD59A019609301C4C
:4035000002F06EF805388640844239DC001B1F231A1A331C311C441C9340E1405E1EB3410B430126002497E7002F00D190E7013E002E03D164463B192C1CCDE7FF2DC5D1D9
:40354000151C802263465600FF2485E7002D9CD0002C28D08020C7033D4394E7002C45D16B1CD8B2012800DC90E06446E61B730157D53E1B2C1C0D1CC1E7FF24002585E78F
:403580006E4B241A3340661C66E7381C2021E0400C1BA7403E1C771EBE41064367462C1CBB1B151C84E769024D0A6FE7002E79D16C1CE0B201284BDDFF2C00D198E061465B
:4035C0007F18AE1C7B08151C46E7FF2D00D068E7B6E7671CFF2F36D058480121194003405B08A61C0B433C1C151C35E76642002D1ED0FF286FD080256246EB041A439446D8
:4036000001251B2E09DC62462023F24064469E1BB440251C6C1EA54115437B1B041C0D1C69E7002E0CD1002201260423002426E76446002C55D1461C3B1C041C0D1C0BE7EE
:403640002C1C151C5BE780235E00FF24042316E7002D00D08DE06546002D00D1ADE0002F00D181E07B195C0100D47EE0334F151C3B4002260124EFE6381C2023F0409E1B53
:40368000B7403B1C5F1EBB41034323E7002D15D16546002D47D1002FC5D03B1C0D1C01260024D9E67642002D26D16546002D00D07DE0461C3B1C041C151CCDE66546002D2C
:4036C00040D1002F07D1802100224E001C4BFF24D5E6FF2894D180203B1C0D1C4600FF24BAE6013E002EF4D13B1B0D1C041C02E780256E000423C2E6FF2852D08024614677
:40370000E30419438C4601231B2E09DC20216446F44065468E1BB5402B1C591E8B412343DB19041CD8E6002F1ED0EB1B58014BD57B1B01260D1C00248EE6C046FFFFFFFBE0
:40374000FCFFFF03002F00D1FAE68020EB08C403234237D0FF08274234D13B1C0D1C8022DB005600FF2477E66346151C0126002472E66446002C14D0002F00D1E0E68023BE
:40378000E608D803311C064203D0F908014200D0311C151C8022CB005600FF245CE6FF28B1D180203B1C151C4600FF2454E6013E002EF4D17B19041C8EE63B1C151C0126A1
:4037C000002449E6151CCAE7002B00D12BE7CCE743024200590A00B5130EC20F00207E2B0DDD9D2B0CDC802000040143952B0ADC9620C31AD9404842002A00D1081C00BD3F
:4038000002495018FBE7963B9940F4E7FFFFFF7F70B5041E3CD0C50F00D04442201C01F0DFFE9E21261C0B1A962B0ADC0838844061024C0ADBB2DB051C43ED07201C28437A
:4038400070BD992B0ADD0522141A311CE140041C1B34A6400A1C711E8E41164305281BDC144C0F2234401640042E00D00434620105D59F231B1AFF2B0CD00E4804405E1C74
:40388000F1B2E40801290ADD6402640ADBB2D2E7002500230024CEE7411F8E40E0E7002CF4D0002B03D08022D0030443ECE76602740AC0E7FFFFFFFBF8B55F4656464D46B5
:4038C0004446F0B40C03460F640A3443A3465E001C03DB0F9C46630A98464D00530F44461C436D0DC90F760DD2000F1CC000A1469246AB1B614500D1A4E0002B00DCF5E04E
:40390000002E0CD1261C164300D1C2E0013B002B00D046E15C464B46821AE71A21E0D24EB54200D1CDE080244A4627043A439146382B00DD0FE11F2B00DD50E12026F61A19
:403940004C4652465746B440B740DA4022433E1C4C46771EBE41DC403243261C5B46821A9F1B904280414642BB1B141C2E1C0F1C180200D4AEE05D02690A88464246002A68
:4039800000D1D9E0404601F02BFE051C083D1F2D00DDDAE02822131A201C4146D840A940031C0B43AC40AE4200DD90E0AE1B711C1F2900DD00E11F20851B1A1C201CAA402C
:4039C000C840AC401043661EB4410443CB40012200260F202040042864D0201DA042A441654280215B1901240D041D402740002D07D09D4EB24200D19AE09C49161C0B4033
:403A000001325C07C00852050443DB08550D012D62DD1B0376051B0B760D00200021090D201C0A05924C1343760575081C402C436300FF07590839433CBC90469946A24622
:403A4000AB46F8BD002B00DC91E0002E31D0864EB54200D1A9E080244E4622041643B146382B00DD18E11F2B00DD73E12026F61A4A46B240904652464446DA402243544689
:403A8000B440261C741EA6414C463243DC401218F6E0041C0F206A1C5B462E1C0F1C204004289AD180252D0401211D400F40201C9DE7144300D0DDE06A1C5B46041C2E1C79
:403AC00087E780215B46041C0A012E1C81E7761B664D2B40721C7CE7211C194300D167E2002E41D080200203134392E7002B00D088E0691C4E05740D012C00DC1AE15B46D2
:403B0000161C4C46821A191B90429B415B42C91A88460B0200D49EE0371ABA4592415E46A41B5342E11A88463C1C2E1C674625E7161C0023002470E7201C01F051FD2030BC
:403B4000051C083D1F2D00DC24E7031C283B9C40231C002427E74A4653461A430026002A00D1FBE60122F9E61D032B0B55E7002B00D004E16E1C7405630D012B00DCAAE0DC
:403B800039498E4200D130E11118814280414B4642425B449B18DC0749080C435B08AA1C17E7314FBD4200D0C2E6041C80205B460F1C02012E1C0CE7301C1F381A1CC24075
:403BC000151C202900D182E03F218E1BB3401C43631E9C412C43012200230026F9E61C1C203C4F46E7403E1C202B72D04022D41A4B46A3401A1C57463A43531E9A41324399
:403C00000026ABE65F42002D50D0174DAE4200D155E180245A4621040A439346382F00DDDAE01F2F00DD78E12021CC1B051C5A46A240FD40A04015435B46421E90412843F6
:403C4000FB4057463C1AA24592414846C11A55424B1B67468CE6081C104330D100270122002304200026CCE6FF070000FFFF7FFFFFFF0F80013B002B24D153461A184C462E
:403C8000824280415C444342E3182E1C141C18023ED4721C0F1C9CE64A4653461A430024002A00D1F3E601221218E9E75B46034300D083E0231C721C5446674689E6141C16
:403CC0002E1C5BE6CD4EB54200D0C9E66DE700237DE700228FE75E460643002D00D0F4E0002E00D14CE14B46134300D17EE115184E46854280415E444242B3181E0200D406
:403D000082E1BF4F2C1C3B4002220F1C012660E6BA4D701CA8424BD0B94F0125254062083B402C1CDF0714433C43B21C5B08061C0F1C4EE65E460643002D2CD1002E00D0B8
:403D40007DE04E46141C164388D04B466746012200263EE61E1C203E4C46F440261C202B00D1D8E04022D41A4B46A3401A1C54462243531E9A4132430024121880E75B4246
:403D8000002D37D15C46044300D0D7E0721C4B4654460F1C1DE6002E6ED14B46141C134300D1DCE080254B4667462A01934E10E68021061C0A010023042022E6013F002FF5
:403DC00079D1171A5B46BA45AD414946CA1A68423C1C131A6746CBE55F46074300230020002F00D12DE701202BE780252A010023042006E6814DAE4200D1D3E080245D46B6
:403E000022041543AB46382B00DDB0E01F2B00DDDBE02025ED1A021C5C46AC40DA40A840451EA841224302435846D840031C55465419544592414B4450421B1827E74A4636
:403E40005646324300D185E0851B5B464C46A8429241191B56428B1B1E0200D4ADE057463D1A5B46AA458941E41A4A42A31A67462C1C01220026ACE54D46161C154344D0E3
:403E80005C468021C0086207E3080D0310432B4200D181E04C46E10829427DD1F70866073E430B1C6746700FDB008022F40003431201524E8DE5514DAE4200D0AEE68020BF
:403EC0004B4654466746020183E5002E5ED04C4614431AD0C7088025584643072C03C0081F43204208D04E46F308234204D15246D5087707181C2F43C300FC00780F0F1C8E
:403F0000802103430A013D4E63E5802632015B46041C3A4E5DE5002229E7391C20395C46CC40221C202F67D04023DF1B5D46BD402843431E98411043002382E6013B002B1F
:403F40002CD150445C469042AD414C446A42A318041C9CE65B46041C0122002639E58024042100272201274B4842244E49E55D46054300230022002D00D158E7012256E711
:403F8000141C4B460F1C0122002622E5141C80224B461201194E1CE5061C84E7174A964200D030E70F1C80214B4654460A0110E57405660D002300242FE5181C284300D18C
:403FC0004CE62C1C0122002603E51C1C203C5D46E5402C1C202B1CD04022D31A5A469A400243501E82412243002320E75B46041C0F1C01220026ECE4002599E7FF070000BD
:40400000FFFF7FFFFFFF7F002C1C0F1C01220026DFE40022E4E7C046F0B54D4644465F465646F0B41D1C4B00141C0E035B0DCA0F87B0071C360B98469146002B1DD1321CB1
:40404000024300D181E1002E00D104E2301C01F0C7FA272800DDF8E12821031C083B0A1A391C9E40D1400E439F40C14B0021181A002280468A4600920FE0BE48834231D039
:4040800080214B031E43BC487A0FF600002100231643FF0080448A460093291C201C251C4A000C03CB0F240B520D9B4625D1211C014300D150E1002C00D1C2E1201C01F0C0
:4040C0008FFA272800DDB6E1031C2822083B291C121A9C40D1400C439D40A54B1A1A0020029019E0321C3A4300D029E108270223BA46002600270093CFE79E48824200D165
:4041000013E180214B031C439B49680FE40000230443ED005218029348465B46434002985146019301430F2900D8DFE043469A1A0492A64200D86EE171087B08F6073343CD
:40414000FA07894698460292280E240204432D022704390CAB46250C00914846291CFEF73DFB009F061C4743291C4846FEF77AFB434608041A0C1043874207D90019013E71
:40418000844203D8874201D9013E0019C11B8A46081C291CFEF722FB009B071C4343291C50469946FEF75EFB424610040B04010C0B43994504D91B19013F9C4200D864E1C0
:4041C00036043E435F464A46390C89469B1A59463204170C0A0449467943120C03928C460399300C7A4341434F4678438C44170C6744B94202D9802149024018390C1204B4
:4042000040183F04110C7F18834200D227E100D141E102991B1ACF1BB942804141425A1A9046A24200D15FE1101C291CFEF7D6FA009B02904343291C40469A46FEF712FBCF
:40424000380C090401438A450AD9029A0919013A02928C4204D88A4502D9013A029209195346C81A291C0590FEF7B8FA009A291C4243804605989246FEF7F4FA3F040D0453
:404280003A0C2A43924509D901214B4212199844944203D8924501D998441219029D43462F041F435046111A3804030C4D465D430398AC46039D3A0C584355434B465A43A3
:4042C000AC44030C63449D4202D980256D0252191D0C000452191B04050C5B19914200D2E6E000D13DE1012217435AE0890023488C46604401688F46019B1E4A0026002799
:4043000000200021381C0F0D3C051D4D34431205254015436E00DB077108194307B03CBC90469946A246AB46F0BD211C03202943029000D0F0E60223002400250293EBE6EF
:404340000C20032182460091A7E604270123BA46002600270093A0E60121002400250291DAE601270023074E7F42024AC8E7C0460DFCFFFFFF07000001FCFFFF947A00001C
:40438000FFFF0F80FFFF0F002F1C5A46029D261C0192022DB0D0032D00D101E1012D00D19CE0049B82481A18002A00DC8CE00F243C40042C05D03B1DBB42BF417D42761993
:4043C0001F1CF10105D57B4A04998020C40016400A19794B9A4200DD8EE77507FF08760251052F43360B4A0D019B89E700220026002785E7802001030E4216D00C4214D136
:404400000C432603360B5B462F1C6C4A78E74C460194009DBDE7A64243D00498B846013800270490B14602978EE60E4333031E0B624A4B4664E7041C283CA5402C1C0025BF
:404440004BE601F0CDF820303BE6061C283EB7403E1C002709E601F0C3F82030F9E5029A013E111C59445945924152421219D3189C4204D298426BD816D01B1ACBE6A342D9
:40448000FBD18B45F6D9231AC5E6994500D897E6013F1B1994E6029ABA42E0D302990023B9E6AF42B9D947E68F4251D80023B2E60919013F58468C4219D9914200D012E71F
:4044C000984200D00FE76CE73D4C049D631B382B1CDD019B00220026002711E7019B00222B40002600270BE701277F4259E78A4203D800D0F7E69842E2D25D4668005845A7
:40450000AD416D422C19013F0919D6E71F2B34DC049C2C4A381CA518311CAF40D840A9403C1C0143671EBC410F1C2743DE400F233B40042B05D03A1DBA42BF417D42761999
:40454000171C320211D5019B012200260027D7E659445945924152421219D318013E1B1A59E6002BA4D10020AAE77007FF08710207430E0B019B0022C2E61349049C301C67
:404580000A1BD040051C202B08D0104BE1188E4037437B1E9F412F430026C8E70026F7E780221003064331030E0B019B034AA7E6FF030000FFFFFFFEFE070000FF07000059
:4045C00002FCFFFF1E040000E2FBFFFF3E040000F0B5944647461A03061C580080B4170B420D19480D034C00DB0F2D0B640DC90F9846844208D0144882420DD001209442A0
:4046000012D004BC9046F0BD2B1C33430120002BF7D10D488242F1D163463B430120002BEFD101209442ECD1BD42EAD16645E8D1414506D0002CE4D1281C3043451EA84164
:40464000DFE70020DDE7C046FF070000F0B557464E464546E0B4041C4E000803C90F8A46171C59001A03050B700D160B4A0D3049DB0F9C46884232D02D498A4235D0002840
:404680000FD1291C21434B424B419846002A0BD0002B1AD1E2452CD05546002D18D1012018E0002AF6D19046311C39434B424B414146002906D1002BECD056460120002E70
:4046C00008D005E00020002B04D16746002FE6D1012358421CBC90469946A246F0BD2B1C2343C9D002214842F4E7331C3B43C6D0F8E7904205DC09DA5246002AE8D0012029
:40470000E8E75446002CE3D10120E3E7B542C3D807D00020B542DDD250460028D8D00120D8E7BC42B8D80020BC42F5D3D2E7C046FF070000F0B544465F4656464D46F0B4F0
:404740009446061C1A035800170B420D2E480D034C00DB0F2D0B640DC90F9846844233D02948824236D0002C19D0002A20D1934663463B43584258415B468246002B1DD054
:4047800051460020002904D14246002A14D1012460423CBC90469946A246AB46F0BD2B1C3343584243419B46002AE1D0002BEBD1414515D00029EAD10120EAE70028F7D005
:4047C00001200029E5D0E2E72B1C33430220002BDFD1C5E763463B430220002BD9D1C2E79442E7DC05DBBD42E4D806D00020BD42CFD20029CBD00120CBE76645DAD80020E6
:404800006645F6D3C5E7C046FF070000F0B5564644465F464D46F0B44F001D1C0B03141C1A0B7B0D87B0061C92469846CF0F002B21D1024300D149E15346002B00D1E4E18E
:40484000504600F0CDFE031E272B00DDD8E1083B5146994028228846111A321CCA4041460A4392469E40D84B0022181A002180469146039111E0D54883423ED08021534622
:404880004A031A43D000710F0843D14A824600230020F600904499460390291C201C251C4A000C03CB0F240B520D9B4631D1211C014300D112E1002C00D19DE1201C00F0FF
:4048C0008FFE272800DD91E1031C2822083B291C121A9C40D1400C439D40BB4B59461A1A794000204B46019103430F2B26D89900B84B8C46634419688F46111C314300D028
:40490000DFE0082600200221B146824600260391C3E7AE48824200D1C9E080214B031C43AB49680FE4000443ED0052180020594679404B46019103430F2BD8D9424433042C
:40494000290404921A0C0F0C101C7843360C331C80462D0C7B43301C6843111C69439C4643468346180C08186044844500D91FE1010C4346039119040B0C0004C018210411
:40498000240C0590101C6243090C02924843321C66434A43029BB146060C9046B4461A1C62444244904502D9802673029944160CB046C14400044B46060C1204029393190E
:4049C00056463204100C021C6A439C46031C7B439146320C574398461B0C9A46D144B94455434F4502D980277E02AD194B461F0C4646ED191F0433041E0C031C4B43604383
:404A0000514354431A0C8018B046401847449A46814202D980214E02A419039B1A1C62445A44624589414E425146B34603040E049C460299330C6344CE18B046C246DA4461
:404A4000D219BA42BF4151467B426F18F9189946DA459B415E42029BB3469845B64176425B461E43000C49459B41AF42AD4136186F42584238433618059834195602064383
:404A8000CB0D6402701E8641D20D164349021C430E43E0012FD50127049D374073083E1CE00701351E4304950643640823E0231C2B430320002B00D039E700240025022011
:404AC00035E70C22032391460393E6E6042600230120B1469A4600260390DEE600240025012024E703985446022844D0032800D1EAE0012860D0049A37495018002800DCBA
:404B000095E00F273740042F05D0311DB142B641754264190E1CE10105D53048049A8023DF000440D0192E49884224DC019B6507F6086402420501272E43240B520D1F40BA
:404B400000200021090D0D052543264C12052C4014436300301C5E08FF07311C394307B03CBC90469946A246AB46F0BD5A462E1C01920228BAD1019E01273740134A002459
:404B80000026DDE7544601970398ADE701260027154C76420D4AD3E72E1CA5E7802213035146194235D10B431D032C0B074AC7E780214B029B44DBE6019B00221840C7B2EB
:404BC00000240026BCE7C0460DFCFFFFFF07000001FCFFFFD47A0000FF030000FFFFFFFEFE070000FFFF0F80FFFF0F00041C283CA5402C1C002570E600F0F2FC203060E630
:404C0000283B9E40B24600262DE600F0E9FC203019E61C4206D11C432603340B5F462E1C2E4A8DE70B431803040B2C4A88E72C4F049D7B1B382B06DD019E01273740002252
:404C4000002400267CE71F2B21DC049A254F351CD119201C8E40DD408840321C2843561EB241061C1643DC400F233340042B05D0371DB742B641714264183E1C250217D5C4
:404C8000019B01271F4001220024002658E71648049A211C871AF9400D1C202B12D0134BD01884402643721E96412E430024DBE7019A6507F6086002012717402E43040B25
:404CC00000223DE70024EDE780210F033C43019824030127240B0740004A31E7FF07000002FCFFFF1E040000E2FBFFFF3E040000F0B557464E464546E0B4071C0D034E00CD
:404D0000680ACC0F790F08438446111C18035A00FD00400ADF0F4B0F1843CA4BC900760D520D8A469A4200D1E0E001235F40B946BC4200D1A8E0B71A002F00DC10E1002AF0
:404D400012D15246024300D1D4E0013F002F00D060E151466F1ABD42AD4162466B42101A3D1CC31A371C24E0B64A964200D1E3E080210B041843382F00DD23E11F2F00DD6B
:404D800066E12021C91B021C53468A40FB401A4353468B40191C4B1E9941031C0A43FB40AA1A67469542AD41F81A6B42C31A151C371C1A0200D4C7E05E02710A88464246CD
:404DC000002A00D1F0E0404600F00AFC021C083A1F2A00DDF1E02823181A2E1C4146C6409140331C0B439540974200DDA9E0D01B411C1F2900DD12E11F273A1A2E1C181CC7
:404E0000CE409040954030436A1E9541CB400543012100270F262E40042E00D172E02E1DAE42AD41684280221B180125100418402C40002807D0834FB94200D1B0E0824ABB
:404E40000F1C13400131F20849055E073243DB08480D012800DC79E01B0378051E0B470D00200021090D7D050B05784F1E43101C37406A0817437E007108E40721431CBC14
:404E800090469946A246F0BDB31A002B00DCA6E0002A3ED06B4A96424ED080210F043843382B00DC18E15346184300270022002800D001225219AA42AD4167446B42FB18FC
:404EC000151C371C1E023FD55E487E1C864200D17BE15D4901222A400B406808151CD90705430D435B08B91C371C93E7014300D11BE71CE7711C371C0F2663462E40042EB1
:404F000000D08CE7802201261004344018402E1C8FE752460243EDD0013B002B09D157467919A9429241554260444319371C0D1CC8E744498E42B3D1802063460101371CBC
:404F400068E7BF1A404A1340791C63E7151C1D4300D121E2002F3ED0802631030B437BE7002F00D086E0721C51054B0D012B00DCF0E05746EA1B95429B416746391A5B42B6
:404F8000C91A88460B0200D49DE05446651BAA459241C01B5742C31B9846371C4C460EE70F1C002600225BE7281C00F019FB2030021C083A1F2A00DC0DE7283885402B1CCA
:404FC000002511E75746384300230022002800D1E6E60122E4E61D032E0B002740E7002B00D0D9E0771C79054A0D012A00DC95E0144B9F4200D1FEE051464919A942AD4185
:4050000062466B428018C2184908D5070D435308B11CFFE60B498E4200D0ACE68CE7061C1F3E1F1CF7403E1C202973D03F22101A83401D436B1E9D41354301210023002756
:40504000E8E6C046FF070000FFFF7FFFFFFF0F803B1C203B011CD9400B1C202F5CD04022D71BB840021C50460243511E8A411A43002395E67F42002E40D0CA4CA24200D17F
:405080001FE1802166460B041E43B446382F00DDA9E01F2F00DD3DE12023DE1B291C6446B440F940B5406B1E9D41214363460D43FB4057467D1BC01AAA459B415F42C31B7E
:4050C0004C46171C75E60D1C154320D100240121002304260027B6E61F2B4ADC2021C91A071C52468F40DA403A4357468F40391C4F1EB941D8400A43071CDBE664462C4389
:4051000069D1511C031C5546171C4C4682E6151C371C54E600238CE70022A4E767462F43002E00D0D4E0002F00D126E15346034300D1E4E051464F19AF42AD4160446E4262
:4051400083191E0200D44EE197483D1C0340022101275FE661462943002E29D1002976D151460143B2D0031C55464C460121002750E61F1C203F011CF9400F1C202B00D15B
:40518000C6E04022D31A9840021C50460243531E9A413A4300278DE65B42002E30D167462F4300D0C8E0511C031C5546171C31E6002965D15746074300D1C8E0031C802074
:4051C00055464C460101774F24E68023371C19010426002337E6013F002F6ED154466146651B401A68E767463D430023002D00D15FE701255DE7802631010023042622E6F3
:4052000068498A4200D1C1E08027664639040E43B446382B00DDA2E01F2B00DDD0E02021C91A2E1C67468F408D40DE403E43291C67464D1EA941DF40351C0D433E1C5544BB
:4052400055459B4130185E428319171C3AE65646064354D05746EA1B63469542B641191A7342CB1A1E0200D4A2E07D1B6446AA45BF41001B7A42831A4C4601210027C9E54E
:40528000564606433FD0624680215707ED08D3080A033D43134208D0C608164205D15546EC0845072543331C4C46680FDB0080260343ED0031013B4FACE53A498A4200D012
:4052C000E4E68026031C55464C463101171CA1E5002F4CD05346034315D062468026ED085107D30837030D433B42DED0C2083A42DBD15546E9084507131C0D43D5E763461F
:405300000121002786E5802739016346254F81E500223AE73C1C203C6646E640331C202F5FD04024E71B6646BE40311C0D43691E8D411D430023BCE6013B002B22D15544A5
:405340005545BF417B426044C318171CBAE58021042200240901154B5642124F73E563461D430026002D00D169E7012567E78022031C554611010B4F4CE5031C5546012119
:40538000002747E507498A4200D042E78021031C55460901171C3DE57F057F0D002600225EE5C046FF070000FFFF7FFFFFFF7F001D1C154300D189E6151C0121002729E5D2
:4053C0001F1C203F6146F940202B10D04026F31A67469F403B1C1D436B1E9D410D4300262DE70021A2E73D1C0121002712E50023F1E7C046410070B50E0E731C4202C50FF4
:40540000D8B2540A012815DD6307E024A000120B341800200021181C0B0D1E051C4B324361054C08134023435A005608ED07311C294370BD002E16D1002C1ED0201C00F006
:40544000CFF80A281DDC0B22111A021C231C1532CB4094401E1C231C34030E4E220B301A41054C0DD5E7002C03D06307120B0A4CCFE7094C00220023CBE70024002200233A
:40548000C7E7011C0B398C40261C0023E4E7C046FFFF0F8089030000FF070000F0B5041C4800400D0A03CD0F411C630F520A4F051A43E6007B0D012B3BDD42494318FE2BDC
:4054C0002CDC002B4EDDA401770FD200611E8C413D4E224380193A430F261640042E47D18027FC0414401DD0FF2838D0374B1A40031C0130C6B2D208012E17DC002A06D073
:40550000002B29D08027FC03224351024A0ADBB2DB051A43ED07101C2843F0BD802148000422FF23C6B2D208012EE7DD51024A0AEDE7002806D132430120002A15D10422D7
:405540000023EFE71643E9D08024A004D20080260243FF237000BFE75002420AD8E7FF230022D5E7173305DA012005220023D9E70432B5E78023164F19040A433C1A1F2C4D
:405580000DDC1449331C4718BE40301C461EB041BA40E34002431A43012000239CE70E4B171C191ACF403B1C202C09D00B4C001982403243561EB2411A43012000238BE767
:4055C0000022F6E780FCFFFF81FCFFFFFFFFFFFB9E03000082FCFFFF7E030000A2FCFFFF1C2101231B04984201D3000C10391B0A984201D3000A08391B09984201D3000909
:40560000043902A2105C40187047C04604030202010101010000000000000000014B18687047C0464801002070B50E4B0E4D0024E81A85101E1CAC4204D0A1007258904735
:405640000134F8E702F014FB0849094A0E1C541AA5100024AC4204D0A300F05880470134F8E770BD7C7C00007C7C00007C7C0000847C000010B50023934203D0CC5CC45493
:405680000133F9E710BD00B58218031C934202D019700133FAE700BD0EB400B59CB01DAB02A904CB822202900861920009488A810122886048615042074AC88110681D9AF8
:4056C000019300F063F8029900230B701CB008BC03B01847FFFFFF7F48010020F7B501919168071C141C002940D190239289D80002423BD02568216963696E1A58000096F9
:40570000C6180098F50FAB1901305D10A84201DB009D0235381C53050FD5291C01F06EFC061E13D02169009AFFF7A4FFA7891649802239401143A18111E02A1C01F0A4FF14
:40574000061E0CD1381C216901F002FC0C203860A58940263543A5810124604213E0009B6561F018ED1A26612060A560A668002E08DD694627680A793A70A3680137013B24
:405780002760A3600020FEBD7FFBFFFFF0B5A1B0049007938B890E1C171C19060FD53269002A0CD1402101F029FC30603061002803D1049C0C262660D6E04020706108AD4A
:4057C00000212024302369616C76AB763C1C2278002A04D1E01B069019D003970FE0252AF8D00134F3E70399321C09780498FFF775FF039A01320392013000D1AFE0039907
:405800000698CB1B8342EEDB0D9F3A180D922178002900D1A3E001206A4600234742633201342B60EB606F60AB601370AB65504F2178381C052201F02BFC002807D0C71B6D
:405840002B680120B840184328600134EFE72B68D90603D568462021633001701A0703D56A462B276332177021782A2901D00B9B0EE0079A1068111D0791002801DB0B906B
:4058800004E0022247421343EF602B60013409E020783038092804D80A277B4301341B18F6E70B9323782E2B18D161782A2909D1079B02341A68191D0791002A0DDA0120ED
:4058C00042420AE00134002220783038092804D80A277A4301341218F6E70992254F2178381C032201F0D4FB002806D02B68C21B4021914019432960013421781E480622EA
:405900002976671C01F0C4FB002817D01B4800280BD12868079C0723C10501D5E41800E007349C430834079414E007AA00920498291C321C124B00F0CBF807E007AC0094B5
:405940000498291C321C0E4B00F096FB059005994A1C04D00D99059A8C180D9436E7B589690601D40D9801E00127784221B0F0BD167B00001C7B0000207B0000D15A0000B4
:40598000DD56000000000000F0B58BB0171C1D1C1299149C04D580263306ED182D2200E000220A70662C0BD0462C09D0652C02D00222452C05D1109902220131109100E07F
:4059C0000322109E139B009208A909AA01960293049203913A1C2B1C00F0FEFC061C672C01D0472C02D11198C2072DD5109BF1180791662C01D0462C14D13478302C0CD128
:405A0000381C291C154B144AFCF7A8FF002804D1109A01201399831A0B60139C079A206813180793381C291C0C4B0B4AFCF796FF002801D0079F0997099F079DAF4203D23E
:405A400030223A700137F6E7099915988C1B0460301C0BB0F0BDC0460000000000000000F0B5831C027085B0061C0C1C2B22002901DA4C422D2272701D1C092C1DDD6F469F
:405A80000E37201C0A210197FCF74CFF30313970201C0A21FCF7F0FE013F041E092CF0DC019B3034013B1C7069460F318B4209D21A7801332A700135F6E7302024181870C9
:405AC0005C709D1CA81B05B0F0BD000000000000F0B593B00C1C0A920B93189D071C01F07FFA00680C9001F007FE002321680D901093267E28680722C90501D5801800E011
:405B000007309043031C08332B6041680068A064E164A06CE16CFCF7FDFC01281BD1A06CE16CB04BAE4AFCF71FFF002803D0211C43312D220A70472E02D8AB48099001E034
:405B4000AA4B09932168042203259143002025612160089090E0A06CE16CFCF7DBFC256800280ED1472E02D8A149099101E0A14A09920420854303232560002523610895EC
:405B80007AE06268511C01D1062106E0672E01D0472E03D1002A01D1012161608023D80005432560626801956D460FA910AB00203B35039106900092029504960593381CB0
:405BC000A26CE36CFFF7E0FE0F990990672E01D0472E06D1CB1C02DB626891422DDD023EF6B2652E12D8201C01395030321C0F91FFF736FF109B0890C0182061012B02DCFC
:405C00002268D3072FD5013020612CE0662E15D16568002908DD2161002D02D12268D2071DD50135491911E0002D03D123680120034200D0A81C206111E06726109DA9426C
:405C400006DB22682161D20709D50131216106E00120002901DC0223581A291821610F990025A165089569463B310D78002D03D0231C43332D2018700B9D381C0095211CFD
:405C800011AA0A9B00F088F9013002D1012460427CE1236859050ED4099E09992269701A904221DA3178381C0A9A0B9B984701360130F2D1EAE7652E00D8F6E0A06CE16C39
:405CC000484B474AFCF74AFE00282ED0381C30210A9A0B9DA8470130D8D00F991098814207DB2268D30704D42568AB0700D54BE144E10C9E0D9BF518AE4208D03178381CAC
:405D00000A9A0B9B984701360130F5D1BEE70025109E013EB542E7DAA17E381C0A9A0B9B98470130B2D00135F2E70F9900293ADC381C30210A9A0B9B98470130A6D00F983C
:405D4000002805D1109A002A02D12668F307CBD50C9E0D9D7519AE4208D03178381C0A9A0B9B984701360130F5D18FE700260F994B429E4208DAA17E381C0A9A0B9DA84717
:405D8000013083D00136F2E7099D0998109A2E1A9642A9DA2978381C0A9A0B9B984701350130F2D172E7A06D109E864200DD061C002E02DC0020089029E0099D7219089200
:405DC0002978381C0A9A0B9B9847013000D15DE7089901358D42F3D1ECE7C046C046C0460000000000000000277B00002B7B00002F7B0000337B0000A17E381C0A9A0B9D91
:405E0000A847013000D141E7089901310891F243A56DD31708983340E91A8842ECDB0F9E109A96420EDB2368DA070BD4109B099E0F997619581A5D1B854200DD051C002D3D
:405E400010DC1DE00C9E0D9970180890089A9642ECD03178381C0A9A0B9B984701360130F4D113E7721909923178381C0A9A0B9B9847013000D109E7099901368E42F3D19B
:405E8000002608E0A17E381C0A9A0B9B9847013000D1FBE6013610980F9AEB43811AD81728400A1A9642EDDB1EE7099E109A3178381C012A09DCDA0707D40A9A0B9DA8478F
:405EC000013000D1E2E6261C45E00A9A0B9B9847013000D1DAE60C9E0D997518AE4208D03178381C0A9A0B9B984701360130F5D1CCE6A06CE16C274B254AFCF72FFD00265C
:405F0000002818D1109A013A9642DCDA099A381C931959780A9A0B9DA847013000D1B5E60136EFE7A17E381C0A9A0B9DA847013000D1ABE60136109801388642F2DBC2E7ED
:405F4000301C503001780A9A381C0B9DA8470136013000D19AE60899331B8B42F0DBC3E6617E381C0A9A0B9DA847013000D18DE60136E3681199581A8642F1DB119FE06857
:405F8000B84203DA381C01E00026F2E713B0F0BD0000000000000000F7B5151C01930A698B6800900C1C934200DA131C201C2B6043300178002901D001332B602668B00649
:405FC00002D52F6802372F602268062616401CD0261C4336377822683E1C731E9E4192061CD5A319181C40303021271CC17045373A784133DA70023610E0617E0098019AE1
:40600000089FB847013006D00136E3682868191A8E42F2DBDCE7012040422CE00027B7420ADAE119433109780098019A089B98470130F0D00137F2E72B6825680621294005
:40604000E6680025042903D1F01AC743FD170540A2682669B24201DD931BED180027AF4208DAA17E0098019A089EB0470130D2D00137F4E70020FEBDF0B50D1C8BB04335F6
:4060800007930590069204950A7E0C1C109B6E2A00D1A8E012D8632A24D009D8002A00D1B1E0582A00D0C1E045310A707D4D51E0642A1FD0692A00D0B8E01BE0732A00D19D
:4060C000A5E009D86F2A2BD0702A00D0AEE00A68202616430E6038E0752A21D0782A00D0A4E032E018680E1C051D1D600368423633709EE026681F68300606D4750604D5B9
:40610000381D186000203D5E02E03D1D1D603D68644B002D3BDA04992D226D420A7036E027681E683D0605D4780603D5351D1D60358802E0311D196035685A4B207E03932B
:4061400008276F281ED00A271CE0271C45377820554D38701A682668111D03951960300603D4750601D5158800E01568F00702D520231E4326601027002D03D126682020F8
:4061800086432660261C43360022327001E003930A276168A160002903DB2068042398432060002D02D1049E00290ED0049E281C391CFCF757FB039A013E515C281C3170F7
:4061C000391CFCF70BFB051EF1D1049B9A1B2261082F33D12768F80730D5606890422DDC013262602AE008681E684969050606D4450604D5351D1D603368198003E0321D3F
:406200001A603768396000202061049E16E01E68311D19603668301C01F06EFA65682061A84200D925612369636004E0261C4236327001212161049F00223A70079905986D
:40624000009109AA211C069BFFF7A6FE01300CD0351C2269AB1B93420ADA29780598069A079FB84701350130F3D10122504217E02668B10705D4099BE068984210DA181C9D
:406280000EE00025E7680998391A8D42F3DA617E0598069A079EB0470130E6D00135F1E70BB0F0BD377B0000487B0000F0B50B690E1C016987B0051C0027994200DA85E01C
:4062C000321C5C1E033398001432291C019214313218039151682818131D013140680593FCF77CFA0090B8423CD0019A039B944602970497614604318C46043980C9009A18
:40630000B8B2504302990818390C009F020C794351180A0C1F680292049ABFB2BF181A6880B2381A89B2170C7A1A0714D2191114170480B2059A3843049101C39445D9D909
:40634000231D99006F1878683B1D00280AD1039A043B934201D82C6104E019680029FAD1013CF4E7281C311C01F0B4F800282CDB009E039B013600960020019F1A6840CF43
:4063800091B201970818B7B2C11B120C360C971B08143A181604101489B2019F059A0E4340C39742E9D9231D98002E187168331D00290AD1039F043BBB4201D82C6104E003
:4063C0001A68002AFAD1013CF4E7009F381C07B0F0BD000000000000F0B5446A9DB00990259D06920793002C08D1102000F0FCFD09994862446084600460C460099E736A8C
:40640000196800290AD058680122824048608A60301C00F081FE746A00212160079E002E05DA01208640C6402860079601E000232B60079FBE4D3A1C2A40AA4218D1BD48C8
:40644000249B069C1860002C01D13D0301D0BA4800E0BA48269E002E01D100F075FDC178C21C002900D00532269F3A6000F06CFD069C079DA54BA44A201C291CFCF76EFA2B
:4064800000280CD0249A269F01211160002F01D100F057FDAA483860013800F055FD1BA91AAE01962B1C00910998221C01F096F87B000B905E0D09D0201CA24C2903A24D80
:4064C0000B0B211C19437619002419E01A9C1B989E4D2618AE4208DB9D4B9E4D0698F418AA1BE0409740384304E09B4F0699BA1B9140081C01F098F9984A013E8918012488
:40650000834A844B1994FEF7F3FB834A834BFEF77DF9834A834BFDF7CFF9071C301C0C1C01F048F9804A814BFEF770F9021C0B1C381C211CFDF7C0F9071C0D1C01F006F956
:40654000724B714A0890291C381CFCF70DFA00280DD0089801F02EF9021C0B1C381C291CFCF7FCF9424242410898811A0891089C01231893162C11D8794DE700EA19106854
:406580005168069A079BFCF703FA002805D00898002101380890189100E018901A9B9E1B013E04D57442002704940C9702E000250C960495089A002A06DB0C9F1592BD187C
:4065C00000220C950F9207E00499089800240B1A464204930F9615942299092929D822980124052802DD04382290002422980238032828D801F0A0F80811020501271497D7
:4066000004E0012214920AE000261496239D002D22DD0E950A952B1C22E000231493239908980B180E9301330A93002B18DC012316E00124634200210E930A932291149404
:40664000122323910CE001267542002214960E950A951223239203E001230E930A932393099E0027756A04266F60301C14306968984203D8013169607600F6E7099800F0D9
:4066800013FD2860099D0A9B6A6A11680D910E2B00D980E1002C00D17DE1089E069C079D16941795002E5FDD0F23341C1C402C49E0000A1814685568109411953411294FFD
:4066C0000225E10617D51C40169817993A6A7B6AFDF7A2FC0325069007910CE0E20708D5109811993A687B68FEF790F810901191013564100837002CF0D106980799109A6F
:40670000119BFDF789FC4DE00000000000000000000000000000F83F61436F63A787D23FB3C8608B288AC63FFB799F501344D33F0000F07F0F270000627B0000597B0000DC
:40674000677B00000000F03F01FCFFFFEFFBFFFF120400000EFCFFFFEEFBFFFF000010FE707B0000487C0000089F02257C42002C1AD00F202040CC4AC10053181A685B68AB
:4067800016981799FEF742F8C84F2611002E09D0F20704D53A687B680135FEF737F876100837F3E706900791189F002F1ED0069E079FB44BB24A301C391CFCF7D5F80028D7
:4067C00014D00A9B002B11D00E98002800DCDEE00899301C01391091AB4AAC4B391CFEF715F80135069007910E9E02E0089E10960A9E281C00F0DEFF069A079BFEF706F865
:40680000A34AA44BFDF758F8A94A041C8F183D1C002E1AD1A04AA14B06980799FEF768FA221C3B1C06900791FCF7B2F8002800D054E2221C80242506069807997B19FCF741
:4068400093F8002800D040E2A1E0974B711E1498CA009F1800284AD03A687B6890489149FDF7DAFB221C2B1CFEF742FA069C079D129013910D9F291C201C00F067FF0690B7
:4068800000F098FF021C0B1C201C291CFEF730FA069B041C30333B70129A139B0D1C0137FCF762F8002800D03AE3221C2B1C75497348FEF71DFA129A139BFCF755F80028B4
:4068C00000D0C8E00D99781AB04260DA129813996D4A6E4BFDF79AFF6B4A6C4B12901391201C291CFDF792FF041C0D1CC3E72B1C38687968221CFDF789FF069C079D0D9B4E
:40690000129013919E1906961F1C291C201C00F01DFF061C00F04EFF021C0B1C201C291CFEF7E6F930360D1C06993E700137041C8F4223D15A4A5B4B12981399FCF7BCFFB6
:40694000021C0B1C201C291CFCF722F8002800D081E0129A139B52485249FEF7C9F9021C0B1C201C291CFBF7FFFF00280FD0781E0278302A00D0D3E2071CF8E7201C291C76
:40698000414A424BFDF742FF041C0D1CBDE7169B179C069307941B99002900DA98E008980E2800DD94E0404EC500239A77193868796804900591002A12DA0A9B002B0FDC93
:4069C00000D084E1344A354BFDF720FF069A079BFBF7E8FF0A9D2E1C002800D079E180E10D9F069C079D049A059B201C291CFDF713FB00F0ABFE061C00F0DCFE049A059B1C
:406A0000FDF704FF021C0B1C201C291CFEF770F9021C301C30300B1C0A9C0D99387001377D1A101CA54245D1191CFCF745FF049A059B041C0D1CFBF7ABFF00280FD1201C8B
:406A4000291C049A059BFBF789FF002800D169E2F00704D466E2109E089600E01F1C7B1E1A78392A08D10D9EB342F7D108980D9C01303021089021701D7801351D7051E209
:406A8000000000000000F03F00000000000024400000000000001C400000000000001440000000000000E03F707B0000487C00000000C0FC191CBD4BBB4AFDF7A7FEBC4A28
:406AC000BC4B041C0D1CFBF749FF00288BD029E2149E002E31D0229A012A0BDC199D002D02D0B5480F1802E01A9936235F1A0F9D049C16E00A9F0F9C013FBC4201DBE51BDF
:406B000006E00F9B1598F91A461815960F9700250A9A002A03DA049C0027A41A01E0049C0A9F049E0C9BF2190998DF19012104920C9700F091FB061C02E00F9D049C149E11
:406B4000002C0CD00C9A002A09DDA24200DD221C04990C9B881A9F1A0490A41A0C970F9A002A21DD1499002918D0002D10DD311C2A1C099800F00AFC061C311C0B9A09983C
:406B800000F073FB0B99071C099800F0C5FA0B970F98421B08D009980B9902E009980B990F9A00F0F3FB0B900998012100F054FB159B051C002B05DD291C0998159A00F0EF
:406BC000E5FB051C229A0027012A10DC0699B9420DD1079B1803B84209D1784A134206D0049F0C990137013104970C910127159B0120002B08D0286903308200A918486807
:406C000000F0E1FA2023181A0C991F22401810400DD020231A1A042A06DD1C22049B101A1A180492241808E0042A08D0101C04991C300B180C990493241808180C90049A1E
:406C4000002A04DD09980B9900F0F2FB0B900C9B002B05DD291C09981A1C00F0E9FB051C189900291BD00B98291C00F033FC002815DA089A0023013A089209980B990A2299
:406C800000F063FA149B0B900E980A90002B06D0311C09980A22002300F057FA061C0A9A002A29DC2299022926DD002A11D1291C099805220A9B00F048FA051C291C0B98A7
:406CC00000F008FC00280CDC03E0351C00E000252E1C23980D9FC14308910AE0109F351C08970D9B089A31271F7001321F1C0137089200240494FFE01498002801D10D9F22
:406D0000B6E0002C05DD311C0998221C00F090FB061C301C002F11D07168099800F0C4F93269311C0232041C0C3192000C30FEF7A1FC0998211C012200F07AFB0D9F0496DE
:406D4000061C291C0B98FFF7B1FA04990E90041C0B9800F0BFFB291C0F90321C099800F0D5FBC1681490012030340C90002904D10B98149900F0AEFB0C900998149900F07E
:406D8000CBF90C9B229A13431AD106990120084216D1392C3ED00F98002832DD0E9C31342FE0C046C046C04600000000000024400000000000000000330400000000F07FEF
:406DC0000F9B002B06DB229A13431DD106990120084219D10C990694002912DD0B990998012200F025FB291C0B9000F073FB002802DC06D1E30704D50E9C069B3134392B28
:406E000008D03C70013777E00C9A7B1C002A09DD392C03D139243C70013756E001343C701F1C69E00D983C70191A1F1C0A9B99423BD009980B990A22002300F086F9049CF0
:406E40000B900998B44206D1211C0A22002300F07CF9049074E704990A22002300F075F9311C04900A220998002300F06EF967E7291C0B98FFF71AFA041C30340D9B0A99A8
:406E80003C700137FA1A8A4207DA09980B990A22002300F05AF90B90EAE70A98002800DC01200D9F00233F1804930B990998012200F0BEFA291C0B9000F00CFB002804DC77
:406EC00014D1E00701D411E00F1C791E0A78392A09D10D9B9942F7D108980D9C013031210890217008E001320A7005E0781E0278302A01D1071CF9E70998291C00F00CF9AB
:406F0000002E0FD0049D002D05D0B54203D00998291C00F001F90998311C00F0FDF801E0109A089209980B9900F0F6F8089B249A2698002601333E701360002803D00760F0
:406F400001E0024800E00D981DB0F0BD667B000030B5002940D004390B68002B00DAC9181E4A1368141C002B02D14B60116033E099420FD20D684A199A4205D110682B1811
:406F800055680B604D6000E04B60216024E08A4203D8131C5A68002AF9D11D685C198C420BD10C682D1958191D60904214D1116852686C181C605A600EE08C4202D90C21AC
:406FC000016009E008680D18954203D114685268001908604A60596030BDC046BC010020004870474C01002008B5034B011C186800F004F808BDC0464801002070B503239E
:40700000CD1C9D430835061C0C2D01D20C2501E0002D2DDB8D422BD31C4A1368111C1C1C002C12D02068421B0CD40B2A02D92260A41815E0A34202D166680E601CE06568EF
:407040005D6019E0231C6468EAE7301C291C00F041FB421C0CD0C41C03218C43844201D1256009E0211A301C00F034FB0130F7D10C243460002008E0201C0B300722211D65
:407080009043431A01D05D42E55070BDBC01002000B5C9B28218904204D003788B4202D00130F8E7002000BD70B5456A041C0E1C002D07D11020FFF797FF6062456085604F
:4070C0000560C560656AEB68002B09D0656AB200EB689918086800280ED004680C6017E00421201C212200F00EFBE860606AC1680029EBD100200EE001210D1CB540681D86
:407100008200201C00F0FFFA0028F3D04660856000260661C66070BD70B5446A061C0D1C002C07D11020FFF75FFF7062446084600460C460002D07D0726A6968D0688B0056
:40714000C61834682C60356070BDF7B50C1C1E1C0D69071C143100230868013380B2504386190868B446000C5043360C3018060C00040190604680B284460198844460464D
:4071800001C1AB42E8DB002E1BD0A1688D4212DB6168381C0131FFF787FF2269211C023201900C3192000C30FEF764FA211C381CFFF7B2FF019C2F1DBB00E0180135466019
:4071C0002561201CFEBD031C020C002000B5824201D11B041020190E01D108301B021A0F01D104301B01990F01D102309B00002B03DB01305A0000D4202000BD0368021C5D
:40720000072000B518400CD0012100200B4222D10220034203D0CB401360081C1BE09B0816E099B2002901D11B0C1020D9B2002901D108301B0A190701D104301B099907E2
