:400000000010002011000000850D0000850D000080B500AF00F0BAFE80B584B000AF021CFB1D1A70224A3B1C0B3312781A70214A3B1C0A3312781A701F4B1B68013BFB604B
:400040001AE01E4B1868391C0B31FA68131C5B009B18C31801331B780B70184B1868391C0A31FA68131C5B009B18C31802331B780B70FB68013BFB60FB68002B0ADB0F4B59
:400080001968FA68131C5B009B185B5CFA1D12789A42D6D90A4B3A1C0B3212781A60094B3A1C0A3212781A60BD4604B080BDC046CCF1FF0FCDF1FF0F586C0000CC00002026
:4000C0001CFF0B4020FF0B4080B500AF194B194A12688021C9020A431A601820FFF79CFF154B19221A60052001F0EEFA134B144A1278D2B21A60052001F0CAFB0D4B0D4A2E
:400100001168104A0A401A600F4B20221A600F4B10221A600E4B802212061A600D4B802212061A600C4B0D4A1A600D4B0D4A1A60BD4680BD00010B402CFF0B4028FF0B402E
:40014000E5F1FF0FFFFFFBFF080202400C02024008010B4004010B40000002400E000080400002406700008080B582B000AF72B6FB1D00221A7023E0FB1D1A78131C5B00F1
:400180009B185B002F4A9B183B603B681A78597809020A43997809040A43DB781B0613431A1C3B6819795B791B020B439BB2101C191C00F06FFEFB1DFA1D127801321A70AC
:4001C000FB1D1B78012BD7D91F4BEE2212041A601E4BEE2212021A601D4B99221A601D4B30221A601C4B902292021A601B4BD82212011A601A4B02221A601A4B31221A604D
:40020000194B02221A60194B992212041A60184B992212041A60174B164A1278D2B202210A43D2B21A70134B124A1278D2B206210A43D2B21A70FFF747FF00F03BFEBD465F
:4002400002B080BD4C6C0000000001400C0001401000014000000440080004400803044000040440080404401804044000500F4030500F4000700F4010B5064C2378002B17
:4002800007D10548002802D0044800E000BF0121217010BD8001002000000000CC6A000008B5084B002B03D00748084900E000BF07480168002903D0064A002A00D09047BB
:4002C00008BDC04600000000CC6A000084010020C800002000000000F0B54F464646C0B497B00AAF00F000FE01F026F962B600F05BFC00F063FC00F071FC031C002B01D012
:40030000064B00E0064B181C01F080F9054B181C01F07CF9044B00221A60B4E0D06A0000F06A0000106B00009C010020F04B1B68F049F14A081C111C1A1C02F07DFFED4B09
:40034000181C01F063F9ED48ED49EE4AEE4BEF4C0094EF4C0194EF4C029400F077FCE74B1B881BB2181C02F0EBFA021CEA4B1B68101C191C01F0DAFD031C1A1CE64B1A60A1
:40038000DF4B1B881BB2181C02F0DAFA021CE34B1B68101C191C01F0C9FD031C1A1CDF4B1A60D84B1B881BB2181C02F0C9FA021CDB4B1B68101C191C01F0B8FD031C1A1C2A
:4003C000D74B1A60D04B1B881BB2181C02F0B8FA021CD44B1B68101C191C01F0A7FD031C1A1CD04B1A60C94B1B881BB2181C02F0A7FA021CCC4B1B68101C191C01F096FD76
:40040000031C1A1CC84B1A60C14B1B881BB2181C02F096FA021CC54B1B68101C191C01F085FD031C1A1CC14B1A60B44B1B881AB2B34B1B8818B2F860B24909880BB29C46EC
:40044000B14909880EB2B14909880DB2B04909880CB2A848B64963460093019602950394FB6802F0E9FEA34B181C01F0CFF8B14B181C01F0CBF8192001F0E6F99C4B1B6842
:400480005A1C9B4B1A609A4B1B68632B00DC4DE7A14B1B68181CA84901F01EFF031C1A1C9D4B1A609D4B1B68181CA34901F014FF031C1A1C994B1A60994B1B68181C9E4943
:4004C00001F00AFF031C1A1C954B1A60954B1B68181C994901F000FF031C1A1C914B1A60914B1B68181C944901F0F6FE031C1A1C8D4B1A608D4B1B68181C8F4901F0ECFE01
:40050000031C1A1C894B1A608C4B181C01F07EF8814B1B68181C02F0F3F9051C7F4B1B68181C02F0EDF9041C7D4B1B68181C02F0E7F981467B4B1B68181C02F0E1F9804684
:40054000794B1B68181C02F0DBF9061C774B1B68181C02F0D5F9011C664A794B484600904046019002960391101C191C2A1C231C02F062FE5F4B181C01F048F8714B181CB6
:4005800001F044F85D485E495E4A5F4B5F4C00945F4C01945F4C029400F058FB574B1B881BB2181C02F0CCF9021C5B4B1B68101C191C01F0CBFF031C181C8D21C90501F04D
:4005C0008BFE031C1A1C604B1A604D4B1B881BB2181C02F0B5F9021C504B1B68101C191C01F0B4FF031C181C8D21C90501F074FE031C1A1C554B1A60424B1B881BB2181C09
:4006000002F09EF9041C464B1B68181C8D21C90501F09CFF031C201C191C01F097FF031C181C8D21C90501F057FE031C1A1C484B1A60354B1B881BB2181C02F081F9021C85
:40064000384B1B68101C191C01F080FF031C181C02F0A6FC031C0C1C181C211C234B224A02F0C2F9031C0C1C181C211C02F0ECFC021C384B1A60254B1B881BB2181C02F0CA
:400680005FF9021C284B1B68101C191C01F05EFF031C181C02F084FC031C0C1C181C211C124B114A02F0A0F9031C0C1C181C211C02F0CAFC021C284B1A60154B1B881BB214
:4006C000181C02F03DF9021C184B1B68101C191C01F03CFF031C181C02F062FC031C0C1C181C211C3AE0C0460AD7A3703D6260409C01002008020020406B0000CC010020E0
:40070000B8010020E4020020D801002004020020C0010020F8010020D0020020F4010020BC010020D001002000020020E0020020546B0000846B00000000C842886B00001D
:40074000BC6B0000FC6B0000DC020020C8010020FC010020D8020020C40100202F4B2E4A02F042F9031C0C1C181C211C02F06CFC021C2B4B1A602B4B1B68181C02F010FC9E
:40078000041C0D1C284B1B68181C02F009FCB862F962264B1B68181C02F002FC38627962234B1B68181C02F0FBFBB861F961214B1B68181C02F0F4FB38617961184B1B68F0
:4007C000181C02F0EDFB386079601B481B49BA6AFB6A009201933A6A7B6A02920393BA69FB69049205933A697B69069207933A687B6808920993221C2B1C02F01DFD0E4B3E
:40080000181C00F003FFFA235B00181C01F01CF8B4E6C046C046C0460AD7A3703D626040D4010020DC020020C8010020FC010020D8020020C4010020080200201C6C000078
:4008400080B584B000AF3B60FB1D1870BB1D19707B1D1A703B1C0F3300221A70FB1D1B78181C002100F0D2FBBB1D1B78181C00F037FDFB1D1B78181C012100F04FFC09E0B8
:40088000002000F093FD031CDAB23B681A703B6801333B603B1C0F3319787B1D1B785A1E0123914200DB0023DBB23A1C0F32391C0F31097801311170002BE1D1012000F0B1
:4008C00075FD031CDAB23B681A7000F0ABFCBD4604B080BD80B582B000AF3A60FB1D021C1A70BB1D0A1C1A70FB1D1978BB1D1A783B68081C111C0122FFF7A2FFBD4602B0B5
:4009000080BDC04690B585B000AF041C081C111C1A1CFB1D1C70BB1D18707B1D19703B1D1A703B1D1B780122111C99400B1C5A1E7B1D19783B1D1B78CB1A01339A403B1C8C
:400940000F331A70FB1D1978BB1D1A783B6A081C111C1A1CFFF7BEFF3B6A1B783A1C0F3212781340DAB23B6A1A703B6A1B781A1C7B1D19783B1D1B78CB1A0133111C194130
:400980000B1CDAB23B6A1A70BD4605B090BDC04680B584B000AF3B60FB1D1870BB1D19707B1D1A703B1C0F3300221A70FB1D1B78181C002100F02AFBBB1D1B78181C00F08B
:4009C0008FFC07E03B681B783A6801323A60181C00F086FC3A1C0F327B1D12781B789A429B415B42DBB23A1C0F32391C0F31097801311170002BE5D100F014FCBD4604B014
:400A000080BDC04680B582B000AFFB1D1870BB1D19707B1D1A70FB1D1978BB1D1A787B1D081C111C0122FFF7B3FFBD4602B080BD90B585B000AF041C081C111C1A1CFB1D99
:400A40001C70BB1D18707B1D19703B1D1A703B1D1B780122111C99400B1C5A1E7B1D19783B1D1B78CB1A01339A403B1C0F331A70FB1D1978BB1D1A783B1C0E33081C111CAE
:400A80001A1CFFF727FF3B1C20331A787B1D19783B1D1B78CB1A01339A403B1C20331A703B1C20333A1C2032391C0F31127809780A401A703B1C0F331B78DB43DBB23A1C7A
:400AC0000E321278D2B21340DBB2DAB23B1C0E331A703B1C0E331A783B1C20331B781343DAB23B1C0E331A703B1C0E331B78FA1D1178BA1D1278081C111C1A1CFFF782FF85
:400B0000BD4605B090BDC04690B585B000AF041C081C111C1A1CFB1D1C70BB1D18707B1D19703B1D1A70FB1D1978BB1D1A783B1C0F33081C111C1A1CFFF7CCFE3B1D1B78F5
:400B4000002B0ED07B1D1B780122111C99400B1CDAB23B1C0F331B78DBB21343DBB2DBB20FE07B1D1B780122111C99400B1CDBB2DB43DBB23A1C0F321278D2B21340DBB215
:400B8000DBB23A1C0F3213703B1C0F331B78FA1D1178BA1D1278081C111C1A1CFFF732FFBD4605B090BDC04680B500AF024B68221A70BD4680BDC046D402002080B500AF43
:400BC000012000F0B3F8002000F014F8002000F027F8002000F096F8BD4680BD80B500AF00F0BAF8031C343B5A425341DBB2181CBD4680BD80B584B002AF021CFB1D1A70F1
:400C0000064B1B78FA1D12780092181C1B2104220223FFF70DFFBD4602B080BDD402002080B584B002AF021CFB1D1A70064B1B78FA1D12780092181C1C2104220223FFF755
:400C4000F7FEBD4602B080BDD402002080B584B000AFF860B9607A603B60284B1A78284B101C3B210E22FFF7EBFD254B1B781B029AB2234B5B7813439AB2FB681A80204BD4
:400C80009B781B029AB21E4BDB7813439AB2BB681A801B4B1B791B029AB2194B5B7913439AB27B681A80164B9B791B029AB2144BDB7913439AB23B6A1A80114B1B7A1B0263
:400CC0009AB20F4B5B7A13439AB23B681A800C4B9B7A1B029AB20A4BDB7A13439AB2BB691A80074B1B7B1B029AB2054B5B7B13439AB2FB691A80BD4604B080BDD4020020BA
:400D0000DC01002080B582B000AF021CFB1D1A70054B1A78FB1D1B78101C6B210622FFF7F3FEBD4602B080BDD402002080B584B002AF021CFB1D1A70064B1B78FA1D127845
:400D40000092181C6B2102220323FFF771FEBD4602B080BDD402002080B582B002AF074B1B78074A0092181C752106220623FFF7C9FD034B1B78181CBD4680BDD402002088
:400D8000DC01002080B500AFFEE7C04680B586B000AF254B7B61254B3B61234B7B61234B3B6132E03B691B68FB603B695B68BB603B699B683B6000237B600CE0FB681A687A
:400DC000BB681A60BB680433BB60FB680433FB607B6804337B607A683B689A42EED13B69DB683B6000237B6008E0BB6800221A60BB680433BB607B6804337B607A683B68C1
:400E00009A42F2D13B6910333B617B695A1E9341DBB27A69013A7A61002BC3D102F0D4F9FFF75AFAFEE7C046010000009C6E000080B582B000AF00237B600FE07B68032B08
:400E400004D8104B7A689200D35800E00E4B0F4A796889008B507B6801337B607B682F2BECD9FFF781F90A4B00221A608023DB058022D205126801210A431A60BD4602B05C
:400E800080BDC04600000000850D000000000020C000002080B582B000AF786039607A683B68101C00211A1C02F0BDF9BD4602B080BDC04680B500AFBD4680BD80B500AF26
:400EC00000F02CF8BD4680BD80B500AF054B054A1268802109060A431A6000F017F8BD4680BDC0460000074080B500AF064B1B78002B04D1FFF7E2FF034B01221A70FFF70E
:400F0000E3FFBD4680BDC046A001002080B500AF0B2000F063FCBD4680BDC04680B500AF234B00221A60234B234A1A60234B234A12680C210A431A60214B224A1A60224BD9
:400F400000221A60214B00221A60214B214A1A60214B00221A600B2000F056FC0B20032100F0E8FB1D4B0B20191C00F0BDFB1C4B00221A601B4B00221A601B4B00221A606E
:400F80001A4B1B4A1A601B4B00221A601A4B00221A601A4B10221A70194B00221A80194B00221A60184B00221A60BD4680BDC04600000740600007407708008070000740C0
:400FC00000030740070300800403074010030740000207400701008004020740B9180000C80E0740880E0740480F0740080F074013010000C80F0740880F0740E602002078
:4010000004030020EC020020F802002080B584B000AF786039600023FB600423BB60374B1B78DBB2102B64D1354B1A680123134002D00823BB605CE00B2000F0E5FB7B685B
:401040005A00FF2313407B603B68002B03D12B4B24221A7006E0294B25221A707B68012213437B60274B7A681A60274B274A1A60274B02221A60C046234B1A68254B134088
:40108000FAD0214B1A680423134002D00023BB601CE01D4B1A680223134002D00223BB6014E0194B1A680123134007D0134B10221A700123BB600123FB6007E00F4B10220B
:4010C0001A7080235B00BB600123FB600E4B114A1A60FB68002B0CD00F4B0F4A1268520052081A600C4B0C4A1268802109060A431A60BB68181CBD4604B080BDE6020020F2
:401100006400074040020740000F07401703000068000740070100000000074080B584B000AF786039600023FB600423BB60364B1B78DAB220231340DBB2002B5ED07B68C5
:401140005A00FF2313407B603B68002B03D12E4B24221A7006E02C4B25221A707B68012213437B60294B2A4A1A6000F075F9C046284B1A6801231340FAD1274B7A681A60AA
:40118000C046224B1A68254B1340FAD01F4B1A680423134002D00023BB601CE01B4B1A680223134002D00223BB6014E0174B1A680123134007D0144B10221A700123BB6049
:4011C0000123FB6007E0104B10221A7080235B00BB600123FB600D4B104A1A60FB68002B0CD00F4B0E4A1268520052081A600C4B0B4A1268802109060A431A60BB68181CFE
:40120000BD4604B080BDC046E6020020000F0740170300006800074040020740070100000000074080B582B000AF00237B6004233B60254B1B78DAB220231340DBB2002B02
:401240003CD0224B224A116820220A4001D0182200E010221A60C0461E4B1A681E4B1340FAD01C4B1A681023134002D000233B600EE0184B1A680123134004D001233B609A
:4012800001237B6004E080235B003B6001237B60104B114A1A600C4B10221A707B68002B0CD00E4B0D4A1268520052081A600B4B0A4A1268802109060A431A603B68181CC4
:4012C000BD4602B080BDC046E60200206800074064000740000F0740110100000000074080B584B000AF78600023FB600423BB60294B1B78DAB220231340DBB2002B46D03E
:40130000264B7A681A60C046254B1A68254B1340FAD0234B1A680423134005D01E4B60221A700023BB601FE01D4B1A680223134005D0194B60221A700223BB6014E0184B2C
:401340001A680123134007D0134B10221A700123BB600123FB6007E00F4B10221A7080235B00BB600123FB600D4B0E4A1A60FB68002B0CD00C4B0C4A1268520052081A604F
:40138000094B094A1268802109060A431A60BB68181CBD4604B080BDE602002040020740000F0740070100000000074080B584B000AF786001235B42FB601F4B1B78DAB27F
:4013C00020231340DBB2002B30D0C0461B4B1A680423134004D11A4B1A681A4B1340F5D0164B1A680423134010D0174B1B68FB60124B04221A607B68002B03D1134B04221E
:401400001A6013E00C4B60221A700FE00C4B104A1A60104B0F4A1268520052081A600D4B0C4A1268802109060A431A60FB68181CBD4604B080BDC046E6020020C00F074020
:40144000000F0740010100004003074068000740170300000000074080B582B000AF264B1B687B60C04600F0EBF8031C002BFAD0002000F0F3F8214B204A1168204A0A40AA
:401480001A60204B1F4A1268520052081A607A682023134011D0002000F0E0F80A2000F0F7F9012000F0DAF8C04600F0FDF8031C002BFAD00A2000F0EBF9002000F0CEF83D
:4014C0000A2000F0E5F9104B01221A600D4B0D4A1268802109060A431A60084B074A1168074A0A40E02109030A431A60012000F0B5F8BD4602B080BD640007400000014034
:40150000FFFFF0FF000007406800074080B500AF00F028F8BD4680BD80B500AF054B054A1268802109060A431A6000F017F8BD4680BDC0460000064080B500AF064B1B78CD
:40154000002B04D1FFF7E2FF034B01221A70FFF7E3FFBD4680BDC046A801002080B500AFBD4680BD80B500AF174B184A1A60184B00221A60174B01221A60174B174A1A6031
:40158000174B07221A60174B00221A60164B01221A60164B114A1A60154B00221A60154B00221A60144B00221A60144B00221A60134B00221A60134B00221A60124B002293
:4015C0001A60BD4680BDC046000006400B000002400006404800064000030640070000800403064010030640440006400002064004020640880E0640C80E0640480F06409B
:40160000080F0640C80F0640880F064080B584B000AF78600023FB6009E07A68FB68D3181B78181C00F0BCFBFB680133FB607A68FB68D3181B78002BEFD1BD4604B080BDCA
:4016400080B500AF044B1A68202313405B09DBB2181CBD4680BDC0460400044080B584B000AF021CFB1D1A700E4B1B68DAB23B1C0F3310218A431A70FB1D1B781B01DAB2B8
:4016800010231340D9B23B1C0F333A1C0F3212780A431A70034B3A1C0F3212781A60BD4604B080BD0000044080B500AF044B1A68102313401B09DBB2181CBD4680BDC04601
:4016C00004000440000000000230800804D0C0460138FDD1C046C0467047EFF3108072B6704780F31088704780B584B000AF021C3960FB1D1A7080239B05FB60FB1D1B7877
:401700001F2B02D9002000F095F8FB1D1B7810339B00FA68D3181B68BB60FB1D1B7810339B00FA68D3183A681A60BB68181CBD4604B080BD90B587B000AF0A1CFB1D011CB0
:401740001970BB1D1A70BB1D1B78032B02D9002000F070F8FB1D1B781F2B02D9002000F069F8FB1D1A7803231340DB0006337B613C1C1334FFF7B1FF031C2370FB1D1B789C
:401780009B08DBB29B0014495B181B68FB607B690322111C99400B1CDA43FB681340FB60BB1D1A787B69111C99400B1CFA681343FB60FB1D1B789B08DBB29B00064A9B1845
:4017C000FA681A603B1C13331B78181CFFF789FFBD4607B090BDC04600E400E080B582B000AF021CFB1D1A70064BFA1D11781F220A400121081C9040021C1A60BD4602B0A5
:4018000080BDC04600E100E080B582B000AF021CFB1D1A70064BFA1D11781F220A400121081C9040021C1A60BD4602B080BDC04680E100E080B582B000AF021CFB1D1A7095
:4018400001BEBD4602B080BD80B582B000AF786008E00C4B1B68181CFFF736FF7B680A4A9B187B607A6880231B029A42F1D8074B1B687A685343181CFFF726FFBD4602B04B
:4018800080BDC046DC0000200080FFFFD400002080B582B000AF021CBB1D1A80BB1D1B88044A12785343181CFFF70EFFBD4602B080BDC046D800002080B582B000AF002388
:4018C0003B60C24B1B68002B02D0C04B1B689847BF4B1A680123134002D0BE4B00221A60BD4B1B78DAB220231340DBB2002B3CD0BA4B1A6880235B0013400AD0B84B1B8800
:401900009BB2C022920013439AB2B54B1A8001233B60B24B1A68012313400AD0B04B1B889BB29022920013439AB2AD4B1A8001233B603B68002B18D0A74B1B78DAB201230E
:401940001340DBB2002B01D0012300E00223A44A128892B291B21A1C0B1C13439BB29AB29F4B1A809C4B00221A709B4B1B78DAB220231340DBB2002B00D1AAE1974B1A68DD
:40198000102313401CD0974B10221A60924B1B78DAB201231340DBB2002B01D0012300E002238F4A128892B291B21A1C0B1C13439BB29AB28A4B1A80874B10221A70BEE120
:4019C000854B1B78DAB208231340DBB2002B29D0824B1A68022313400ED0824B02221A607F4B1B889BB28822920013439AB27C4B1A8001233B6015E0774B1B78DAB2012307
:401A00001340DBB2002B03D0734B25221A7009E0714B24221A70744B1B68002B02D0734B10221A606C4B1B78DAB204231340DBB2002B00D111E1684B1B78DAB20123134007
:401A4000DBB2002B5BD06A4B1A680823134033D0684B1A68684B19680F231940674B1B68CB18D31A7B607B68082B02D908237B601EE07B68002B1BD1614B614A1168614A8D
:401A80000A401A6008237B6001233B6010E05E4B1A685A4B1B68D2185C4B1B68DBB21370564B1B685A1C554B1A607B68013B7B607B68002BEBD11EE04D4B1A68042313402C
:401AC00019D0514B1A684D4B1B68D2184F4B1B68DBB21370494B1B685A1C484B1A60474B1A68444B1B689A4203D2494B04221A6001E001233B60474B474A1A60ADE0374BBC
:401B00001A680223134032D0364B02221A60434B1A68434B19680F231940414B186880231B02034001D0012300E00023CB18D21A3A4B1A60394B1A683A4B1A60284B1B88F0
:401B40009BB28422920013439AB2254B1A80364B354A1268802149020A431A60324B324A1168324A0A401A6001233B6075E0304B1A681023134065D013E0284B1A681A4B3C
:401B80001B689A4214D22B4B2B4A1168234A12688A181278D2B21A60204B1B685A1C1F4B1A601F4B1A680F231340082BE5D100E0C0461A4B1A680C4B1B689A4202D10B4B1D
:401BC00040221A601D4B1E4A1A6046E0A40100208C0E0740880E0740E60200200C0F074004030020000F0740F0020020880F0740CC0F07400003002008030740EC0200209A
:401C000060000740FFFEFFFF080300204003074068000740C00F0740ED0F0000E802002008020740F802002004020740FFFFFEFF8C0F074040020740FC020020800F074070
:401C4000F30700003F4B1A684023134005D03E4B1A683E4B1A6001233B603B68002B6ED03B4B3B4A11683B4A0A401A603A4B00221A603A4B00221A60394B1B78DAB2022323
:401C80001340DBB2002B19D0364B1B78DAB201231340DBB2002B01D0092300E00A23324A128892B291B21A1C0B1C13439BB29AB22D4B1A802B4B60221A7040E02B4B2C4ACE
:401CC000116820220A4001D0182200E010221A6035E0244B1B78DAB210231340DBB2002B2DD1244B234A1268520052081A601D4B10221A70164B164A11681F4A0A401A6062
:401D0000134B134A11681D4A0A401A60124B00221A60124B00221A60194B1A4A1A601A4B1A4A1A601A4B1B4A1A601B4B1B4A1A60104B104A1268802109060A431A60BD469B
:401D400002B080BD8C0F0740E8020020F802002060000740FFFEFFFFC80F0740880F0740F4020020E602002004030020680007406400074000000740FF5FFFFFFFFCFFFF95
:401D8000800F0740ED0F0000C00F0740F3070000400F0740FF0F0000000F07401703000080B582B000AF7860C046064B1A680F231340082BF9D0044B7A681A60BD4602B085
:401DC00080BDC0460802064040020640002934D00123002210B488422CD301242407A14204D2814202D209011B01F8E7E400A14204D2814202D249005B00F8E7884201D3CE
:401E0000401A1A434C08A04202D3001B5C0822438C08A04202D3001B9C082243CC08A04202D3001BDC082243002803D01B0901D00909E3E7101C10BC7047002801D000200A
:401E4000C04307B4024802A14018029003BDC046D90000000029F0D003B5FFF7B9FF0EBC4243891A1847C046002941D010B4041C4C40A44601230022002900D549420028FD
:401E800000D5404288422CD301242407A14204D2814202D209011B01F8E7E400A14204D2814202D249005B00F8E7884201D3401A1A434C08A04202D3001B5C0822438C08CE
:401EC000A04202D3001B9C082243CC08A04202D3001BDC082243002803D01B0901D00909E3E7101C6446002C00D5404210BC7047002806D003DB0020C043400801E08020A8
:401F0000000607B4024802A14018029003BDC046190000000029EBD003B5FFF7A7FF0EBC4243891A1847C0467047C046F8B5430242004F024C00C00F9B09120E061C9C4676
:401F4000240EC90FBF09884257D0151B002D00DC7EE0002C41D1002F64D0013D002D00D0ABE0DB1B141C061C590144D59A019509281C01F00BF905388540844200DD79E075
:401F8000001B1F242B1C411C221ACB4095401F1C2B1C5D1EAB413B43012500240F201840042800D004338021CF0401221F401640002F05D0FF2D5AD0B34C23402C1C013512
:401FC000EDB2DA08012D3BDD53025A0AE4B2E4052243F607101C3043F8BDFF2A2BD08021CC04274301231B2D49DD6746FB1A141C061C5901BAD4651CD0E7151B002D4FDDDE
:40200000002C13D0FF2A5AD08024E1040F4301231B2D00DCB0E06344141C590155D4651C061CBBE7551C141C061CB7E7002F7CD1551C141CB2E7802763467D00FF24ADE751
:40204000002AC3D0002C28D08020C1030A43BBE7002D47D1501CC3B2012B00DC96E06446E51B680158D53D1B0E1C141C80E7FF240022ACE7844B241A2B40651C8EE73E1C8F
:402080002021EE404D1BAF403B1C5F1EBB4133436746FB1A141C061CABE757027A0A96E7002D7FD1541CE1B2012953DDFF2C00D19BE0FB185B08951C70E7FF2A92D1061C97
:4020C000802063464500FF2468E7671CFF2F3CD06D4A01261E4013405B083343A51C061C3C1C5BE76842002A25D0FF2C70D08022D6041D1C3543AC4601261B2809DC6246F4
:402100002025C2402B1A60469840061C701E86411643BB1B0E1C27E7141C002D00D027E700260125042300244AE7013D002D08D1FB18141C71E7002B50D1651C3B1C0E1C87
:402140002CE7FF2A00D062E7B9E780235D00FF24042335E7002A7CD1002B00D1A1E0002F00D1AFE0FB18590100D4B0E0464E022533400124061C11E73C1C2023EC405D1B04
:40218000AF403B1C5F1EBB41234344E7002A12D16546002D41D1002FC2D03B1C0E1C01250024FBE66D42002A23D1002B66D1651C3B1C061CF2E66246002A38D1002F07D188
:4021C000802200265500314BFF24F9E6FF2C93D13B1C80270E1C7D00FF24DFE601380028F4D16646BB1B0E1CBEE680277D000423E6E6FF2C5CD08022D1040B439C46012379
:402200001B2D08DC20216246EA4063464D1BAB40591E8B411343DB19FFE6002F38D0EB1B5A014BD57B1B0E1C01250024B6E6002F00D100E78020D308C403234204D0FF082A
:40224000274201D13B1C0E1C8021DB004D00FF24A4E6002B20D0002F00D1ECE68022DE08D503311C2E4203D0F908294200D0311C061C8020CB004500FF248FE6013D002DF1
:4022800014D1FB18C9E6C046FFFFFFFBFCFFFF0363460125002481E6802465003B1CFF247CE63B1C061C0125002477E6FF2CA6D13B1C8027061C7D00FF246FE6002B00D16A
:4022C0002EE769E66346061C0125002466E6061C0125002462E6C046F0B55F4656464D464446F0B44502440083B00E1C6D0A240EC70F002C07D1002D00D091E00421012297
:402300008846924609E0FF2C55D08023180400210543ED007F3C88468A46331C58007602D90F760A000E8B464CD101229446002E00D081E05B467B406246414601930A4305
:402340000F2A50D9201A690181467501A94200D3B3E00122534299441B2400260127621E381C10404B007600002900DAA9E09D4200D8A6E0013C002C00DCABE000280CD025
:40238000191C76005B00002901DB9D4201D85B1B3E43013C002C00DC9CE059007200002B01DB8D4201D8491B3A43013C4B0056000029EADAEBE7002D2DD10820022180466E
:4023C0008A46AAE7FF2820D08022130400211E438C465B467B4062464146F6007F3801930A430F2AAED8564992008A589746019BFF260025F0052843DE07304303B03CBC47
:4024000090469946A246AB46F0BD331C5A1E934102339C468EE70C22032390469A467CE7281C00F0B3FE7622441F5342A5401C1A00208046824670E7301C00F0A7FE7623BE
:40244000411F8E405A420021101A8C4672E700233C4DFF26CEE75F46351C01976346022BC5D0032B63D0012B43D049467F31002935DD0F272F40042F00D004352B0103D59E
:40248000314A494615408031FE29B0DCA801450ACEB2019BAEE700260025ABE78020C1030D4211D00E420FD10E4373025D0AFF265B469FE701975346D1E7491B1A240126E4
:4024C0004CE75B1B3E4355E70D436A02550A3B1CFF268FE71D1C6B1E9D413543C5E77E2467424A46B91A1B2908DD019B0026002580E7019D00262B4000257BE74E469E3662
:40250000281CB5402B1C5D1EAB41C84003430F251D40042D00D004335A0103D5019B0126002567E79C01650A019B002662E78027FC0325436E02750A019BFF265AE7C04618
:402540005C6C0000FFFF7F00FFFFFFF7F8B5430245004F024C00C20F980984462D0E200EC90FBF09FF2854D0012671408A423BD02C1A002C00DC89E0002825D1002F4BD1EF
:402580006E1C2C1C6346151C0F221A40042A00D004338027F904012219402A40002906D0FF2E00D181E0B14D341C2B400136F6B2DD08012E62DD6B025D0AE4B2E405254321
:4025C000281CD2071043F8BDFF2D51D08021CB041F4301261B2C70DD67462C1CBB1B151C580122D4661CCFE72E1A002E76DD002832D0FF2D3CD08024E1040F4301231B2EE6
:4026000000DCD1E063442C1C58017AD4661C151CBAE7002FAAD1A7E7013C002C6DD163462C1CDB1B151C5801DCD59A019609301C00F0ACFD05388640844239DC001B1F23C8
:402640001A1A331C311C441C9340E1405E1EB3410B430126002497E7002F00D190E7013E002E03D164463B192C1CCDE7FF2DC5D1151C802263465600FF2485E7002D9CD041
:40268000002C28D08020C7033D4394E7002C45D16B1CD8B2012800DC90E06446E61B730157D53E1B2C1C0D1CC1E7FF24002585E76E4B241A3340661C66E7381C2021E0406A
:4026C0000C1BA7403E1C771EBE41064367462C1CBB1B151C84E769024D0A6FE7002E79D16C1CE0B201284BDDFF2C00D198E061467F18AE1C7B08151C46E7FF2D00D068E78B
:40270000B6E7671CFF2F36D058480121194003405B08A61C0B433C1C151C35E76642002D1ED0FF286FD080256246EB041A43944601251B2E09DC62462023F24064469E1B5F
:40274000B440251C6C1EA54115437B1B041C0D1C69E7002E0CD1002201260423002426E76446002C55D1461C3B1C041C0D1C0BE72C1C151C5BE780235E00FF24042316E78E
:40278000002D00D08DE06546002D00D1ADE0002F00D181E07B195C0100D47EE0334F151C3B4002260124EFE6381C2023F0409E1BB7403B1C5F1EBB41034323E7002D15D1FB
:4027C0006546002D47D1002FC5D03B1C0D1C01260024D9E67642002D26D16546002D00D07DE0461C3B1C041C151CCDE66546002D40D1002F07D1802100224E001C4BFF2472
:40280000D5E6FF2894D180203B1C0D1C4600FF24BAE6013E002EF4D13B1B0D1C041C02E780256E000423C2E6FF2852D080246146E30419438C4601231B2E09DC20216446A6
:40284000F44065468E1BB5402B1C591E8B412343DB19041CD8E6002F1ED0EB1B58014BD57B1B01260D1C00248EE6C046FFFFFFFBFCFFFF03002F00D1FAE68020EB08C403CA
:40288000234237D0FF08274234D13B1C0D1C8022DB005600FF2477E66346151C0126002472E66446002C14D0002F00D1E0E68023E608D803311C064203D0F908014200D07F
:4028C000311C151C8022CB005600FF245CE6FF28B1D180203B1C151C4600FF2454E6013E002EF4D17B19041C8EE63B1C151C0126002449E6151CCAE7002B00D12BE7CCE7BF
:4029000043024200590A00B5130EC20F00207E2B0DDD9D2B0CDC802000040143952B0ADC9620C31AD9404842002A00D1081C00BD02495018FBE7963B9940F4E7FFFFFF7F6D
:4029400070B5041E3CD0C50F00D04442201C00F01DFC9E21261C0B1A962B0ADC0838844061024C0ADBB2DB051C43ED07201C284370BD992B0ADD0522141A311CE140041CE9
:402980001B34A6400A1C711E8E41164305281BDC144C0F2234401640042E00D00434620105D59F231B1AFF2B0CD00E4804405E1CF1B2E40801290ADD6402640ADBB2D2E744
:4029C000002500230024CEE7411F8E40E0E7002CF4D0002B03D08022D0030443ECE76602740AC0E7FFFFFFFBF0B54D4644465F465646F0B41D1C4B00141C0E035B0DCA0F12
:402A000087B0071C360B98469146002B1DD1321C024300D181E1002E00D104E2301C00F0B5FB272800DDF8E12821031C083B0A1A391C9E40D1400E439F40C14B0021181AEF
:402A4000002280468A4600920FE0BE48834231D080214B031E43BC487A0FF600002100231643FF0080448A460093291C201C251C4A000C03CB0F240B520D9B4625D1211C24
:402A8000014300D150E1002C00D1C2E1201C00F07DFB272800DDB6E1031C2822083B291C121A9C40D1400C439D40A54B1A1A0020029019E0321C3A4300D029E108270223CB
:402AC000BA46002600270093CFE79E48824200D113E180214B031C439B49680FE40000230443ED005218029348465B46434002985146019301430F2900D8DFE043469A1A27
:402B00000492A64200D86EE171087B08F6073343FA07894698460292280E240204432D022704390CAB46250C00914846291CFFF74DF9009F061C4743291C4846FFF78AF9A4
:402B4000434608041A0C1043874207D90019013E844203D8874201D9013E0019C11B8A46081C291CFFF732F9009B071C4343291C50469946FFF76EF9424610040B04010C61
:402B80000B43994504D91B19013F9C4200D864E136043E435F464A46390C89469B1A59463204170C0A0449467943120C03928C460399300C7A4341434F4678438C44170CB2
:402BC0006744B94202D9802149024018390C120440183F04110C7F18834200D227E100D141E102991B1ACF1BB942804141425A1A9046A24200D15FE1101C291CFFF7E6F857
:402C0000009B02904343291C40469A46FFF722F9380C090401438A450AD9029A0919013A02928C4204D88A4502D9013A029209195346C81A291C0590FFF7C8F8009A291C22
:402C40004243804605989246FFF704F93F040D043A0C2A43924509D901214B4212199844944203D8924501D998441219029D43462F041F435046111A3804030C4D465D43C6
:402C80000398AC46039D3A0C584355434B465A43AC44030C63449D4202D980256D0252191D0C000452191B04050C5B19914200D2E6E000D13DE1012217435AE08900234820
:402CC0008C46604401688F46019B1E4A0026002700200021381C0F0D3C051D4D34431205254015436E00DB077108194307B03CBC90469946A246AB46F0BD211C032029434D
:402D0000029000D0F0E60223002400250293EBE60C20032182460091A7E604270123BA46002600270093A0E60121002400250291DAE601270023074E7F42024AC8E7C0467C
:402D40000DFCFFFFFF07000001FCFFFF9C6C0000FFFF0F80FFFF0F002F1C5A46029D261C0192022DB0D0032D00D101E1012D00D19CE0049B82481A18002A00DC8CE00F24FD
:402D80003C40042C05D03B1DBB42BF417D4276191F1CF10105D57B4A04998020C40016400A19794B9A4200DD8EE77507FF08760251052F43360B4A0D019B89E70022002608
:402DC000002785E7802001030E4216D00C4214D10C432603360B5B462F1C6C4A78E74C460194009DBDE7A64243D00498B846013800270490B14602978EE60E4333031E0BD4
:402E0000624A4B4664E7041C283CA5402C1C00254BE600F0BBF920303BE6061C283EB7403E1C002709E600F0B1F92030F9E5029A013E111C59445945924152421219D31877
:402E40009C4204D298426BD816D01B1ACBE6A342FBD18B45F6D9231AC5E6994500D897E6013F1B1994E6029ABA42E0D302990023B9E6AF42B9D947E68F4251D80023B2E64F
:402E80000919013F58468C4219D9914200D012E7984200D00FE76CE73D4C049D631B382B1CDD019B00220026002711E7019B00222B40002600270BE701277F4259E78A425F
:402EC00003D800D0F7E69842E2D25D4668005845AD416D422C19013F0919D6E71F2B34DC049C2C4A381CA518311CAF40D840A9403C1C0143671EBC410F1C2743DE400F2352
:402F00003B40042B05D03A1DBA42BF417D427619171C320211D5019B012200260027D7E659445945924152421219D318013E1B1A59E6002BA4D10020AAE77007FF087102AE
:402F400007430E0B019B0022C2E61349049C301C0A1BD040051C202B08D0104BE1188E4037437B1E9F412F430026C8E70026F7E780221003064331030E0B019B034AA7E6A6
:402F8000FF030000FFFFFFFEFE070000FF07000002FCFFFF1E040000E2FBFFFF3E040000410070B50E0E731C4202C50FD8B2540A012815DD6307E024A000120B341800200B
:402FC0000021181C0B0D1E051C4B324361054C08134023435A005608ED07311C294370BD002E16D1002C1ED0201C00F0CFF80A281DDC0B22111A021C231C1532CB40944038
:403000001E1C231C34030E4E220B301A41054C0DD5E7002C03D06307120B0A4CCFE7094C00220023CBE7002400220023C7E7011C0B398C40261C0023E4E7C046FFFF0F80CD
:4030400089030000FF070000F0B5041C4800400D0A03CD0F411C630F520A4F051A43E6007B0D012B3BDD42494318FE2B2CDC002B4EDDA401770FD200611E8C413D4E224347
:4030800080193A430F261640042E47D18027FC0414401DD0FF2838D0374B1A40031C0130C6B2D208012E17DC002A06D0002B29D08027FC03224351024A0ADBB2DB051A43CE
:4030C000ED07101C2843F0BD802148000422FF23C6B2D208012EE7DD51024A0AEDE7002806D132430120002A15D104220023EFE71643E9D08024A004D20080260243FF23AA
:403100007000BFE75002420AD8E7FF230022D5E7173305DA012005220023D9E70432B5E78023164F19040A433C1A1F2C0DDC1449331C4718BE40301C461EB041BA40E34033
:4031400002431A43012000239CE70E4B171C191ACF403B1C202C09D00B4C001982403243561EB2411A43012000238BE70022F6E780FCFFFF81FCFFFFFFFFFFFB9E030000EE
:4031800082FCFFFF7E030000A2FCFFFF1C2101231B04984201D3000C10391B0A984201D3000A08391B09984201D30009043902A2105C40187047C046040302020101010189
:4031C000000000000000000070B50E4B0E4D0024E81A85101E1CAC4204D0A100725890470134F8E703F048FE0849094A0E1C541AA5100024AC4204D0A300F05880470134F2
:40320000F8E770BD846E0000846E0000846E00008C6E000010B50023934203D0CC5CC4540133F9E710BD00B58218031C934202D019700133FAE700BD0EB400B59CB01DAB06
:4032400002A904CB822202900861920009488A810122886048615042074AC88110681D9A019300F063F8029900230B701CB008BC03B01847FFFFFF7F44010020F7B501915F
:403280009168071C141C002940D190239289D80002423BD02568216963696E1A58000096C6180098F50FAB1901305D10A84201DB009D0235381C53050FD5291C01F06EFC94
:4032C000061E13D02169009AFFF7A4FFA7891649802239401143A18111E02A1C01F0A4FF061E0CD1381C216901F002FC0C203860A58940263543A5810124604213E0009B06
:403300006561F018ED1A26612060A560A668002E08DD694627680A793A70A3680137013B2760A3600020FEBD7FFBFFFFF0B5A1B0049007938B890E1C171C19060FD5326991
:40334000002A0CD1402101F029FC30603061002803D1049C0C262660D6E04020706108AD00212024302369616C76AB763C1C2278002A04D1E01B069019D003970FE0252AF6
:40338000F8D00134F3E70399321C09780498FFF775FF039A01320392013000D1AFE003990698CB1B8342EEDB0D9F3A180D922178002900D1A3E001206A460023474263325C
:4033C00001342B60EB606F60AB601370AB65504F2178381C052201F02BFC002807D0C71B2B680120B840184328600134EFE72B68D90603D568462021633001701A0703D5D9
:403400006A462B276332177021782A2901D00B9B0EE0079A1068111D0791002801DB0B9004E0022247421343EF602B60013409E020783038092804D80A277B4301341B185C
:40344000F6E70B9323782E2B18D161782A2909D1079B02341A68191D0791002A0DDA012042420AE00134002220783038092804D80A277A4301341218F6E70992254F2178F0
:40348000381C032201F0D4FB002806D02B68C21B4021914019432960013421781E4806222976671C01F0C4FB002817D01B4800280BD12868079C0723C10501D5E41800E0D5
:4034C00007349C430834079414E007AA00920498291C321C124B00F0CBF807E007AC00940498291C321C0E4B00F096FB059005994A1C04D00D99059A8C180D9436E7B589DC
:40350000690601D40D9801E00127784221B0F0BDDE6C0000E46C0000E86C0000713600007D32000000000000F0B58BB0171C1D1C1299149C04D580263306ED182D2200E08A
:4035400000220A70662C0BD0462C09D0652C02D00222452C05D1109902220131109100E00322109E139B009208A909AA01960293049203913A1C2B1C00F0FEFC061C672CA0
:4035800001D0472C02D11198C2072DD5109BF1180791662C01D0462C14D13478302C0CD1381C291C154B144A01F0E4FE002804D1109A01201399831A0B60139C079A206817
:4035C00013180793381C291C0C4B0B4A01F0D2FE002801D0079F0997099F079DAF4203D230223A700137F6E7099915988C1B0460301C0BB0F0BDC04600000000000000008A
:40360000F0B5831C027085B0061C0C1C2B22002901DA4C422D2272701D1C092C1DDD6F460E37201C0A210197FEF774FC30313970201C0A21FEF718FC013F041E092CF0DCA2
:40364000019B3034013B1C7069460F318B4209D21A7801332A700135F6E73020241818705C709D1CA81B05B0F0BD000000000000F0B593B00C1C0A920B93189D071C01F0A7
:403680007FFA00680C9001F03BFE002321680D901093267E28680722C90501D5801800E007309043031C08332B6041680068A064E164A06CE16C01F0DDFD01281BD1A06C70
:4036C000E16CB04BAE4A01F05BFE002803D0211C43312D220A70472E02D8AB48099001E0AA4B09932168042203259143002025612160089090E0A06CE16C01F0BBFD256815
:4037000000280ED1472E02D8A149099101E0A14A099204208543032325600025236108957AE06268511C01D1062106E0672E01D0472E03D1002A01D1012161608023D800F2
:4037400005432560626801956D460FA910AB00203B35039106900092029504960593381CA26CE36CFFF7E0FE0F990990672E01D0472E06D1CB1C02DB626891422DDD023EBE
:40378000F6B2652E12D8201C01395030321C0F91FFF736FF109B0890C0182061012B02DC2268D3072FD5013020612CE0662E15D16568002908DD2161002D02D12268D207CF
:4037C0001DD50135491911E0002D03D123680120034200D0A81C206111E06726109DA94206DB22682161D20709D50131216106E00120002901DC0223581A291821610F99CA
:403800000025A165089569463B310D78002D03D0231C43332D2018700B9D381C0095211C11AA0A9B00F088F9013002D1012460427CE1236859050ED4099E09992269701AA6
:40384000904221DA3178381C0A9A0B9B984701360130F2D1EAE7652E00D8F6E0A06CE16C484B474A01F086FD00282ED0381C30210A9A0B9DA8470130D8D00F991098814235
:4038800007DB2268D30704D42568AB0700D54BE144E10C9E0D9BF518AE4208D03178381C0A9A0B9B984701360130F5D1BEE70025109E013EB542E7DAA17E381C0A9A0B9BDE
:4038C00098470130B2D00135F2E70F9900293ADC381C30210A9A0B9B98470130A6D00F98002805D1109A002A02D12668F307CBD50C9E0D9D7519AE4208D03178381C0A9A0C
:403900000B9B984701360130F5D18FE700260F994B429E4208DAA17E381C0A9A0B9DA847013083D00136F2E7099D0998109A2E1A9642A9DA2978381C0A9A0B9B9847013517
:403940000130F2D172E7A06D109E864200DD061C002E02DC0020089029E0099D721908922978381C0A9A0B9B9847013000D15DE7089901358D42F3D1ECE7C046C046C0462D
:403980000000000000000000EF6C0000F36C0000F76C0000FB6C0000A17E381C0A9A0B9DA847013000D141E7089901310891F243A56DD31708983340E91A8842ECDB0F9EBA
:4039C000109A96420EDB2368DA070BD4109B099E0F997619581A5D1B854200DD051C002D10DC1DE00C9E0D9970180890089A9642ECD03178381C0A9A0B9B9847013601308F
:403A0000F4D113E7721909923178381C0A9A0B9B9847013000D109E7099901368E42F3D1002608E0A17E381C0A9A0B9B9847013000D1FBE6013610980F9AEB43811AD8174F
:403A400028400A1A9642EDDB1EE7099E109A3178381C012A09DCDA0707D40A9A0B9DA847013000D1E2E6261C45E00A9A0B9B9847013000D1DAE60C9E0D997518AE4208D0FF
:403A80003178381C0A9A0B9B984701360130F5D1CCE6A06CE16C274B254A01F06BFC0026002818D1109A013A9642DCDA099A381C931959780A9A0B9DA847013000D1B5E678
:403AC0000136EFE7A17E381C0A9A0B9DA847013000D1ABE60136109801388642F2DBC2E7301C503001780A9A381C0B9DA8470136013000D19AE60899331B8B42F0DBC3E665
:403B0000617E381C0A9A0B9DA847013000D18DE60136E3681199581A8642F1DB119FE068B84203DA381C01E00026F2E713B0F0BD0000000000000000F7B5151C01930A6919
:403B40008B6800900C1C934200DA131C201C2B6043300178002901D001332B602668B00602D52F6802372F602268062616401CD0261C4336377822683E1C731E9E41920688
:403B80001CD5A319181C40303021271CC17045373A784133DA70023610E0617E0098019A089FB847013006D00136E3682868191A8E42F2DBDCE7012040422CE00027B742A8
:403BC0000ADAE119433109780098019A089B98470130F0D00137F2E72B68256806212940E6680025042903D1F01AC743FD170540A2682669B24201DD931BED180027AF4274
:403C000008DAA17E0098019A089EB0470130D2D00137F4E70020FEBDF0B50D1C8BB0433507930590069204950A7E0C1C109B6E2A00D1A8E012D8632A24D009D8002A00D17E
:403C4000B1E0582A00D0C1E045310A707D4D51E0642A1FD0692A00D0B8E01BE0732A00D1A5E009D86F2A2BD0702A00D0AEE00A68202616430E6038E0752A21D0782A00D069
:403C8000A4E032E018680E1C051D1D600368423633709EE026681F68300606D4750604D5381D186000203D5E02E03D1D1D603D68644B002D3BDA04992D226D420A7036E0A6
:403CC00027681E683D0605D4780603D5351D1D60358802E0311D196035685A4B207E039308276F281ED00A271CE0271C45377820554D38701A682668111D0395196030068B
:403D000003D4750601D5158800E01568F00702D520231E4326601027002D03D12668202086432660261C43360022327001E003930A276168A160002903DB20680423984392
:403D40002060002D02D1049E00290ED0049E281C391CFEF77FF8039A013E515C281C3170391CFEF733F8051EF1D1049B9A1B2261082F33D12768F80730D5606890422DDC63
:403D8000013262602AE008681E684969050606D4450604D5351D1D603368198003E0321D1A603768396000202061049E16E01E68311D19603668301C01F0A2FA6568206121
:403DC000A84200D925612369636004E0261C4236327001212161049F00223A7007990598009109AA211C069BFFF7A6FE01300CD0351C2269AB1B93420ADA29780598069A99
:403E0000079FB84701350130F3D10122504217E02668B10705D4099BE068984210DA181C0EE00025E7680998391A8D42F3DA617E0598069A079EB0470130E6D00135F1E764
:403E40000BB0F0BDFF6C0000106D0000F0B50B690E1C016987B0051C0027994200DA85E0321C5C1E033398001432291C019214313218039151682818131D0131406805933A
:403E8000FDF7A4FF0090B8423CD0019A039B944602970497614604318C46043980C9009AB8B2504302990818390C009F020C794351180A0C1F680292049ABFB2BF181A6858
:403EC00080B2381A89B2170C7A1A0714D2191114170480B2059A3843049101C39445D9D9231D99006F1878683B1D00280AD1039A043B934201D82C6104E019680029FAD1CB
:403F0000013CF4E7281C311C01F0B4F800282CDB009E039B013600960020019F1A6840CF91B201970818B7B2C11B120C360C971B08143A181604101489B2019F059A0E43E9
:403F400040C39742E9D9231D98002E187168331D00290AD1039F043BBB4201D82C6104E01A68002AFAD1013CF4E7009F381C07B0F0BD000000000000F0B5446A9DB0099011
:403F8000259D06920793002C08D1102000F0FCFD09994862446084600460C460099E736A196800290AD058680122824048608A60301C00F081FE746A00212160079E002E46
:403FC00005DA01208640C6402860079601E000232B60079FBE4D3A1C2A40AA4218D1BD48249B069C1860002C01D13D0301D0BA4800E0BA48269E002E01D100F075FDC178CB
:40400000C21C002900D00532269F3A6000F06CFD069C079DA54BA44A201C291C01F0AAF900280CD0249A269F01211160002F01D100F057FDAA483860013800F055FD1BA959
:404040001AAE01962B1C00910998221C01F096F87B000B905E0D09D0201CA24C2903A24D0B0B211C19437619002419E01A9C1B989E4D2618AE4208DB9D4B9E4D0698F418CF
:40408000AA1BE0409740384304E09B4F0699BA1B9140081C02F0CCFC984A013E89180124834A844B199402F0D3F8834A834B01F05DFE834A834B01F08BF9071C301C0C1C5D
:4040C00002F07CFC804A814B01F050FE021C0B1C381C211C01F07CF9071C0D1C02F03AFC724B714A0890291C381C01F049F900280DD0089802F062FC021C0B1C381C291C22
:4041000001F038F9424242410898811A0891089C01231893162C11D8794DE700EA1910685168069A079B01F03FF9002805D00898002101380890189100E018901A9B9E1B6A
:40414000013E04D57442002704940C9702E000250C960495089A002A06DB0C9F1592BD1800220C950F9207E00499089800240B1A464204930F9615942299092929D8229813
:404180000124052802DD04382290002422980238032828D801F0D4F8081102050127149704E0012214920AE000261496239D002D22DD0E950A952B1C22E000231493239989
:4041C00008980B180E9301330A93002B18DC012316E00124634200210E930A9322911494122323910CE001267542002214960E950A951223239203E001230E930A93239327
:40420000099E0027756A04266F60301C14306968984203D8013169607600F6E7099800F013FD2860099D0A9B6A6A11680D910E2B00D980E1002C00D17DE1089E069C079D5B
:4042400016941795002E5FDD0F23341C1C402C49E0000A1814685568109411953411294F0225E10617D51C40169817993A6A7B6AFEF7BAFB0325069007910CE0E20708D5FA
:40428000109811993A687B6801F070FD10901191013564100837002CF0D106980799109A119BFEF7A1FB4DE00000000000000000000000000000F83F61436F63A787D23F73
:4042C000B3C8608B288AC63FFB799F501344D33F0000F07F0F2700002A6D0000216D00002F6D00000000F03F01FCFFFFEFFBFFFF120400000EFCFFFFEEFBFFFF000010FE4A
:40430000386D0000106E0000089F02257C42002C1AD00F202040CC4AC10053181A685B681698179901F022FDC84F2611002E09D0F20704D53A687B68013501F017FD7610C7
:404340000837F3E706900791189F002F1ED0069E079FB44BB24A301C391C01F011F8002814D00A9B002B11D00E98002800DCDEE00899301C01391091AB4AAC4B391C01F023
:40438000F5FC0135069007910E9E02E0089E10960A9E281C02F012FB069A079B01F0E6FCA34AA44B01F014F8A94A041C8F183D1C002E1AD1A04AA14B0698079901F048FF7D
:4043C000221C3B1C0690079100F0EEFF002800D054E2221C80242506069807997B1900F0CFFF002800D040E2A1E0974B711E1498CA009F1800284AD03A687B6890489149A0
:40440000FEF7F2FA221C2B1C01F022FF069C079D129013910D9F291C201C02F09BFA069002F0CCFA021C0B1C201C291C01F010FF069B041C30333B70129A139B0D1C013726
:4044400000F09EFF002800D03AE3221C2B1C7549734801F0FDFE129A139B00F091FF002800D0C8E00D99781AB04260DA129813996D4A6E4B01F07AFC6B4A6C4B12901391F3
:40448000201C291C01F072FC041C0D1CC3E72B1C38687968221C01F069FC069C079D0D9B129013919E1906961F1C291C201C02F051FA061C02F082FA021C0B1C201C291CF7
:4044C00001F0C6FE30360D1C06993E700137041C8F4223D15A4A5B4B1298139900F078FF021C0B1C201C291C00F05EFF002800D081E0129A139B5248524901F0A9FE021C56
:404500000B1C201C291C00F03BFF00280FD0781E0278302A00D0D3E2071CF8E7201C291C414A424B01F022FC041C0D1CBDE7169B179C069307941B99002900DA98E00898B5
:404540000E2800DD94E0404EC500239A77193868796804900591002A12DA0A9B002B0FDC00D084E1344A354B01F000FC069A079B00F024FF0A9D2E1C002800D079E180E17F
:404580000D9F069C079D049A059B201C291CFEF72BFA02F0DFF9061C02F010FA049A059B01F0E4FB021C0B1C201C291C01F050FE021C301C30300B1C0A9C0D993870013718
:4045C0007D1A101CA54245D1191C00F001FF049A059B041C0D1C00F0E7FE00280FD1201C291C049A059B00F0C5FE002800D169E2F00704D466E2109E089600E01F1C7B1EA5
:404600001A78392A08D10D9EB342F7D108980D9C01303021089021701D7801351D7051E2000000000000F03F00000000000024400000000000001C40000000000000144082
:40464000000000000000E03F386D0000106E00000000C0FC191CBD4BBB4A01F087FBBC4ABC4B041C0D1C00F085FE00288BD029E2149E002E31D0229A012A0BDC199D002D9E
:4046800002D0B5480F1802E01A9936235F1A0F9D049C16E00A9F0F9C013FBC4201DBE51B06E00F9B1598F91A461815960F9700250A9A002A03DA049C0027A41A01E0049C18
:4046C0000A9F049E0C9BF2190998DF19012104920C9700F091FB061C02E00F9D049C149E002C0CD00C9A002A09DDA24200DD221C04990C9B881A9F1A0490A41A0C970F9A51
:40470000002A21DD1499002918D0002D10DD311C2A1C099800F00AFC061C311C0B9A099800F073FB0B99071C099800F0C5FA0B970F98421B08D009980B9902E009980B993B
:404740000F9A00F0F3FB0B900998012100F054FB159B051C002B05DD291C0998159A00F0E5FB051C229A0027012A10DC0699B9420DD1079B1803B84209D1784A134206D0C1
:40478000049F0C990137013104970C910127159B0120002B08D0286903308200A918486800F0E1FA2023181A0C991F22401810400DD020231A1A042A06DD1C22049B101A22
:4047C0001A180492241808E0042A08D0101C04991C300B180C990493241808180C90049A002A04DD09980B9900F0F2FB0B900C9B002B05DD291C09981A1C00F0E9FB051C30
:40480000189900291BD00B98291C00F033FC002815DA089A0023013A089209980B990A2200F063FA149B0B900E980A90002B06D0311C09980A22002300F057FA061C0A9A6E
:40484000002A29DC2299022926DD002A11D1291C099805220A9B00F048FA051C291C0B9800F008FC00280CDC03E0351C00E000252E1C23980D9FC14308910AE0109F351CB2
:4048800008970D9B089A31271F7001321F1C0137089200240494FFE01498002801D10D9FB6E0002C05DD311C0998221C00F090FB061C301C002F11D07168099800F0C4F90B
:4048C0003269311C0232041C0C3192000C30FEF7A1FC0998211C012200F07AFB0D9F0496061C291C0B98FFF7B1FA04990E90041C0B9800F0BFFB291C0F90321C099800F01D
:40490000D5FBC1681490012030340C90002904D10B98149900F0AEFB0C900998149900F0CBF90C9B229A13431AD106990120084216D1392C3ED00F98002832DD0E9C31343F
:404940002FE0C046C046C04600000000000024400000000000000000330400000000F07F0F9B002B06DB229A13431DD106990120084219D10C990694002912DD0B990998C6
:40498000012200F025FB291C0B9000F073FB002802DC06D1E30704D50E9C069B3134392B08D03C70013777E00C9A7B1C002A09DD392C03D139243C70013756E001343C70E1
:4049C0001F1C69E00D983C70191A1F1C0A9B99423BD009980B990A22002300F086F9049C0B900998B44206D1211C0A22002300F07CF9049074E704990A22002300F075F913
:404A0000311C04900A220998002300F06EF967E7291C0B98FFF71AFA041C30340D9B0A993C700137FA1A8A4207DA09980B990A22002300F05AF90B90EAE70A98002800DCB1
:404A400001200D9F00233F1804930B990998012200F0BEFA291C0B9000F00CFB002804DC14D1E00701D411E00F1C791E0A78392A09D10D9B9942F7D108980D9C013031213F
:404A80000890217008E001320A7005E0781E0278302A01D1071CF9E70998291C00F00CF9002E0FD0049D002D05D0B54203D00998291C00F001F90998311C00F0FDF801E03B
:404AC000109A089209980B9900F0F6F8089B249A2698002601333E701360002803D0076001E0024800E00D981DB0F0BD2E6D000030B5002940D004390B68002B00DAC918DA
:404B00001E4A1368141C002B02D14B60116033E099420FD20D684A199A4205D110682B1855680B604D6000E04B60216024E08A4203D8131C5A68002AF9D11D685C198C42FB
:404B40000BD10C682D1958191D60904214D1116852686C181C605A600EE08C4202D90C21016009E008680D18954203D114685268001908604A60596030BDC046B0010020E1
:404B8000004870474801002008B5034B011C186800F004F808BDC0464401002070B50323CD1C9D430835061C0C2D01D20C2501E0002D2DDB8D422BD31C4A1368111C1C1CF0
:404BC000002C12D02068421B0CD40B2A02D92260A41815E0A34202D166680E601CE065685D6019E0231C6468EAE7301C291C00F075FB421C0CD0C41C03218C43844201D1BA
:404C0000256009E0211A301C00F068FB0130F7D10C243460002008E0201C0B300722211D9043431A01D05D42E55070BDB001002000B5C9B28218904204D003788B4202D02C
:404C40000130F8E7002000BD70B5456A041C0E1C002D07D11020FFF797FF6062456085600560C560656AEB68002B09D0656AB200EB689918086800280ED004680C6017E0A2
:404C80000421201C212200F042FBE860606AC1680029EBD100200EE001210D1CB540681D8200201C00F033FB0028F3D04660856000260661C66070BD70B5446A061C0D1CE0
:404CC000002C07D11020FFF75FFF7062446084600460C460002D07D0726A6968D0688B00C61834682C60356070BDF7B50C1C1E1C0D69071C143100230868013380B2504396
:404D000086190868B446000C5043360C3018060C00040190604680B2844601988444604601C1AB42E8DB002E1BD0A1688D4212DB6168381C0131FFF787FF2269211C0232DA
:404D400001900C3192000C30FEF764FA211C381CFFF7B2FF019C2F1DBB00E018013546602561201CFEBD031C020C002000B5824201D11B041020190E01D108301B021A0FB9
:404D800001D104301B01990F01D102309B00002B03DB01305A0000D4202000BD0368021C072000B518400CD0012100200B4222D10220034203D0CB401360081C1BE09B0890
:404DC00016E099B2002901D11B0C1020D9B2002901D108301B0A190701D104301B09990701D102309B08D90702D45B0802D00130136000E0202000BD10B50C1C0121FFF73B
:404E000023FF01234461036110BDF0B50C1C151C0969126989B0914202DA231C2C1C1D1C27692E69A268BB1961680193934200DD0131FFF709FF0199031C04318A0081186E
:404E40001433043103911A1C03998A4202D2002102C2F9E704370436BF00B600221CA919E419143204340431143504920594069100959C46009D069B07959D4246D2009D5D
:404E80002C88002C1BD004996346002240C91D68B7B267430297AFB2029D360CEF196643BF181A68150C76193A0CB5182E042A0CBFB2059D3E4340C38D42E7D81A60009CD3
:404EC0000799043400944C88002C1CD063461A6804990025079140C992B2B7B267430297029E5F88F7197D192E043243079E04C372881F8862432D0CBF18059E7A19150CEF
:404F00008E42E7D81A600424A444B3E7039E019A002A03DC019C046109B0F0BD043E3768002FF7D1019901390191F0E70323F7B51340051C0E1C171C002B08D0013B224AAE
:404F4000980082580023281CFFF7CFFE061CBF1037D06C6A002C07D11020FFF715FE6862446084600460C460696A8C680191002C10D1281C1549FFF73FFF019B041C9860C0
:404F80000020206006E07F101BD02068019000280ED0041CFB07F6D5311C221C281CFFF734FF311C0190281CFFF786FE019EEAE7221C281C211CFFF728FF019A2060026088
:404FC000E7E7301CFEBDC046006E000071020000F0B50C1C5611171C226985B00390B018029049680130A3680190019D9D4202DD01315B00F9E70398FFF726FE0022051CA2
:405000001430B24203DA002102C00132F9E7F343D91722690E4004360432B6009000AE19231C20181F210436143304300F4013D02022D11B8C4600221968B9400A4304C698
:4050400004CB6146CA408342F6D33260002A07D0029E0236019603E080CB80C69842FBD8019B0398013B2B61211CFFF725FE281C05B0F0BD30B50A690469031CA01A14D181
:40508000043292001D1C89189B18143504330431043B04391C680A68944204D09442AD410120284301E0AB42F2D830BDF0B5071C85B0081C0C1C111C151CFFF7DBFF061E5A
:4050C00007D1381C311CFFF7BFFD01270761466151E0002801DB002603E0231C01262C1C1D1C6168381CFFF7AFFD2169C6602E690A1C0432043697000191B100E3196A1835
:4051000004320433061C03920293143414351436002280CC02CDBC46BFB2BA188BB26746D31A090C3A0C571A1A14B9188C4667463A149BB23F043B4308C6039B211C371CE0
:40514000AB42E6D8029CA1420BD208C99CB2A41825141E0CAB191D04A4B22C431A1410C7F0E7043F3D68002D03D1019A013A0192F7E7019E066105B0F0BD0000F7B50121FC
:405180001D1C141CFFF760FD2B036900061C4D0D180B002D02D08022570338430190002C19D068460094FFF7F9FD009A002809D0019B20211C1C0F1ABC402243C3407261A3
:4051C000019300E07261019A022753425341FF1AB261376107E001A8FFF7E0FD019C0127746137612030002D09D00D4C352729190A183D1A089B09981A6005600DE0F91C37
:40520000084D8A00089C4019B31820605868FFF7AAFD7F013D1A09980560301CFEBDC046CDFBFFFFCEFBFFFFF8B5061C0C1C151C002904D1111CFFF7B1FC041C18E0002A3B
:4052400003D1FFF755FC2C1C12E000F06EF8A8420ED2301C291CFFF7A1FC071E07D0211C2A1CFDF7D7FF301C211CFFF741FC3C1C201CF8BD0B1C011C021C30B51943022082
:40528000002921D080242506AB4201D1002A1BD00E480F491C1804208C4215D90D4D5C198C4211D90C4903208B420DD980252C061D198D4208D90748834203D003490020AD
:4052C0008B4201D15042504130BDC0460000F0FFFFFFDF7F0000F07FFFFF0F0038B5074C0023051C081C236001F0D4FB431C03D12168002900D0296038BDC0460C030020DF
:405300000023C25C0133002AFBD1581E704738B50D1C5543291CFFF741FC041E03D000212A1CFDF780FF201C38BD04390B6800B5181F002B02DAC8581918081F00BD0000D7
:4053400002B4714649084900095C49008E4402BC7047C0468446101C62468C46191C634600E0C0461FB500F095FC002801D40021C8421FBD10B500F0DBFB4042013010BD93
:4053800010B500F087FC002801DB002010BD012010BDC04610B500F07DFC002801DD002010BD012010BDC04610B500F0FFFB002801DC002010BD012010BDC04610B500F071
:4053C000F5FB002801DA002010BD012010BDC046F8B55F4656464D464446F0B40C03460F640A3443A3465E001C03DB0F9C46630A98464D00530F44461C436D0DC90F760DF7
:40540000D2000F1CC000A1469246AB1B614500D1A4E0002B00DCF5E0002E0CD1261C164300D1C2E0013B002B00D046E15C464B46821AE71A21E0D24EB54200D1CDE08024D2
:405440004A4627043A439146382B00DD0FE11F2B00DD50E12026F61A4C4652465746B440B740DA4022433E1C4C46771EBE41DC403243261C5B46821A9F1B904280414642A9
:40548000BB1B141C2E1C0F1C180200D4AEE05D02690A88464246002A00D1D9E04046FDF775FE051C083D1F2D00DDDAE02822131A201C4146D840A940031C0B43AC40AE425F
:4054C00000DD90E0AE1B711C1F2900DD00E11F20851B1A1C201CAA40C840AC401043661EB4410443CB40012200260F202040042864D0201DA042A441654280215B19012499
:405500000D041D402740002D07D09D4EB24200D19AE09C49161C0B4001325C07C00852050443DB08550D012D62DD1B0376051B0B760D00200021090D201C0A05924C134340
:40554000760575081C402C436300FF07590839433CBC90469946A246AB46F8BD002B00DC91E0002E31D0864EB54200D1A9E080244E4622041643B146382B00DD18E11F2BEA
:4055800000DD73E12026F61A4A46B240904652464446DA4022435446B440261C741EA6414C463243DC401218F6E0041C0F206A1C5B462E1C0F1C204004289AD180252D0447
:4055C00001211D400F40201C9DE7144300D0DDE06A1C5B46041C2E1C87E780215B46041C0A012E1C81E7761B664D2B40721C7CE7211C194300D167E2002E41D080200203E4
:40560000134392E7002B00D088E0691C4E05740D012C00DC1AE15B46161C4C46821A191B90429B415B42C91A88460B0200D49EE0371ABA4592415E46A41B5342E11A884667
:405640003C1C2E1C674625E7161C0023002470E7201CFDF79BFD2030051C083D1F2D00DC24E7031C283B9C40231C002427E74A4653461A430026002A00D1FBE60122F9E6F5
:405680001D032B0B55E7002B00D004E16E1C7405630D012B00DCAAE039498E4200D130E11118814280414B4642425B449B18DC0749080C435B08AA1C17E7314FBD4200D032
:4056C000C2E6041C80205B460F1C02012E1C0CE7301C1F381A1CC240151C202900D182E03F218E1BB3401C43631E9C412C43012200230026F9E61C1C203C4F46E7403E1C91
:40570000202B72D04022D41A4B46A3401A1C57463A43531E9A4132430026ABE65F42002D50D0174DAE4200D155E180245A4621040A439346382F00DDDAE01F2F00DD78E1F6
:405740002021CC1B051C5A46A240FD40A04015435B46421E90412843FB4057463C1AA24592414846C11A55424B1B67468CE6081C104330D100270122002304200026CCE65E
:40578000FF070000FFFF7FFFFFFF0F80013B002B24D153461A184C46824280415C444342E3182E1C141C18023ED4721C0F1C9CE64A4653461A430024002A00D1F3E60122FA
:4057C0001218E9E75B46034300D083E0231C721C5446674689E6141C2E1C5BE6CD4EB54200D0C9E66DE700237DE700228FE75E460643002D00D0F4E0002E00D14CE14B46D8
:40580000134300D17EE115184E46854280415E444242B3181E0200D482E1BF4F2C1C3B4002220F1C012660E6BA4D701CA8424BD0B94F0125254062083B402C1CDF0714432F
:405840003C43B21C5B08061C0F1C4EE65E460643002D2CD1002E00D07DE04E46141C164388D04B466746012200263EE61E1C203E4C46F440261C202B00D1D8E04022D41AA1
:405880004B46A3401A1C54462243531E9A4132430024121880E75B42002D37D15C46044300D0D7E0721C4B4654460F1C1DE6002E6ED14B46141C134300D1DCE080254B4659
:4058C00067462A01934E10E68021061C0A010023042022E6013F002F79D1171A5B46BA45AD414946CA1A68423C1C131A6746CBE55F46074300230020002F00D12DE70120FE
:405900002BE780252A010023042006E6814DAE4200D1D3E080245D4622041543AB46382B00DDB0E01F2B00DDDBE02025ED1A021C5C46AC40DA40A840451EA84122430243B8
:405940005846D840031C55465419544592414B4450421B1827E74A465646324300D185E0851B5B464C46A8429241191B56428B1B1E0200D4ADE057463D1A5B46AA458941D4
:40598000E41A4A42A31A67462C1C01220026ACE54D46161C154344D05C468021C0086207E3080D0310432B4200D181E04C46E10829427DD1F70866073E430B1C6746700FCB
:4059C000DB008022F40003431201524E8DE5514DAE4200D0AEE680204B4654466746020183E5002E5ED04C4614431AD0C7088025584643072C03C0081F43204208D04E4644
:405A0000F308234204D15246D5087707181C2F43C300FC00780F0F1C802103430A013D4E63E5802632015B46041C3A4E5DE5002229E7391C20395C46CC40221C202F67D0AC
:405A40004023DF1B5D46BD402843431E98411043002382E6013B002B2CD150445C469042AD414C446A42A318041C9CE65B46041C0122002639E58024042100272201274B06
:405A80004842244E49E55D46054300230022002D00D158E7012256E7141C4B460F1C0122002622E5141C80224B461201194E1CE5061C84E7174A964200D030E70F1C80215C
:405AC0004B4654460A0110E57405660D002300242FE5181C284300D14CE62C1C0122002603E51C1C203C5D46E5402C1C202B1CD04022D31A5A469A400243501E824122439A
:405B0000002320E75B46041C0F1C01220026ECE4002599E7FF070000FFFF7FFFFFFF7F002C1C0F1C01220026DFE40022E4E7C046F0B5944647461A03061C580080B4170B27
:405B4000420D19480D034C00DB0F2D0B640DC90F9846844208D0144882420DD00120944212D004BC9046F0BD2B1C33430120002BF7D10D488242F1D163463B430120002BFA
:405B8000EFD101209442ECD1BD42EAD16645E8D1414506D0002CE4D1281C3043451EA841DFE70020DDE7C046FF070000F0B557464E464546E0B4041C4E000803C90F8A4647
:405BC000171C59001A03050B700D160B4A0D3049DB0F9C46884232D02D498A4235D000280FD1291C21434B424B419846002A0BD0002B1AD1E2452CD05546002D18D10120E7
:405C000018E0002AF6D19046311C39434B424B414146002906D1002BECD056460120002E08D005E00020002B04D16746002FE6D1012358421CBC90469946A246F0BD2B1CD3
:405C40002343C9D002214842F4E7331C3B43C6D0F8E7904205DC09DA5246002AE8D00120E8E75446002CE3D10120E3E7B542C3D807D00020B542DDD250460028D8D0012040
:405C8000D8E7BC42B8D80020BC42F5D3D2E7C046FF070000F0B544465F4656464D46F0B49446061C1A035800170B420D2E480D034C00DB0F2D0B640DC90F9846844233D07F
:405CC0002948824236D0002C19D0002A20D1934663463B43584258415B468246002B1DD051460020002904D14246002A14D1012460423CBC90469946A246AB46F0BD2B1CF8
:405D00003343584243419B46002AE1D0002BEBD1414515D00029EAD10120EAE70028F7D001200029E5D0E2E72B1C33430220002BDFD1C5E763463B430220002BD9D1C2E707
:405D40009442E7DC05DBBD42E4D806D00020BD42CFD20029CBD00120CBE76645DAD800206645F6D3C5E7C046FF070000F0B5564644465F464D46F0B44F001D1C0B03141CAC
:405D80001A0B7B0D87B0061C92469846CF0F002B21D1024300D149E15346002B00D1E4E15046FDF7F3F9031E272B00DDD8E1083B5146994028228846111A321CCA4041463E
:405DC0000A4392469E40D84B0022181A002180469146039111E0D54883423ED0802153464A031A43D000710F0843D14A824600230020F600904499460390291C201C251C53
:405E00004A000C03CB0F240B520D9B4631D1211C014300D112E1002C00D19DE1201CFDF7B5F9272800DD91E1031C2822083B291C121A9C40D1400C439D40BB4B59461A1A73
:405E4000794000204B46019103430F2B26D89900B84B8C46634419688F46111C314300D0DFE0082600200221B146824600260391C3E7AE48824200D1C9E080214B031C43F7
:405E8000AB49680FE4000443ED0052180020594679404B46019103430F2BD8D942443304290404921A0C0F0C101C7843360C331C80462D0C7B43301C6843111C69439C4681
:405EC00043468346180C08186044844500D91FE1010C4346039119040B0C0004C0182104240C0590101C6243090C02924843321C66434A43029BB146060C9046B4461A1C6D
:405F000062444244904502D9802673029944160CB046C14400044B46060C12040293931956463204100C021C6A439C46031C7B439146320C574398461B0C9A46D144B94454
:405F400055434F4502D980277E02AD194B461F0C4646ED191F0433041E0C031C4B436043514354431A0C8018B046401847449A46814202D980214E02A419039B1A1C6244A3
:405F80005A44624589414E425146B34603040E049C460299330C6344CE18B046C246DA44D219BA42BF4151467B426F18F9189946DA459B415E42029BB3469845B6417642C5
:405FC0005B461E43000C49459B41AF42AD4136186F425842384336180598341956020643CB0D6402701E8641D20D164349021C430E43E0012FD50127049D374073083E1C9D
:40600000E00701351E4304950643640823E0231C2B430320002B00D039E700240025022035E70C22032391460393E6E6042600230120B1469A4600260390DEE60024002587
:40604000012024E703985446022844D0032800D1EAE0012860D0049A37495018002800DC95E00F273740042F05D0311DB142B641754264190E1CE10105D53048049A8023A3
:40608000DF000440D0192E49884224DC019B6507F6086402420501272E43240B520D1F4000200021090D0D052543264C12052C4014436300301C5E08FF07311C394307B0A2
:4060C0003CBC90469946A246AB46F0BD5A462E1C01920228BAD1019E01273740134A00240026DDE7544601970398ADE701260027154C76420D4AD3E72E1CA5E7802213032B
:406100005146194235D10B431D032C0B074AC7E780214B029B44DBE6019B00221840C7B200240026BCE7C0460DFCFFFFFF07000001FCFFFF386E0000FF030000FFFFFFFE08
:40614000FE070000FFFF0F80FFFF0F00041C283CA5402C1C002570E6FDF718F8203060E6283B9E40B24600262DE6FDF70FF8203019E61C4206D11C432603340B5F462E1C13
:406180002E4A8DE70B431803040B2C4A88E72C4F049D7B1B382B06DD019E012737400022002400267CE71F2B21DC049A254F351CD119201C8E40DD408840321C2843561EE1
:4061C000B241061C1643DC400F233340042B05D0371DB742B641714264183E1C250217D5019B01271F4001220024002658E71648049A211C871AF9400D1C202B12D0134BF6
:40620000D01884402643721E96412E430024DBE7019A6507F6086002012717402E43040B00223DE70024EDE780210F033C43019824030127240B0740004A31E7FF070000EF
:4062400002FCFFFF1E040000E2FBFFFF3E040000F0B557464E464546E0B4071C0D034E00680ACC0F790F08438446111C18035A00FD00400ADF0F4B0F1843CA4BC900760D96
:40628000520D8A469A4200D1E0E001235F40B946BC4200D1A8E0B71A002F00DC10E1002A12D15246024300D1D4E0013F002F00D060E151466F1ABD42AD4162466B42101AE1
:4062C0003D1CC31A371C24E0B64A964200D1E3E080210B041843382F00DD23E11F2F00DD66E12021C91B021C53468A40FB401A4353468B40191C4B1E9941031C0A43FB401F
:40630000AA1A67469542AD41F81A6B42C31A151C371C1A0200D4C7E05E02710A88464246002A00D1F0E04046FCF730FF021C083A1F2A00DDF1E02823181A2E1C4146C64021
:406340009140331C0B439540974200DDA9E0D01B411C1F2900DD12E11F273A1A2E1C181CCE409040954030436A1E9541CB400543012100270F262E40042E00D172E02E1DC0
:40638000AE42AD41684280221B180125100418402C40002807D0834FB94200D1B0E0824A0F1C13400131F20849055E073243DB08480D012800DC79E01B0378051E0B470D09
:4063C00000200021090D7D050B05784F1E43101C37406A0817437E007108E40721431CBC90469946A246F0BDB31A002B00DCA6E0002A3ED06B4A96424ED080210F04384349
:40640000382B00DC18E15346184300270022002800D001225219AA42AD4167446B42FB18151C371C1E023FD55E487E1C864200D17BE15D4901222A400B406808151CD90730
:4064400005430D435B08B91C371C93E7014300D11BE71CE7711C371C0F2663462E40042E00D08CE7802201261004344018402E1C8FE752460243EDD0013B002B09D15746E3
:406480007919A9429241554260444319371C0D1CC8E744498E42B3D1802063460101371C68E7BF1A404A1340791C63E7151C1D4300D121E2002F3ED0802631030B437BE73B
:4064C000002F00D086E0721C51054B0D012B00DCF0E05746EA1B95429B416746391A5B42C91A88460B0200D49DE05446651BAA459241C01B5742C31B9846371C4C460EE73C
:406500000F1C002600225BE7281CFCF73FFE2030021C083A1F2A00DC0DE7283885402B1C002511E75746384300230022002800D1E6E60122E4E61D032E0B002740E7002BFF
:4065400000D0D9E0771C79054A0D012A00DC95E0144B9F4200D1FEE051464919A942AD4162466B428018C2184908D5070D435308B11CFFE60B498E4200D0ACE68CE7061C81
:406580001F3E1F1CF7403E1C202973D03F22101A83401D436B1E9D413543012100230027E8E6C046FF070000FFFF7FFFFFFF0F803B1C203B011CD9400B1C202F5CD040225E
:4065C000D71BB840021C50460243511E8A411A43002395E67F42002E40D0CA4CA24200D11FE1802166460B041E43B446382F00DDA9E01F2F00DD3DE12023DE1B291C6446C1
:40660000B440F940B5406B1E9D41214363460D43FB4057467D1BC01AAA459B415F42C31B4C46171C75E60D1C154320D100240121002304260027B6E61F2B4ADC2021C91A64
:40664000071C52468F40DA403A4357468F40391C4F1EB941D8400A43071CDBE664462C4369D1511C031C5546171C4C4682E6151C371C54E600238CE70022A4E767462F43C1
:40668000002E00D0D4E0002F00D126E15346034300D1E4E051464F19AF42AD4160446E4283191E0200D44EE197483D1C0340022101275FE661462943002E29D1002976D106
:4066C00051460143B2D0031C55464C460121002750E61F1C203F011CF9400F1C202B00D1C6E04022D31A9840021C50460243531E9A413A4300278DE65B42002E30D1674699
:406700002F4300D0C8E0511C031C5546171C31E6002965D15746074300D1C8E0031C802055464C460101774F24E68023371C19010426002337E6013F002F6ED15446614618
:40674000651B401A68E767463D430023002D00D15FE701255DE7802631010023042622E668498A4200D1C1E08027664639040E43B446382B00DDA2E01F2B00DDD0E0202121
:40678000C91A2E1C67468F408D40DE403E43291C67464D1EA941DF40351C0D433E1C554455459B4130185E428319171C3AE65646064354D05746EA1B63469542B641191A28
:4067C0007342CB1A1E0200D4A2E07D1B6446AA45BF41001B7A42831A4C4601210027C9E5564606433FD0624680215707ED08D3080A033D43134208D0C608164205D155469F
:40680000EC0845072543331C4C46680FDB0080260343ED0031013B4FACE53A498A4200D0E4E68026031C55464C463101171CA1E5002F4CD05346034315D062468026ED083F
:406840005107D30837030D433B42DED0C2083A42DBD15546E9084507131C0D43D5E763460121002786E5802739016346254F81E500223AE73C1C203C6646E640331C202F03
:406880005FD04024E71B6646BE40311C0D43691E8D411D430023BCE6013B002B22D155445545BF417B426044C318171CBAE58021042200240901154B5642124F73E5634698
:4068C0001D430026002D00D169E7012567E78022031C554611010B4F4CE5031C55460121002747E507498A4200D042E78021031C55460901171C3DE57F057F0D0026002201
:406900005EE5C046FF070000FFFF7FFFFFFF7F001D1C154300D189E6151C0121002729E51F1C203F6146F940202B10D04026F31A67469F403B1C1D436B1E9D410D4300267E
:406940002DE70021A2E73D1C0121002712E50023F1E7C046134A0B0330B5051C48001C0BC90F430D0020934211DD0F4883420FDC802250030D4A0443D01A1F280BDD0C4DC8
:40698000EB1ADC40221C5042002900D1101C30BD084C0819FBE7C54007482A1C1D18AC402243F0E7FE0300001D0400003304000013040000FFFFFF7FEDFBFFFFF8B5041EE4
:4069C0002DD0C50F00D04442201CFCF7DFFB16490A1A0A2816DD0B388440570526037A0D360B002700200021381C0F0D3B050F4C33431C401605344361004A08ED07111CC0
:406A00002943F8BD0B26011C301A1531231CC4408B40520521031F1C0E0B520DE2E70025002200260027DDE71E040000FFFF0F8070B5041E26D0FCF7A9FB14490A1A0A28C4
:406A400013DD0B38844056052403720D250B002600200021301C0E0D33050D4C2B4311051C400C436500690870BD0B23051C181A1535211CC440A940520525030E1C2D0B87
:406A8000520DE5E7002200250026E1E71E040000FFFF0F800A4A00B51368002B0CD018186946884202D81060181C00BD054B0C2201201A604342F7E7034B1360EFE7C0463F
:406AC000B40100200C03002010030020000000004D50553630353020636F6E6E656374696F6E207375636365737366756C0A0D004D50553630353020636F6E6E65637469AB
:406B00006F6E206661696C65640A0A0D000000005374617274696E6720746F2063616C6962726174652076616C7565732066726F6D2073656E736F722E2E0A0D000000000B
:406B400054657374204E756D6265723A202564200A0D000041583A25642C2041593A25642C20415A3A2564207C7C2047583A25642C2047593A25642C20475A3A25642C09F5
:406B8000000000000A0D00000A0A546573742066696E69736865642C206F66667365742076616C756573206172652073686F776E2062656C6F770A0A0D00000041586F66AE
:406BC000663A25642C2041596F66663A25642C20415A6F66663A2564207C7C2047586F66663A25642C2047596F66663A25642C20475A6F66663A25642C0900000D0A0A4360
:406C00006F6E76657274696E672056616C75657320746F204727730A0A0D000041583A25662C2041593A25662C20415A3A2566207C7C2047583A25662C2047593A25662C95
:406C400020475A3A25662C090000000000300F40000400400F4000040400000044230000EE2300009624000056240000962400004E2400009624000056240000EE23000022
:406C8000EE2300004E24000056240000B4240000B4240000B42400009C240000FC2A0000C82C0000BC2D0000582D0000BC2D0000322D0000BC2D0000582D0000C82C00005D
:406CC000C82C0000322D0000582D0000DE2D0000DE2D0000DE2D0000C42D00004300232D302B2000686C4C0065666745464700494E4600696E66004E414E006E616E003014
:406D0000313233343536373839414243444546003031323334353637383961626364656600496E66696E697479004E614E003000504F534958002E00000000000000F03F18
:406D4000000000000000244000000000000059400000000000408F40000000000088C34000000000006AF8400000000080842E4100000000D01263410000000084D79741AE
:406D80000000000065CDCD41000000205FA00242000000E876483742000000A2941A6D42000040E59C30A2420000901EC4BCD64200003426F56B0C430080E03779C3414397
:406DC00000A0D8855734764300C84E676DC1AB43003D9160E458E143408CB5781DAF154450EFE2D6E41A4B4492D54D06CFF08044F64AE1C7022DB544B49DD9794378EA44B0
:406E000005000000190000007D000000000000000080E03779C34143176E05B5B5B89346F5F93FE9034F384D321D30F94877825A3CBF737FDD4F15759C5E0000F8600000E6
:406E4000F8600000CC6000004460000044600000EC600000CC60000044600000EC60000044600000CC600000E4600000E4600000E4600000FC600000F8B5C046F8BC08BCBB
:406E80009E467047A1020000310E0000F8B5C046F8BC08BC9E46704779020000B06E0000C8000020B8000000900100000000000000000000C0F1FF0F00366E01C05D000044
:406EC000180000000000E02E0000000000000000000000000000000000000000000000000000000000000000DC6C0000000000000000000000000000000000000000000024
:406F00000000000000000000000000000000000000000000000000000000000000000000000000000000000000000000E0000020366D0000E36C0000E36C0000E36C0000C1
:406F4000E36C0000E36C0000E36C0000E36C0000E36C0000E36C0000FFFFFFFFFFFFFFFFFFFFFFFFFFFF000000000000000000000000000000000000000000000000000045
:406F800000000000000000000000000000000000000000000000000000000000000000000000000000000000000000000000000000000000000000000000000000000000D1
:406FC0000000000000000000000000000000000000000000000000000000000000000000000000000000000000000000000000000000000000000000000000000000000091
:407000000000000000000000000000000000000000000000000000000000000000000000000000000000000000000000000000000000000000000000000000000000000050
:407040000000000000000000000000000000000000000000000000000000000000000000000000000000000000000000000000000000000000000000000000000000000010
:0200000490303A
:02000000388B3B
:0200000490402A
:200000000000000000000000000000000000000000000000000000000000000000000000E0
:0200000490501A
:0C000000000204C81193110104EC4A1E18
:0200000490600A
:0100000001FE
:00000001FF