:400000000010002011000000150B0000150B000080B500AF00F082FD80B584B000AF021CFB1D1A70224A3B1C0B3312781A70214A3B1C0A3312781A701F4B1B68013BFB6068
:400040001AE01E4B1868391C0B31FA68131C5B009B18C31801331B780B70184B1868391C0A31FA68131C5B009B18C31802331B780B70FB68013BFB60FB68002B0ADB0F4B59
:400080001968FA68131C5B009B185B5CFA1D12789A42D6D90A4B3A1C0B3212781A60094B3A1C0A3212781A60BD4604B080BDC046CCF1FF0FCDF1FF0FF42C0000CC000020CA
:4000C0001CFF0B4020FF0B4080B500AF194B194A12688021C9020A431A601820FFF79CFF154B19221A60052001F0B6F9134B144A1278D2B21A60052001F092FA0D4B0D4AA0
:400100001168104A0A401A600F4B20221A600F4B10221A600E4B802212061A600D4B802212061A600C4B0D4A1A600D4B0D4A1A60BD4680BD00010B402CFF0B4028FF0B402E
:40014000E5F1FF0FFFFFFBFF080202400C02024008010B4004010B40000002400E000080400002406700008080B582B000AF72B6FB1D00221A7023E0FB1D1A78131C5B00F1
:400180009B185B002F4A9B183B603B681A78597809020A43997809040A43DB781B0613431A1C3B6819795B791B020B439BB2101C191C00F037FDFB1DFA1D127801321A70E5
:4001C000FB1D1B78012BD7D91F4BEE2212041A601E4BEE2212021A601D4B99221A601D4B30221A601C4B902292021A601B4BD82212011A601A4B02221A601A4B31221A604D
:40020000194B02221A60194B992212041A60184B992212041A60174B164A1278D2B202210A43D2B21A70134B124A1278D2B206210A43D2B21A70FFF747FF00F003FDBD4698
:4002400002B080BDE82C0000000001400C0001401000014000000440080004400803044000040440080404401804044000500F4030500F4000700F4010B5064C2378002BBB
:4002800007D10548002802D0044800E000BF0121217010BD4801002000000000B82B000008B5084B002B03D00748084900E000BF07480168002903D0064A002A00D0904746
:4002C00008BDC04600000000B82B00004C010020C800002000000000F0B54F464646C0B487B004AF00F0C8FC00F0EEFF62B600F023FB00F02BFB00F039FB031C002B01D0CB
:400300009B4B00E09B4B181C01F048F89A4B181C01F044F8994B00221A60ACE0974B1B689749984A081C111C1A1C02F041F8944B181C01F033F894489449954A954B964CF8
:400340000094964C0194964C029400F047FB8E4B1B881BB2181C01F081FF021C914B1B68101C191C01F04AFC031C1A1C8D4B1A60864B1B881BB2181C01F070FF021C8A4B56
:400380001B68101C191C01F039FC031C1A1C864B1A607F4B1B881BB2181C01F05FFF021C824B1B68101C191C01F028FC031C1A1C7E4B1A60774B1B881BB2181C01F04EFFB6
:4003C000021C7B4B1B68101C191C01F017FC031C1A1C774B1A60704B1B881BB2181C01F03DFF021C734B1B68101C191C01F006FC031C1A1C6F4B1A60684B1B881BB2181C81
:4004000001F02CFF021C6C4B1B68101C191C01F0F5FB031C1A1C684B1A605B4B1B881AB25A4B1B8818B27860594909880BB29C46584909880EB2584909880DB2574909889F
:400440000CB24F485D49634600930196029503947B6801F0ADFF4A4B181C00F09FFF584B181C00F09BFF192001F0B6F8434B1B685A1C424B1A60414B1B68632B00DC4DE735
:40048000484B1B68181C4F4901F08EFD031C1A1C444B1A60444B1B68181C4A4901F084FD031C1A1C404B1A60404B1B68181C454901F07AFD031C1A1C3C4B1A603C4B1B6843
:4004C000181C404901F070FD031C1A1C384B1A60384B1B68181C3B4901F066FD031C1A1C344B1A60344B1B68181C364901F05CFD031C1A1C304B1A60334B181C00F04EFFF7
:40050000284B1B68181C01F089FE051C264B1B68181C01F083FE041C244B1B68181C01F07DFE8146224B1B68181C01F077FE8046204B1B68181C01F071FE061C1E4B1B6805
:40054000181C01F06BFE011C0D4A204B484600904046019002960391101C191C2A1C231C01F026FF064B181C00F018FFFEE7C046BC2B0000DC2B0000FC2B000064010020A0
:40058000BC0100202C2C00008A010020800100209002002090010020B801002088010020B001002084020020AC010020840100208C010020B40100208C020020402C000050
:4005C000702C00000000C842742C0000A82C000080B584B000AF3B60FB1D1870BB1D19707B1D1A703B1C0F3300221A70FB1D1B78181C002100F0D2FBBB1D1B78181C00F07A
:4006000037FDFB1D1B78181C012100F04FFC09E0002000F093FD031CDAB23B681A703B6801333B603B1C0F3319787B1D1B785A1E0123914200DB0023DBB23A1C0F32391C3C
:400640000F31097801311170002BE1D1012000F075FD031CDAB23B681A7000F0ABFCBD4604B080BD80B582B000AF3A60FB1D021C1A70BB1D0A1C1A70FB1D1978BB1D1A7838
:400680003B68081C111C0122FFF7A2FFBD4602B080BDC04690B585B000AF041C081C111C1A1CFB1D1C70BB1D18707B1D19703B1D1A703B1D1B780122111C99400B1C5A1E0A
:4006C0007B1D19783B1D1B78CB1A01339A403B1C0F331A70FB1D1978BB1D1A783B6A081C111C1A1CFFF7BEFF3B6A1B783A1C0F3212781340DAB23B6A1A703B6A1B781A1C09
:400700007B1D19783B1D1B78CB1A0133111C19410B1CDAB23B6A1A70BD4605B090BDC04680B584B000AF3B60FB1D1870BB1D19707B1D1A703B1C0F3300221A70FB1D1B7852
:40074000181C002100F02AFBBB1D1B78181C00F08FFC07E03B681B783A6801323A60181C00F086FC3A1C0F327B1D12781B789A429B415B42DBB23A1C0F32391C0F310978E8
:4007800001311170002BE5D100F014FCBD4604B080BDC04680B582B000AFFB1D1870BB1D19707B1D1A70FB1D1978BB1D1A787B1D081C111C0122FFF7B3FFBD4602B080BDB9
:4007C00090B585B000AF041C081C111C1A1CFB1D1C70BB1D18707B1D19703B1D1A703B1D1B780122111C99400B1C5A1E7B1D19783B1D1B78CB1A01339A403B1C0F331A7045
:40080000FB1D1978BB1D1A783B1C0E33081C111C1A1CFFF727FF3B1C20331A787B1D19783B1D1B78CB1A01339A403B1C20331A703B1C20333A1C2032391C0F311278097801
:400840000A401A703B1C0F331B78DB43DBB23A1C0E321278D2B21340DBB2DAB23B1C0E331A703B1C0E331A783B1C20331B781343DAB23B1C0E331A703B1C0E331B78FA1DEE
:400880001178BA1D1278081C111C1A1CFFF782FFBD4605B090BDC04690B585B000AF041C081C111C1A1CFB1D1C70BB1D18707B1D19703B1D1A70FB1D1978BB1D1A783B1C04
:4008C0000F33081C111C1A1CFFF7CCFE3B1D1B78002B0ED07B1D1B780122111C99400B1CDAB23B1C0F331B78DBB21343DBB2DBB20FE07B1D1B780122111C99400B1CDBB254
:40090000DB43DBB23A1C0F321278D2B21340DBB2DBB23A1C0F3213703B1C0F331B78FA1D1178BA1D1278081C111C1A1CFFF732FFBD4605B090BDC04680B500AF024B68223F
:400940001A70BD4680BDC0468802002080B500AF012000F0B3F8002000F014F8002000F027F8002000F096F8BD4680BD80B500AF00F0BAF8031C343B5A425341DBB2181C2F
:40098000BD4680BD80B584B002AF021CFB1D1A70064B1B78FA1D12780092181C1B2104220223FFF70DFFBD4602B080BD8802002080B584B002AF021CFB1D1A70064B1B78EF
:4009C000FA1D12780092181C1C2104220223FFF7F7FEBD4602B080BD8802002080B584B000AFF860B9607A603B60284B1A78284B101C3B210E22FFF7EBFD254B1B781B0255
:400A00009AB2234B5B7813439AB2FB681A80204B9B781B029AB21E4BDB7813439AB2BB681A801B4B1B791B029AB2194B5B7913439AB27B681A80164B9B791B029AB2144B91
:400A4000DB7913439AB23B6A1A80114B1B7A1B029AB20F4B5B7A13439AB23B681A800C4B9B7A1B029AB20A4BDB7A13439AB2BB691A80074B1B7B1B029AB2054B5B7B13432D
:400A80009AB2FB691A80BD4604B080BD880200209401002080B582B000AF021CFB1D1A70054B1A78FB1D1B78101C6B210622FFF7F3FEBD4602B080BD8802002080B584B06A
:400AC00002AF021CFB1D1A70064B1B78FA1D12780092181C6B2102220323FFF771FEBD4602B080BD8802002080B582B002AF074B1B78074A0092181C752106220623FFF772
:400B0000C9FD034B1B78181CBD4680BD880200209401002080B500AFFEE7C04680B586B000AF254B7B61254B3B61234B7B61234B3B6132E03B691B68FB603B695B68BB6090
:400B40003B699B683B6000237B600CE0FB681A68BB681A60BB680433BB60FB680433FB607B6804337B607A683B689A42EED13B69DB683B6000237B6008E0BB6800221A6021
:400B8000BB680433BB607B6804337B607A683B689A42F2D13B6910333B617B695A1E9341DBB27A69013A7A61002BC3D101F0C8FBFFF792FBFEE7C04601000000942D0000CB
:400BC00080B582B000AF00237B600FE07B68032B04D8104B7A689200D35800E00E4B0F4A796889008B507B6801337B607B682F2BECD9FFF7B9FA0A4B00221A608023DB0523
:400C00008022D205126801210A431A60BD4602B080BDC04600000000150B000000000020C000002080B582B000AF786039607A683B68101C00211A1C01F0B1FBBD4602B0DF
:400C400080BDC04680B500AFBD4680BD80B500AF00F02CF8BD4680BD80B500AF054B054A1268802109060A431A6000F017F8BD4680BDC0460000074080B500AF064B1B780D
:400C8000002B04D1FFF7E2FF034B01221A70FFF7E3FFBD4680BDC0466801002080B500AF0B2000F063FCBD4680BDC04680B500AF234B00221A60234B234A1A60234B234AF9
:400CC00012680C210A431A60214B224A1A60224B00221A60214B00221A60214B214A1A60214B00221A600B2000F056FC0B20032100F0E8FB1D4B0B20191C00F0BDFB1C4B64
:400D000000221A601B4B00221A601B4B00221A601A4B1B4A1A601B4B00221A601A4B00221A601A4B10221A70194B00221A80194B00221A60184B00221A60BD4680BDC04646
:400D4000000007406000074077080080700007400003074007030080040307401003074000020740070100800402074049160000C80E0740880E0740480F0740080F0740E0
:400D800013010000C80F0740880F074092020020B002002098020020A402002080B584B000AF786039600023FB600423BB60374B1B78DBB2102B64D1354B1A680123134049
:400DC00002D00823BB605CE00B2000F0E5FB7B685A00FF2313407B603B68002B03D12B4B24221A7006E0294B25221A707B68012213437B60274B7A681A60274B274A1A60A2
:400E0000274B02221A60C046234B1A68254B1340FAD0214B1A680423134002D00023BB601CE01D4B1A680223134002D00223BB6014E0194B1A680123134007D0134B10227F
:400E40001A700123BB600123FB6007E00F4B10221A7080235B00BB600123FB600E4B114A1A60FB68002B0CD00F4B0F4A1268520052081A600C4B0C4A1268802109060A4386
:400E80001A60BB68181CBD4604B080BD920200206400074040020740000F07401703000068000740070100000000074080B584B000AF786039600023FB600423BB60364B4D
:400EC0001B78DAB220231340DBB2002B5ED07B685A00FF2313407B603B68002B03D12E4B24221A7006E02C4B25221A707B68012213437B60294B2A4A1A6000F075F9C046B4
:400F0000284B1A6801231340FAD1274B7A681A60C046224B1A68254B1340FAD01F4B1A680423134002D00023BB601CE01B4B1A680223134002D00223BB6014E0174B1A686E
:400F40000123134007D0144B10221A700123BB600123FB6007E0104B10221A7080235B00BB600123FB600D4B104A1A60FB68002B0CD00F4B0E4A1268520052081A600C4B75
:400F80000B4A1268802109060A431A60BB68181CBD4604B080BDC04692020020000F0740170300006800074040020740070100000000074080B582B000AF00237B600423B4
:400FC0003B60254B1B78DAB220231340DBB2002B3CD0224B224A116820220A4001D0182200E010221A60C0461E4B1A681E4B1340FAD01C4B1A681023134002D000233B6082
:401000000EE0184B1A680123134004D001233B6001237B6004E080235B003B6001237B60104B114A1A600C4B10221A707B68002B0CD00E4B0D4A1268520052081A600B4B85
:401040000A4A1268802109060A431A603B68181CBD4602B080BDC046920200206800074064000740000F0740110100000000074080B584B000AF78600023FB600423BB60EF
:40108000294B1B78DAB220231340DBB2002B46D0264B7A681A60C046254B1A68254B1340FAD0234B1A680423134005D01E4B60221A700023BB601FE01D4B1A680223134094
:4010C00005D0194B60221A700223BB6014E0184B1A680123134007D0134B10221A700123BB600123FB6007E00F4B10221A7080235B00BB600123FB600D4B0E4A1A60FB684A
:40110000002B0CD00C4B0C4A1268520052081A60094B094A1268802109060A431A60BB68181CBD4604B080BD9202002040020740000F0740070100000000074080B584B02D
:4011400000AF786001235B42FB601F4B1B78DAB220231340DBB2002B30D0C0461B4B1A680423134004D11A4B1A681A4B1340F5D0164B1A680423134010D0174B1B68FB60D7
:40118000124B04221A607B68002B03D1134B04221A6013E00C4B60221A700FE00C4B104A1A60104B0F4A1268520052081A600D4B0C4A1268802109060A431A60FB68181C58
:4011C000BD4604B080BDC04692020020C00F0740000F0740010100004003074068000740170300000000074080B582B000AF264B1B687B60C04600F0EBF8031C002BFAD067
:40120000002000F0F3F8214B204A1168204A0A401A60204B1F4A1268520052081A607A682023134011D0002000F0E0F80A2000F0F7F9012000F0DAF8C04600F0FDF8031C8A
:40124000002BFAD00A2000F0EBF9002000F0CEF80A2000F0E5F9104B01221A600D4B0D4A1268802109060A431A60084B074A1168074A0A40E02109030A431A60012000F078
:40128000B5F8BD4602B080BD6400074000000140FFFFF0FF000007406800074080B500AF00F028F8BD4680BD80B500AF054B054A1268802109060A431A6000F017F8BD4616
:4012C00080BDC0460000064080B500AF064B1B78002B04D1FFF7E2FF034B01221A70FFF7E3FFBD4680BDC0467001002080B500AFBD4680BD80B500AF174B184A1A60184B73
:4013000000221A60174B01221A60174B174A1A60174B07221A60174B00221A60164B01221A60164B114A1A60154B00221A60154B00221A60144B00221A60144B00221A60B0
:40134000134B00221A60134B00221A60124B00221A60BD4680BDC046000006400B00000240000640480006400003064007000080040306401003064044000640000206408B
:4013800004020640880E0640C80E0640480F0640080F0640C80F0640880F064080B584B000AF78600023FB6009E07A68FB68D3181B78181C00F0BCFBFB680133FB607A682C
:4013C000FB68D3181B78002BEFD1BD4604B080BD80B500AF044B1A68202313405B09DBB2181CBD4680BDC0460400044080B584B000AF021CFB1D1A700E4B1B68DAB23B1C98
:401400000F3310218A431A70FB1D1B781B01DAB210231340D9B23B1C0F333A1C0F3212780A431A70034B3A1C0F3212781A60BD4604B080BD0000044080B500AF044B1A6817
:40144000102313401B09DBB2181CBD4680BDC04604000440000000000230800804D0C0460138FDD1C046C0467047EFF3108072B6704780F31088704780B584B000AF021CCC
:401480003960FB1D1A7080239B05FB60FB1D1B781F2B02D9002000F095F8FB1D1B7810339B00FA68D3181B68BB60FB1D1B7810339B00FA68D3183A681A60BB68181CBD4626
:4014C00004B080BD90B587B000AF0A1CFB1D011C1970BB1D1A70BB1D1B78032B02D9002000F070F8FB1D1B781F2B02D9002000F069F8FB1D1A7803231340DB0006337B614A
:401500003C1C1334FFF7B1FF031C2370FB1D1B789B08DBB29B0014495B181B68FB607B690322111C99400B1CDA43FB681340FB60BB1D1A787B69111C99400B1CFA681343F9
:40154000FB60FB1D1B789B08DBB29B00064A9B18FA681A603B1C13331B78181CFFF789FFBD4607B090BDC04600E400E080B582B000AF021CFB1D1A70064BFA1D11781F2200
:401580000A400121081C9040021C1A60BD4602B080BDC04600E100E080B582B000AF021CFB1D1A70064BFA1D11781F220A400121081C9040021C1A60BD4602B080BDC04682
:4015C00080E100E080B582B000AF021CFB1D1A7001BEBD4602B080BD80B582B000AF786008E00C4B1B68181CFFF736FF7B680A4A9B187B607A6880231B029A42F1D8074BB6
:401600001B687A685343181CFFF726FFBD4602B080BDC046DC0000200080FFFFD400002080B582B000AF021CBB1D1A80BB1D1B88044A12785343181CFFF70EFFBD4602B07F
:4016400080BDC046D800002080B582B000AF00233B60C24B1B68002B02D0C04B1B689847BF4B1A680123134002D0BE4B00221A60BD4B1B78DAB220231340DBB2002B3CD066
:40168000BA4B1A6880235B0013400AD0B84B1B889BB2C022920013439AB2B54B1A8001233B60B24B1A68012313400AD0B04B1B889BB29022920013439AB2AD4B1A800123BF
:4016C0003B603B68002B18D0A74B1B78DAB201231340DBB2002B01D0012300E00223A44A128892B291B21A1C0B1C13439BB29AB29F4B1A809C4B00221A709B4B1B78DAB2E8
:4017000020231340DBB2002B00D1AAE1974B1A68102313401CD0974B10221A60924B1B78DAB201231340DBB2002B01D0012300E002238F4A128892B291B21A1C0B1C1343C9
:401740009BB29AB28A4B1A80874B10221A70BEE1854B1B78DAB208231340DBB2002B29D0824B1A68022313400ED0824B02221A607F4B1B889BB28822920013439AB27C4BA7
:401780001A8001233B6015E0774B1B78DAB201231340DBB2002B03D0734B25221A7009E0714B24221A70744B1B68002B02D0734B10221A606C4B1B78DAB204231340DBB26E
:4017C000002B00D111E1684B1B78DAB201231340DBB2002B5BD06A4B1A680823134033D0684B1A68684B19680F231940674B1B68CB18D31A7B607B68082B02D908237B604C
:401800001EE07B68002B1BD1614B614A1168614A0A401A6008237B6001233B6010E05E4B1A685A4B1B68D2185C4B1B68DBB21370564B1B685A1C554B1A607B68013B7B6097
:401840007B68002BEBD11EE04D4B1A680423134019D0514B1A684D4B1B68D2184F4B1B68DBB21370494B1B685A1C484B1A60474B1A68444B1B689A4203D2494B04221A602E
:4018800001E001233B60474B474A1A60ADE0374B1A680223134032D0364B02221A60434B1A68434B19680F231940414B186880231B02034001D0012300E00023CB18D21A41
:4018C0003A4B1A60394B1A683A4B1A60284B1B889BB28422920013439AB2254B1A80364B354A1268802149020A431A60324B324A1168324A0A401A6001233B6075E0304B2F
:401900001A681023134065D013E0284B1A681A4B1B689A4214D22B4B2B4A1168234A12688A181278D2B21A60204B1B685A1C1F4B1A601F4B1A680F231340082BE5D100E0E1
:40194000C0461A4B1A680C4B1B689A4202D10B4B40221A601D4B1E4A1A6046E06C0100208C0E0740880E0740920200200C0F0740B0020020000F07409C020020880F07402A
:40198000CC0F0740AC020020080307409802002060000740FFFEFFFFB40200204003074068000740C00F0740ED0F00009402002008020740A402002004020740FFFFFEFF53
:4019C0008C0F074040020740A8020020800F0740F30700003F4B1A684023134005D03E4B1A683E4B1A6001233B603B68002B6ED03B4B3B4A11683B4A0A401A603A4B0022FE
:401A00001A603A4B00221A60394B1B78DAB202231340DBB2002B19D0364B1B78DAB201231340DBB2002B01D0092300E00A23324A128892B291B21A1C0B1C13439BB29AB28D
:401A40002D4B1A802B4B60221A7040E02B4B2C4A116820220A4001D0182200E010221A6035E0244B1B78DAB210231340DBB2002B2DD1244B234A1268520052081A601D4B67
:401A800010221A70164B164A11681F4A0A401A60134B134A11681D4A0A401A60124B00221A60124B00221A60194B1A4A1A601A4B1A4A1A601A4B1B4A1A601B4B1B4A1A60A4
:401AC000104B104A1268802109060A431A60BD4602B080BD8C0F074094020020A402002060000740FFFEFFFFC80F0740880F0740A002002092020020B0020020680007405B
:401B00006400074000000740FF5FFFFFFFFCFFFF800F0740ED0F0000C00F0740F3070000400F0740FF0F0000000F07401703000080B582B000AF7860C046064B1A680F236F
:401B40001340082BF9D0044B7A681A60BD4602B080BDC0460802064040020640002934D00123002210B488422CD301242407A14204D2814202D209011B01F8E7E400A1422F
:401B800004D2814202D249005B00F8E7884201D3401A1A434C08A04202D3001B5C0822438C08A04202D3001B9C082243CC08A04202D3001BDC082243002803D01B0901D0A3
:401BC0000909E3E7101C10BC7047002801D00020C04307B4024802A14018029003BDC046190000000029F0D003B5FFF7B9FF0EBC4243891A1847C0467047C046F8B5430278
:401C000042004F024C00C00F9B09120E061C9C46240EC90FBF09884257D0151B002D00DC7EE0002C41D1002F64D0013D002D00D0ABE0DB1B141C061C590144D59A01950979
:401C4000281C00F05FFB05388540844200DD79E0001B1F242B1C411C221ACB4095401F1C2B1C5D1EAB413B43012500240F201840042800D004338021CF0401221F40164003
:401C8000002F05D0FF2D5AD0B34C23402C1C0135EDB2DA08012D3BDD53025A0AE4B2E4052243F607101C3043F8BDFF2A2BD08021CC04274301231B2D49DD6746FB1A141CB2
:401CC000061C5901BAD4651CD0E7151B002D4FDD002C13D0FF2A5AD08024E1040F4301231B2D00DCB0E06344141C590155D4651C061CBBE7551C141C061CB7E7002F7CD188
:401D0000551C141CB2E7802763467D00FF24ADE7002AC3D0002C28D08020C1030A43BBE7002D47D1501CC3B2012B00DC96E06446E51B680158D53D1B0E1C141C80E7FF2491
:401D40000022ACE7844B241A2B40651C8EE73E1C2021EE404D1BAF403B1C5F1EBB4133436746FB1A141C061CABE757027A0A96E7002D7FD1541CE1B2012953DDFF2C00D104
:401D80009BE0FB185B08951C70E7FF2A92D1061C802063464500FF2468E7671CFF2F3CD06D4A01261E4013405B083343A51C061C3C1C5BE76842002A25D0FF2C70D0802204
:401DC000D6041D1C3543AC4601261B2809DC62462025C2402B1A60469840061C701E86411643BB1B0E1C27E7141C002D00D027E700260125042300244AE7013D002D08D140
:401E0000FB18141C71E7002B50D1651C3B1C0E1C2CE7FF2A00D062E7B9E780235D00FF24042335E7002A7CD1002B00D1A1E0002F00D1AFE0FB18590100D4B0E0464E02254F
:401E400033400124061C11E73C1C2023EC405D1BAF403B1C5F1EBB41234344E7002A12D16546002D41D1002FC2D03B1C0E1C01250024FBE66D42002A23D1002B66D1651C0D
:401E80003B1C061CF2E66246002A38D1002F07D1802200265500314BFF24F9E6FF2C93D13B1C80270E1C7D00FF24DFE601380028F4D16646BB1B0E1CBEE680277D00042377
:401EC000E6E6FF2C5CD08022D1040B439C4601231B2D08DC20216246EA4063464D1BAB40591E8B411343DB19FFE6002F38D0EB1B5A014BD57B1B0E1C01250024B6E6002FBA
:401F000000D100E78020D308C403234204D0FF08274201D13B1C0E1C8021DB004D00FF24A4E6002B20D0002F00D1ECE68022DE08D503311C2E4203D0F908294200D0311CCF
:401F4000061C8020CB004500FF248FE6013D002D14D1FB18C9E6C046FFFFFFFBFCFFFF0363460125002481E6802465003B1CFF247CE63B1C061C0125002477E6FF2CA6D1E9
:401F80003B1C8027061C7D00FF246FE6002B00D12EE769E66346061C0125002466E6061C0125002462E6C046F0B55F4656464D464446F0B44502440083B00E1C6D0A240E59
:401FC000C70F002C07D1002D00D091E0042101228846924609E0FF2C55D08023180400210543ED007F3C88468A46331C58007602D90F760A000E8B464CD101229446002E56
:4020000000D081E05B467B406246414601930A430F2A50D9201A690181467501A94200D3B3E00122534299441B2400260127621E381C10404B007600002900DAA9E09D42FD
:4020400000D8A6E0013C002C00DCABE000280CD0191C76005B00002901DB9D4201D85B1B3E43013C002C00DC9CE059007200002B01DB8D4201D8491B3A43013C4B0056007A
:402080000029EADAEBE7002D2DD10820022180468A46AAE7FF2820D08022130400211E438C465B467B4062464146F6007F3801930A430F2AAED8564992008A589746019B3C
:4020C000FF260025F0052843DE07304303B03CBC90469946A246AB46F0BD331C5A1E934102339C468EE70C22032390469A467CE7281C00F007F97622441F5342A5401C1A85
:4021000000208046824670E7301C00F0FBF87623411F8E405A420021101A8C4672E700233C4DFF26CEE75F46351C01976346022BC5D0032B63D0012B43D049467F3100290B
:4021400035DD0F272F40042F00D004352B0103D5314A494615408031FE29B0DCA801450ACEB2019BAEE700260025ABE78020C1030D4211D00E420FD10E4373025D0AFF2609
:402180005B469FE701975346D1E7491B1A2401264CE75B1B3E4355E70D436A02550A3B1CFF268FE71D1C6B1E9D413543C5E77E2467424A46B91A1B2908DD019B0026002551
:4021C00080E7019D00262B4000257BE74E469E36281CB5402B1C5D1EAB41C84003430F251D40042D00D004335A0103D5019B0126002567E79C01650A019B002662E7802735
:40220000FC0325436E02750A019BFF265AE7C046F82C0000FFFF7F00FFFFFFF743024200590A00B5130EC20F00207E2B0DDD9D2B0CDC802000040143952B0ADC9620C31A96
:40224000D9404842002A00D1081C00BD02495018FBE7963B9940F4E7FFFFFF7F70B5041E3CD0C50F00D04442201C00F04BF89E21261C0B1A962B0ADC0838844061024C0AD3
:40228000DBB2DB051C43ED07201C284370BD992B0ADD0522141A311CE140041C1B34A6400A1C711E8E41164305281BDC144C0F2234401640042E00D00434620105D59F2332
:4022C0001B1AFF2B0CD00E4804405E1CF1B2E40801290ADD6402640ADBB2D2E7002500230024CEE7411F8E40E0E7002CF4D0002B03D08022D0030443ECE76602740AC0E7B5
:40230000FFFFFFFB1C2101231B04984201D3000C10391B0A984201D3000A08391B09984201D30009043902A2105C40187047C04604030202010101010000000000000000B8
:4023400070B50E4B0E4D0024E81A85101E1CAC4204D0A100725890470134F8E700F008FD0849094A0E1C541AA5100024AC4204D0A300F05880470134F8E770BD7C2D00000F
:402380007C2D00007C2D0000842D000010B50023934203D0CC5CC4540133F9E710BD00B58218031C934202D019700133FAE700BD0EB400B59CB01DAB02A904CB82220290BE
:4023C0000861920009488A810122886048615042074AC88110681D9A019300F063F8029900230B701CB008BC03B01847FFFFFF7F44010020F7B501919168071C141C002929
:4024000040D190239289D80002423BD02568216963696E1A58000096C6180098F50FAB1901305D10A84201DB009D0235381C53050FD5291C00F004FB061E13D02169009AD8
:40244000FFF7A4FFA7891649802239401143A18111E02A1C00F04AFB061E0CD1381C216900F0A6FA0C203860A58940263543A5810124604213E0009B6561F018ED1A266121
:402480002060A560A668002E08DD694627680A793A70A3680137013B2760A3600020FEBD7FFBFFFFF0B5A1B0049007938B890E1C171C19060FD53269002A0CD1402100F024
:4024C000BFFA30603061002803D1049C0C262660D6E04020706108AD00212024302369616C76AB763C1C2278002A04D1E01B069019D003970FE0252AF8D00134F3E70399D7
:40250000321C09780498FFF775FF039A01320392013000D1AFE003990698CB1B8342EEDB0D9F3A180D922178002900D1A3E001206A4600234742633201342B60EB606F6083
:40254000AB601370AB65504F2178381C052200F0C1FA002807D0C71B2B680120B840184328600134EFE72B68D90603D568462021633001701A0703D56A462B276332177090
:4025800021782A2901D00B9B0EE0079A1068111D0791002801DB0B9004E0022247421343EF602B60013409E020783038092804D80A277B4301341B18F6E70B9323782E2B9A
:4025C00018D161782A2909D1079B02341A68191D0791002A0DDA012042420AE00134002220783038092804D80A277A4301341218F6E70992254F2178381C032200F06AFA21
:40260000002806D02B68C21B4021914019432960013421781E4806222976671C00F05AFA002817D01B4800280BD12868079C0723C10501D5E41800E007349C430834079417
:4026400014E007AA00920498291C321C124B00E000BF07E007AC00940498291C321C0E4B00F08CF8059005994A1C04D00D99059A8C180D9436E7B589690601D40D9801E0B2
:402680000127784221B0F0BD3A2D0000402D0000442D000000000000F5230000F7B5151C01930A698B6800900C1C934200DA131C201C2B6043300178002901D001332B6084
:4026C0002668B00602D52F6802372F602268062616401CD0261C4336377822683E1C731E9E4192061CD5A319181C40303021271CC17045373A784133DA70023610E0617E09
:402700000098019A089FB847013006D00136E3682868191A8E42F2DBDCE7012040422CE00027B7420ADAE119433109780098019A089B98470130F0D00137F2E72B6825689B
:4027400006212940E6680025042903D1F01AC743FD170540A2682669B24201DD931BED180027AF4208DAA17E0098019A089EB0470130D2D00137F4E70020FEBDF0B50D1C52
:402780008BB0433507930590069204950A7E0C1C109B6E2A00D1A8E012D8632A24D009D8002A00D1B1E0582A00D0C1E045310A707D4D51E0642A1FD0692A00D0B8E01BE091
:4027C000732A00D1A5E009D86F2A2BD0702A00D0AEE00A68202616430E6038E0752A21D0782A00D0A4E032E018680E1C051D1D600368423633709EE026681F68300606D4D8
:40280000750604D5381D186000203D5E02E03D1D1D603D68644B002D3BDA04992D226D420A7036E027681E683D0605D4780603D5351D1D60358802E0311D196035685A4B44
:40284000207E039308276F281ED00A271CE0271C45377820554D38701A682668111D03951960300603D4750601D5158800E01568F00702D520231E4326601027002D03D1CB
:402880002668202086432660261C43360022327001E003930A276168A160002903DB2068042398432060002D02D1049E00290ED0049E281C391CFFF795F9039A013E515C08
:4028C000281C3170391CFFF749F9051EF1D1049B9A1B2261082F33D12768F80730D5606890422DDC013262602AE008681E684969050606D4450604D5351D1D603368198086
:4029000003E0321D1A603768396000202061049E16E01E68311D19603668301C00F01EF965682061A84200D925612369636004E0261C4236327001212161049F00223A7003
:4029400007990598009109AA211C069BFFF7A6FE01300CD0351C2269AB1B93420ADA29780598069A079FB84701350130F3D10122504217E02668B10705D4099BE0689842B7
:4029800010DA181C0EE00025E7680998391A8D42F3DA617E0598069A079EB0470130E6D00135F1E70BB0F0BD4B2D00005C2D000030B5002940D004390B68002B00DAC9183D
:4029C0001E4A1368141C002B02D14B60116033E099420FD20D684A199A4205D110682B1855680B604D6000E04B60216024E08A4203D8131C5A68002AF9D11D685C198C425D
:402A00000BD10C682D1958191D60904214D1116852686C181C605A600EE08C4202D90C21016009E008680D18954203D114685268001908604A60596030BDC046780100207A
:402A400070B50323CD1C9D430835061C0C2D01D20C2501E0002D2DDB8D422BD31C4A1368111C1C1C002C12D02068421B0CD40B2A02D92260A41815E0A34202D166680E6073
:402A80001CE065685D6019E0231C6468EAE7301C291C00F051F8421C0CD0C41C03218C43844201D1256009E0211A301C00F044F80130F7D10C243460002008E0201C0B30EF
:402AC0000722211D9043431A01D05D42E55070BD7801002000B5C9B28218904204D003788B4202D00130F8E7002000BDF8B5061C0C1C151C002904D1111CFFF7A1FF041C54
:402B000018E0002A03D1FFF753FF2C1C12E000F02CF8A8420ED2301C291CFFF791FF071E07D0211C2A1CFFF731FC301C211CFFF73FFF3C1C201CF8BD38B5074C0023051CFC
:402B4000081C236000F01CF8431C03D12168002900D0296038BDC046B80200200023C25C0133002AFBD1581E704704390B6800B5181F002B02DAC8581918081F00BD000027
:402B80000A4A00B51368002B0CD018186946884202D81060181C00BD054B0C2201201A604342F7E7034B1360EFE7C0467C010020B8020020C0020020000000004D5055360C
:402BC00030353020636F6E6E656374696F6E207375636365737366756C0A0D004D50553630353020636F6E6E656374696F6E206661696C65640A0A0D00000000537461722C
:402C000074696E6720746F2063616C6962726174652076616C7565732066726F6D2073656E736F722E2E0A0D0000000054657374204E756D6265723A202564200A0D000024
:402C400041583A25642C2041593A25642C20415A3A2564207C7C2047583A25642C2047593A25642C20475A3A25642C09000000000A0D00000A0A546573742066696E697373
:402C80006865642C206F66667365742076616C756573206172652073686F776E2062656C6F770A0A0D00000041586F66663A25642C2041596F66663A25642C20415A6F6628
:402CC000663A2564207C7C2047586F66663A25642C2047596F66663A25642C20475A6F66663A25642C09000000300F40000400400F4000040400000014200000BE200000A0
:402D00006621000026210000662100001E2100006621000026210000BE200000BE2000001E210000262100008421000084210000842100006C2100004300232D302B200065
:402D4000686C4C006566674546470030313233343536373839414243444546003031323334353637383961626364656600000000F8B5C046F8BC08BC9E467047A1020000C2
:402D8000C10B0000F8B5C046F8BC08BC9E46704779020000A82D0000C800002080000000780100000000000000000000C0F1FF0F00366E01C05D0000180000000000E02EA9
:402DC0000000000000000000000000000000000000000000000000000000000000000000382D0000000000000000000000000000000000000000000000000000000000006E
:402E0000000000000000000000000000000000000000000000000000000000000000000000000000E000002000000000000000000000000000000000000000000000000092
:402E40000000000000000000000000000000000000000000000000000000000000000000000000000000000000000000000000000000000000000000000000000000000052
:402E80000000000000000000000000000000000000000000000000000000000000000000000000000000000000000000000000000000000000000000000000000000000012
:402EC00000000000000000000000000000000000000000000000000000000000000000000000000000000000000000000000000000000000000000000000000000000000D2
:402F00000000000000000000000000000000000000000000000000000000000000000000000000000000000000000000000000000000000000000000000000000000000091
:0200000490303A
:020000008D98D9
:0200000490402A
:200000000000000000000000000000000000000000000000000000000000000000000000E0
:0200000490501A
:0C000000000204C81193110104D69F2BCC
:0200000490600A
:0100000001FE
:00000001FF